:040000000DEF00F010
:04000800A1EF09F06B
:10001800FF00D1EF07F0010E0001F26F000EEE6F46
:10002800D6EC09F06F0028FFF3F06F002CFFF4F016
:100038006F0030FFF5F0200E2B6E000E2A6E600E5A
:100048002C6E000E2D6E66EC09F0470E000160194B
:10005800D8A416D0430E6119D8A412D02B0E621959
:10006800D8A40ED0320E6319D8A40AD0F4A7F4B5D8
:1000780002D0F4A105D03F013851D8B493EC0AF06E
:10008800000E3F01386F3BEC0AF001013B05D8A494
:1000980003D0210E3A0160136000CCF42AF060000E
:1000A800D0F42BF06000D4F42CF00101325174EC40
:1000B80004F0EBEC08F021EC08F00001F4A7F4B52B
:1000C80006D0F5BF04D02BEC09F058EC0BF006EC89
:1000D80007F001013B5109EC0AF0800ED26E6F0067
:1000E80028FFF3F06F002CFFF4F06F0030FFF5F0FD
:1000F8000001F4A7F4B501D0F3BD0400EDEC02F063
:10010800A00E2A6E000E2B6ED4EC0AF00001EF6FE1
:10011800EF51D8B4E4D7D29E14D2090EC86F000E9E
:10012800C96F030ECA6FC80E306E000E316E030E13
:10013800326E9AEC06F049D2A251010AD8A4030AF9
:100148006000ECF42AF0A1516FEC07F06000A8F011
:1001580030F06000ACF031F0080E326E9AEC06F028
:1001680034D2B5EC0AF06000A8F030F06000ACF0D2
:1001780031F00A0E326E9AEC06F027D2470EA1191A
:10018800D8A412D0430EA219D8A40ED02B0EA319AE
:10019800D8A40AD0320EA419D8A406D0050EEF1997
:1001A800D8A402D0000E01D0010EF26F000E00019B
:1001B800C86FC80E306E000E316E010E326E9AECAA
:1001C80006F003D2F251D8A413D0010EC86F100E56
:1001D800C96F000ECA6F100ECB6F000ECC6FC80E21
:1001E800306E000E316E050E326E9AEC06F0EDD1CF
:1001F800C869DFD7F251D8A4FBD7030EEF6520D02A
:10020800600088F2F0F0F16BF051F16FF06BA151E2
:10021800F013030EF66F0FD0A00EF625D96EDA6A2A
:10022800000EDA22DF502A6EF0519AEC0BF0000132
:10023800F04BF12BF62BEF51F65DD8B0B7D7ECD7D2
:10024800FE0EB6D7F251D8A4D3D7040EEF19D8A40E
:10025800F7D7600088F2F0F0F16BF051F16FF06BB6
:10026800A151F01360008CF2ECF0EC51D8B4E8D74F
:10027800000EC86F000EF66F15D0F6514D6E4E6A1F
:10028800010E4D26000E4E22C80E4D24D96E000ECA
:100298004E20DA6EF051ACEC0BF0DF6E0001F04B43
:1002A800F12BF62BEC51F65DD8B003D01F0EF66596
:1002B800E4D7C80E306E000E316EEC29326E9AEC1F
:1002C80006F083D1FF0081D1FD0E72D7F251D8A478
:1002D8008FD7100EEF19D8A4B3D7A10E2A6E000E2F
:1002E8002B6E84EC0BF062D7F251D8A481D7100E94
:1002F800EF19D8A4A5D7A10E2A6E000E2B6E6EECAE
:100308000BF054D7F251D8A473D727EC0BF0600048
:10031800A8F0C4F06000ACF0C5F0000E0001C86F92
:10032800000EF66F0E0EF66501D018D0F651C425F2
:10033800D96E000EC521DA6EF6514D6E4E6A010E69
:100348004D26000E4E22C80E4D24E16E000E4E20A2
:10035800E26E6F007FFFE7FFF62BE4D7C80E306E22
:10036800000E316E100E326E9AEC06F02ED1F2515C
:10037800D8A43ED70DEC0BF06000A8F0C6F06000E2
:10038800ACF0C7F0000E0001C86F000EF66F0E0E3D
:10039800F66501D0E3D7F651C625D96E000EC72100
:1003A800DA6EF6514D6E4E6A010E4D26000E4E2243
:1003B800C80E4D24E16E000E4E20E26E6F007FFFE6
:1003C800E7FFF62BE4D7F251D8A412D706EC07F0D2
:1003D800EDD6F251D8A40CD7000EEE6F000EE8D679
:1003E800F251D8A405D7010EF66F13D0A00EF6254A
:1003F800D96EDA6A000EDA22600EEE25E16EE26A44
:10040800000EE2226F007FFFE7FFEE2B3F0EEE1794
:10041800F62BEF51F65DD8B0C9D6E8D7F251D8A47B
:10042800E7D6020EEF19D8A40BD7600084F2EDF0DE
:10043800ED51D8B405D7000EC86F000EF66F1AD06C
:10044800600EEE25D96EDA6A000EDA22F6514D6E8C
:100458004E6A010E4D26000E4E22C80E4D24E16E46
:10046800000E4E20E26E6F007FFFE7FFEE2B3F0E7F
:10047800EE17F62BED51F65DD8B003D01F0EF665DA
:10048800DFD7C80E306E000E316EED29326E9AEC51
:1004980006F09BD0F251D8A4ABD6030EEF19D8A41E
:1004A800CFD6600088F2F0F0F16BF051F16FF06B8D
:1004B800A151F0133F0EF0154D6E000EF1154E6E62
:1004C8004D504E10D8A4BCD66000C0F32EF060008A
:1004D800C4F32FF0600E306E000E316EAAEC08F0F7
:1004E80065D6F251D8A484D6030EEF19D8A4A8D69D
:1004F800600088F2F0F0F16BF051F16FF06BA151F0
:10050800F0136000C0F32AF06000C4F32BF0600E13
:100518002C6E000E2D6E66EC09F048D6F251D8A468
:1005280067D6000EC86FC80E306E000E316E010E11
:10053800326E9AEC06F093EC0AF047D0B6EC0BF06A
:1005480044D0A051000AD8B4E8D5100AD8B416D6B9
:10055800010AD8B437D6030AD8B44CD6010AD8B49D
:1005680071D6070AD8B4AED6010AD8B4ADD6030AF4
:10057800D8B4ACD6010AD8B4B7D60F0AD8B4C2D604
:10058800010AD8B4F4D6390AD8B41DD7600AD8B449
:10059800D3D5010AD8B4E5D5030AD8B4E2D5320ACE
:1005A800D8B417D7010AD8B41BD7030AD8B436D79A
:1005B800010AD8B46FD7070AD8B493D7010AD8B4B8
:1005C800ADD78A0AD8B4A9D5B9D7B6EC0BF0D28E74
:1005D80086D56F0028FF2AF06F002CFF2BF06F00E4
:1005E80030FF2CF01A502A182E6E1B502B182F6E25
:1005F8001C502C18306E6000A8F01AF06000ACF0A7
:100608001BF06000B0F01CF030AE02D0000E016E9E
:1006180030AC02D0000E026E2FA602D0000E036E80
:100628002FA402D0000E046E2EAC02D0000E056E70
:100638002EA602D0000E066E2EAA02D0000E076E5D
:100648002EAE02D0000E086E2EA802D0000E096E43
:100658002FA002D0000E0A6E2FA202D0000E0B6E41
:100668002EA402D0000E0C6E30A002D0000E0D6E2B
:1006780030AA02D0000E0E6E2FAA02D0000E0F6E06
:100688003901A3AF1200A39F000E2D6E010E2D2479
:10069800D96EDA6A000EDA22DF2A2D2A0E0E2D64B0
:1006A800F5D7000E166E800E176E090E016407D07E
:1006B8001CBE05D00A0E016E01014B511612090E1F
:1006C800016407D01CBE05D00A0E016E01013C5121
:1006D8001712090E026407D01CBC05D00A0E026E60
:1006E80001014C511612090E026407D01CBC05D03A
:1006F8000A0E026E01013D511712090E036407D05C
:100708001BB605D00A0E036E01014D511612090ED3
:10071800036407D01BB605D00A0E036E01013E51D3
:100728001712090E046407D01BB405D00A0E046E14
:1007380001014E511612090E046407D01BB405D0EE
:100748000A0E046E01013F511712090E056407D005
:100758001ABC05D00A0E056E01014F511612090E7A
:10076800056407D01ABC05D00A0E056E0101405178
:100778001712090E066407D01AB605D00A0E066EBF
:10078800010150511612090E066407D01AB605D099
:100798000A0E066E010141511712090E076407D0AF
:1007A8001ABA05D00A0E076E010151511612090E28
:1007B800076407D01ABA05D00A0E076E0101425124
:1007C8001712090E086407D01ABE05D00A0E086E63
:1007D800010152511612090E086407D01ABE05D03D
:1007E8000A0E086E010143511712090E096407D059
:1007F8001AB805D00A0E096E010153511612090ED6
:10080800096407D01AB805D00A0E096E01014451CF
:100818001712090E0A6407D01BB005D00A0E0A6E1B
:10082800010154511612090E0A6407D01BB005D0F5
:100838000A0E0A6E010145511712090E0B6407D002
:100848001BB205D00A0E0B6E010155511612090E86
:100858000B6407D01BB205D00A0E0B6E010146517E
:100868001712090E0C6407D01AB405D00A0E0C6EC4
:10087800010156511612090E0C6407D01AB405D09E
:100888000A0E0C6E010147511712090E0F6407D0AA
:100898001BBA05D00A0E0F6E010159511612090E26
:1008A8000F6407D01BBA05D00A0E0F6E01014A511A
:1008B8001712090E0D6408D00A0E0D6E1CA003D085
:1008C800000E186E01D01868090E0E6412000A0E88
:1008D8000E6E1CAA03D0000E196E120019681200C1
:1008E800316E800E3E01F86F000EF96F030EFA6F3D
:1008F800FA518F0B6009FA6F070EFB6F3F0EFF6FFF
:10090800000EFD6FF369040EEC6F1D0EFE6FD78F9E
:10091800D7A1FED76000C4F055F06000A8F056F0EB
:100928006000ACF057F06000B0F058F03901A197C2
:10093800000E326E550E3224D96EDA6A000EDA22B3
:10094800DF503E01F16F3901A1A7FDD7A1974F0EE6
:100958003224D96EDA6A000EDA226F009BFBDFFFC1
:10096800322A050E3264E6D73901550EEF6FAA0E0A
:10097800EF6FEF81550E2D6E000E2E6E2F6A306AC6
:10098800110E05D0D89030322F322E322D32E82E6B
:10099800F9D72D503B01FB6F550E2D6E000E2E6EB4
:1009A8002F6A306A6000B8F02DF06000BCF02EF0BD
:1009B8006000C0F02FF0306A2D50FA6F550EF96FB5
:1009C800F10E2D6E3E0E2E6E2F6A306A6000B8F062
:1009D8002DF06000BCF02EF06000C0F02FF0306AFF
:1009E8002D50F16FF10EF06F000EF86F060EF76FD5
:1009F800000EEF6F010EEE6F2A0EFF6F3F0EFD1710
:100A0800FD9BE70EFD17FD51F90B0209FD6FFD91E6
:100A1800C00EFC6F000EDB6FE60E2D6E3E0E2E6EC6
:100A28002F6A306A6000B8F02DF06000BCF02EF03C
:100A38006000C0F02FF0306A2D50DA6FE60ED96FE3
:100A48004F0E2D6E000E2E6E2F6A306A6000B8F0C1
:100A58002DF06000BCF02EF06000C0F02FF0306A7E
:100A68002D50D16F4F0ED06F000ED86F010ED76F7B
:100A7800000ECF6F060ECE6F0B0EDF6FDD513F0BF2
:100A88004009DD6FDD9BE70EDD17F90EDD17DD91FF
:100A9800C00EDC6FFC8B12003A503B5C306E316A42
:100AA800D8A03106000E336E020E326E66EC08F0E6
:100AB8006000C0F045F06000C4F046F0000E4A6ED9
:100AC800000E496E3C50495C4B6E4A50D8A04A040F
:100AD8004C6E3F50D8B404D04B6C4C1ED8B04C2A46
:100AE8004CAE11D060002CF140F0600030F141F0C4
:100AF800401E411E404A412A600000F143F0600058
:100B080004F144F006D060002CF143F0600030F1AD
:100B180044F03D50406E416A4050435C4450800A66
:100B2800426E4150800A4258D8B009D04950382402
:100B3800D96E4A503920DA6E800EDF6E7ED03E5074
:100B4800D8A41BD060002CF12AF0600030F12BF003
:100B5800000E2D6E7F0E2C6E41EC0BF06000A8F09D
:100B680030F06000ACF031F0600014F132F0600059
:100B780018F133F066EC08F03FD04CBE22D04C5050
:100B880003E14B04D8A01DD03D504B5C2A6E4C505D
:100B9800D8A04C042B6E000E2D6E7F0E2C6E41ECEF
:100BA8000BF06000A8F030F06000ACF031F03D5080
:100BB800455C326E4650D8A04604336E66EC08F0A9
:100BC8001BD03D504B242A6E000E4C202B6E000E7D
:100BD8002D6E7F0E2C6E41EC0BF06000A8F030F00B
:100BE8006000ACF031F03D50455C326E4650D8A004
:100BF8004604336E66EC08F06000C0F047F0600011
:100C0800C4F048F0800E4726000E482248AE04D0B3
:100C1800000E486E000E476E48BE06D04804D8A0A5
:100C280003D0000E486E476849503824D96E4A50A0
:100C38003920DA6E60001FF1DFFF494A4A2A4ABEAE
:100C480041D74A04D8B012003DD7000EAC6E010E51
:100C5800AE6E040EAD6E120EAF6E1F0EAB6E000EB2
:100C6800AA6E800EAC6E0F0E6D6E000E6C6E800E4E
:100C78006E6E000E3C01756F180E766F050E776F5D
:100C8800000E786F000E796F080E7A6F020E7B6F78
:100C9800000E7C6F000E7D6F840E746F000E6B6FFC
:100CA8002C0E6C6F050E6D6F000E6E6F000E6F6F61
:100CB800080E706F010E716F000E726F000E736F69
:100CC800840E6A6F000E616F240E626F180E636FD8
:100CD8002B0E646F2C0E656F020E666F040E676F25
:100CE800900E686F600E696F820E606F040E576F0A
:100CF800260E586F2C0E596F250E5A6F000E5B6F1B
:100D0800020E5C6F000E5D6F140E5E6F000E5F6F5B
:100D1800830E566F050E3D011C6F000E196F000EF5
:100D2800156F020E166F820E146F12003F011F9F7F
:100D38003D0117ABFDD7C398000E206E000E1F6E45
:100D4800000E1E6E000E1D6E010EAA6E010E186FAB
:100D58001A9F6000CBF012FD3204D8A40BD06000BB
:100D6800C3F0D9FF6000C7F0DAFFDF50116F800EC3
:100D7800116F3FD06000C3F0D9FF6000C7F0DAFF01
:100D8800DF50116F20EE01F03050D9263150DA22B1
:100D9800DF50116F3250FE0F396E020E386E27D0B9
:100DA8006000E4F033F0346A33BE3406020E3326B2
:100DB800000E34221251356E366A3350355C365087
:100DC800800A376E3450800A3758D8B010D039505E
:100DD800D8A403D0800E116F09D038503024D96EB2
:100DE800000E3120DA6EDF50116F382A390639AE1D
:100DF800D7D71AAFFED717ABFED71A9F3F011F8F61
:100E0800C3881200000E386E040E396E6000A8F414
:100E18003AF06000ACF43BF060003CF13CF060005C
:100E2800DCF43DF06000E4F43EF00101000E36B160
:100E3800010E3F6E50EC05F0000E386E050E396E4F
:100E48006000B0F43AF06000B4F43BF0600040F1A8
:100E58003CF06000DCF43DF06000E4F43EF0010199
:100E6800000E36B3010E3F6E50EC05F0000E386EE2
:100E7800020E396E6000B8F43AF06000BCF43BF042
:100E8800600044F13CF06000E0F43DF06000E4F400
:100E98003EF00101000E36B5010E3F6E50EC05F034
:100EA800000E386E030E396E6000C0F43AF0600030
:100EB800C4F43BF0600048F13CF06000E0F43DF021
:100EC8006000E4F43EF00101000E36B7010E3F6EFB
:100ED80050EC05F012002D6E600058F022F0600012
:100EE8005CF023F0000E4F24D96EDA6A040EDA2281
:100EF800DF50246E000E5024D96EDA6A050EDA220D
:100F0800DF50256E2CD0000E5124D96EDA6A020EFD
:100F1800DA22DF50266E000E5224D96EDA6A030EEA
:100F2800DA22DF50276E000E286E000E296E30D0B0
:100F3800000E5224D96EDA6A030EDA22DF502C6EC4
:100F48002C3A0F0E2C16000E5124D96EDA6A020EB6
:100F5800DA22DF50F00B2C10266E000EE3D72D504E
:100F6800000AD8B4D0D7010AD8B4E2D7030AD8B453
:100F7800DFD7010AD8B4C7D7070AD8B4C4D7010A3B
:100F8800D8B4C1D7030AD8B4BED7010AD8B4BBD7DE
:100F9800220E2A6E000E2B6E1200A20EF66E170E8F
:100FA800F76E000EF86E00EE4FF010EE0CF0090030
:100FB8006F00D7FFEEFFE550E150F9E101EE00F1D7
:100FC80010EE00F1EE6AE550E150FCE1E250FAE182
:100FD80001EE00F010EE00F1EE6AE550E150FCE1A0
:100FE800E250FAE100EE00F310EE00F1EE6AE5508F
:100FF800E150FCE1E250FAE100EE00F210EE00F1FF
:10100800EE6AE550E150FCE1E250FAE100EE00F151
:101018005A0EEE6AE806FDE100EE01F0290EEE6ACE
:10102800E806FDE1080ED56E000ED66E000ED76EEE
:10103800000EF86E00010FEF00F0000E946E010E26
:10104800966E000E976E000E926E500E936E050E01
:10105800956E3901A9919981000EAC6E010EAE6EA4
:10106800000EAF6E000EAA6E7D0EAB6EA495F00E4C
:10107800AC6E04D0CBB802D0000EAA6EA4A5FAD7E5
:10108800550E3F015F6F29EC06F0800E946E3F010C
:101098001B691C691D69000E126F000E136F000E8C
:1010A800146F880E1E6F430E1F6F010E216F000E06
:1010B800236F000E226F3901A19F818F918F3F010D
:1010C8001F8F1200000E356E33AE06D0326C331E01
:1010D800D8B0332A010E356E31AE06D0306C311ED1
:1010E800D8B0312A010E351A000E376E000E366E52
:1010F80032503310D8B41CD0010E346E04D0D890BE
:1011080032363336342A33AEFAD7D89036363736B5
:101118003250305C33503158D8A005D03250305E50
:101128003350315A3680D89033323232342EEDD79C
:101138003550D8B404D0366C371ED8B0372A600082
:10114800D8F030F06000DCF031F012003F0E2E14C1
:10115800326E000E2F14336E32503310D8A41200A2
:10116800200E2F5CD8A01200400E2E24326E000EE6
:101178002F20336E3204800E3358D8B0120060002E
:10118800B8F02AF06000BCF02BF067EC0AF00A0017
:10119800000E356E000E346E34503024D96E355042
:1011A8003120DA6EDF50F56E0F00344A352A35509B
:1011B80004E1400E345CD8A0EFD73901E59DE58FF6
:1011C800E585E599BFEC0BF03901E5951200000EB5
:1011D800B86E470EB96E7C0EB76E3901A39F800EAC
:1011E800B86E4B0E2A6E010E2B6E000E2D6E000E81
:1011F8002C6E000E2F6E0F0E2E6EF2EC0AF03C0EC7
:101208002A6E010E2B6E000E2D6E000E2C6E000E37
:101218002F6E0F0E2E6EF2EC0AF0010E01014B6FCD
:10122800020E4C6F040E4D6F080E4E6F100E4F6F6E
:10123800010E416F020E426F040E436F080E446F99
:10124800100E456F200E466F400E476F1200240E99
:101258002A6E010E2B6E000E2D6E000E2C6E000EE7
:101268002F6E180E2E6EF2EC0AF0470E0101246F55
:10127800430E256F2B0E266F320E276F000E296F37
:10128800100E286F000E2A6F2B69000E2C6F2D6927
:10129800000E2E6F2F69000E306F3169110E326FFC
:1012A800120E336F130E346F140E356F000E366F37
:1012B800180E376F180E386F010E396F3A69010E24
:1012C8003B6F12003F0E2A142E6E000E2B142F6E49
:1012D8002E502F10D8A41200200E2B5CD8A012007C
:1012E800400E2A242E6E000E2B202F6E2E04800E08
:1012F8002F58D8B01200000EF86E2B50F76E600011
:10130800ABF0F6FF3901E59DE58F000E316E000E5A
:10131800306E090030502C24D96E31502D20DA6EF1
:101328006F00D7FFDFFF304A312A315005E1400E08
:10133800305CD8B01200EDD71200390191BFA1AFCF
:1013480023D0A19FD8901D367F0E3F01186501D08C
:1013580002D0010E01D0000E1D12000E1E6E000EEE
:10136800926E202A080E2018D8A40ED0000E1F2432
:10137800D96EDA6A010EDA22600077F0DFFF000E1C
:101388001D6E000E206E1F2A3901A9A111001F50E1
:10139800D8B403D0010E1E6E02D0C8EC0BF0390190
:1013A800A9911100000ED2BE010E2A6ED29E550ED2
:1013B8003A01BF6FAA0EBF6FBF910C0ECC6F0C0E17
:1013C800D26F040E0C6F550EBF6FAA0EBF6FBF8190
:1013D8002AA002D0D28E01D0D29EBB68C268C36850
:1013E800C468030E3A01406F000E506F1E0E606F06
:1013F800FC0E416F3F0E516FE10E616F000E426FA0
:10140800100E526F000E626F12002A6E000E4F24EB
:10141800D96EDA6A040EDA22DF50106E000E5024FC
:10142800D96EDA6A050EDA22DF50116E000E5124E9
:10143800D96EDA6A020EDA22DF50126E000E5224DA
:10144800D96EDA6A030EDA22DF50136E2A50D8A456
:1014580007D0600060F014F0600064F015F012002E
:10146800600050F114F060004CF115F01200240EE9
:10147800326E010E336E000E346E04003450322486
:10148800D96E000E3320DA6E3450ACEC0BF0DF6E00
:10149800030E3418D8A412D0470E010124190AE10A
:1014A800430E251907E12B0E261904E1320E2719E0
:1014B800D8B404D02BEC09F058EC0BF0342A170EF2
:1014C8003464DBD712003F0E2A142C6E000E2B1446
:1014D8002D6E2C502D10D8A41200200E2B5CD8A0F5
:1014E8001200400E2A242C6E000E2B202D6E2C0488
:1014F800800E2D58D8B01200000E3901E56F000E8D
:10150800F86E2B50F76E6000ABF0F6FFE59DE58FA7
:10151800E589E585BFEC0BF03901E5951200000E71
:10152800D26E010E3F01386F000EFC6E550ED46E60
:10153800AA0ED46E000ED46ED4900C0ED56E200E6A
:10154800D66E000ED76E550ED46EAA0ED46E010E4E
:10155800D46ED480000EFB6E200EFA6E040EF96E67
:101568001200000E226E000E236E600040F024F080
:10157800600044F025F0600048F026F060004CF070
:1015880027F0600050F028F0600054F029F0020EB7
:101598002A6E020E2B6E220E2A6E000E2B6E120081
:1015A8001E50D8A402D0000E1200000E2C6E10D0CF
:1015B800000E2C24D96EDA6A010EDA222C502A2465
:1015C800E16E000E2B20E26E6F007FFFE7FF2C2AF2
:1015D8001F502C5CD8A0ECD71F5012006000A8F058
:1015E80030F06000ACF031F00BD06000C3F0D9FFF0
:1015F8006000C7F0DAFF6000B3F0DFFF304A312A3D
:101608002E06D8A02F062E28F0E12F28D8B41200D5
:10161800ECD7000E2C6E3C0E2C24D96EDA6A010E23
:10162800DA22220E2C24E16EE26A000EE2226F001A
:101638007FFFE7FF2C2A0E0E2C64EDD7220E2A6EB0
:10164800000E2B6E1200000E2C6E4B0E2C24D96E41
:10165800DA6A010EDA22220E2C24E16EE26A000E0A
:10166800E2226F007FFFE7FF2C2A0E0E2C64EDD7D5
:10167800220E2A6E000E2B6E12002A502C026F00CA
:10168800CCFF2EF06F00D0FF2FF02A502D02F35020
:101698002F262B502C02F3502F266000B8F02AF08A
:1016A8006000BCF02BF01200240E2C6E010E2D6E83
:1016B800000E2E6E2E502C24D96E000E2D20DA6EC0
:1016C800DF502A6E2E509AEC0BF02E2A170E2E643D
:1016D800F1D71200000E2C6E2C502A24D96E000E61
:1016E8002B20DA6E3C0E2C24E16EE26A010EE22217
:1016F8006F007FFFE7FF2C2A0E0E2C64EDD7120037
:10170800000E2C6E2C502A24D96E000E2B20DA6E77
:101718004B0E2C24E16EE26A010EE2226F007FFF7D
:10172800E7FF2C2A0E0E2C64EDD712002B6E000E4C
:101738003901E56F6000AFF0E0F96000ABF0E3F964
:10174800E585BFEC0BF03901E5B3FDD7E59512004F
:101758002A6E000E3901E56F6000ABF0E0F9E58113
:10176800E3511200000E206E000E1F6E000E1E6E5A
:10177800000E1D6E1200D29E550E3901E66FAA0E9C
:10178800E66FE583D28E1200000E206E000E1F6EEB
:10179800000E1E6E000E1D6E1200808080800000FC
:0617A800111213141510CC
:0820000047432B320FEF10F0F3
:04200C0002EF37F0B8
:10201C00FF006AEF37F00000000000000000000035
:10202C0000000000000000000000000000008080A4
:10203C008080808080808080808080808080808094
:10204C008080808080808080808080808080808084
:10205C008080808080808080808080808080808074
:10206C008080808080808080808080808080808064
:10207C008080808080808080808080808080808054
:10208C008080808080808080808080808080808044
:10209C0080808080808080000000000000000000B4
:1020AC000000000000000000000000000000808024
:1020BC008080808080808080808080808080808014
:1020CC008080808080808080808080808080808004
:1020DC0080808080808080808080808080808080F4
:1020EC0080808080808080808080808080808080E4
:1020FC0080808080808080808080808080808080D4
:10210C0080808080808080808080808080808080C3
:10211C008080808080808000000000000000000033
:10212C0000000000000000000000000000008080A3
:10213C008080808080808080808080808080808093
:10214C008080808080808080808080808080808083
:10215C008080808080808080808080808080808073
:10216C008080808080808080808080808080808063
:10217C008080808080808080808080808080808053
:10218C008080808080808080808080808080808043
:10219C0080808080808080000000000000000000B3
:1021AC000000000000000000000000000000808023
:1021BC008080808080808080808080808080808013
:1021CC008080808080808080808080808080808003
:1021DC0080808080808080808080808080808080F3
:1021EC0080808080808080808080808080808080E3
:1021FC0080808080808080808080808080808080D3
:10220C0080808080808080808080808080808080C2
:10221C008080808080808000000000000000000032
:10222C0000000000000000000000000000008080A2
:10223C008080808080808080808080808080808092
:10224C008080808080808080808080808080808082
:10225C008080808080808080808080808080808072
:10226C008080808080808080808080808080808062
:10227C008080808080808080808080808080808052
:10228C008080808080808080808080808080808042
:10229C0080808080808080000000000000000000B2
:1022AC000000000000000000000000000000808022
:1022BC008080808080808080808080808080808012
:1022CC008080808080808080808080808080808002
:1022DC0080808080808080808080808080808080F2
:1022EC0080808080808080808080808080808080E2
:1022FC0080808080808080808080808080808080D2
:10230C0080808080808080808080808080808080C1
:10231C008080808080808000000000000000000031
:10232C0000000000000000000000000000008080A1
:10233C008080808080808080808080808080808091
:10234C008080808080808080808080808080808081
:10235C008080808080808080808080808080808071
:10236C008080808080808080808080808080808061
:10237C008080808080808080808080808080808051
:10238C008080808080808080808080808080808041
:10239C0080808080808080000000000000000000B1
:1023AC0000000000000000000000000000808080A1
:1023BC008080808080808080808080808080808011
:1023CC008080808080808080808080808080808001
:1023DC0080808080808080808080808080808080F1
:1023EC0080808080808080808080808080808080E1
:1023FC0080808080808080808080808080808080D1
:10240C0080808080808080808080808080808080C0
:10241C008080808080808000000000000000000030
:10242C000000000000000000000000000080808020
:10243C008080808080808080808080808080808090
:10244C008080808080808080808080808080808080
:10245C00808080808080808080808080808282826A
:10246C008282828280808080808080808080808058
:10247C008080808080808080808080808080808050
:10248C008080808080808080808080808080808040
:10249C0080808080808080000000000000000000B0
:1024AC0000000000000000000000000000808080A0
:1024BC008080808080808080808080808080808010
:1024CC008080808080808080808080808080808000
:1024DC0080808080808080808080808080828282EA
:1024EC0082828282828282828282828282808080C6
:1024FC0080808080808080808080808080808080D0
:10250C0080808080808080808080808080808080BF
:10251C00808080808080800000000000000000002F
:10252C00000000000000000000000000808080809F
:10253C00808080808080808080808080808080808F
:10254C00808080808080808080808080808080807F
:10255C008080808080808080808080808082828269
:10256C00828282828282828282828282828282823F
:10257C008282828282828280808080808080808041
:10258C00808080808080808080808080808080803F
:10259C0080808080808080000000000000000000AF
:1025AC00000000000000000000000000808080801F
:1025BC00808080808080808080808080808080800F
:1025CC0080808080808080808080808080808080FF
:1025DC0080808080808080808080808080828282E9
:1025EC0082828282828282828282828282828282BF
:1025FC0082828282828282828282828282828282AF
:10260C0080808080808080808080808080808080BE
:10261C00808080808080800000000000000000002E
:10262C00000000000000000000000040808080805E
:10263C00808080808080808080808080808080808E
:10264C00808080808080808080808080808080807E
:10265C008080808080808080808080808282828266
:10266C00828282828282828282828282828282823E
:10267C00828282828282828282828282828282822E
:10268C00828282828282828282828080808080802A
:10269C0080808080808080000000000000000000AE
:1026AC00000000000000000000004040404080801E
:1026BC00808080808080808080808080808080800E
:1026CC0080808080808080808080808080808080FE
:1026DC0080808080808080808080808082828282E6
:1026EC0082828282828282828282828282828282BE
:1026FC0082828282828282828282828282828282AE
:10270C00828282828282828282828282828282829D
:10271C008282828080808000000000000000000027
:10272C00000000000000000000004040404040401D
:10273C00808080808080808080808080808080808D
:10274C00808080808080808080808080808080807D
:10275C008080808080808080808080808282828265
:10276C00828282828282828282828282828282823D
:10277C00828282828282828282828282828282822D
:10278C00828282828282828282828282828282821D
:10279C00828282828282820000000000000000009F
:1027AC00000000000000000000404040404040405D
:1027BC00408080808080808080808080808080804D
:1027CC0080808080808080808080808080808080FD
:1027DC0080808080808080808080808082828282E5
:1027EC0082828282828282828282828282828282BD
:1027FC0082828282828282828282828282828282AD
:10280C00828282828282828282828282828282829C
:10281C00828282828282820000000000000000001E
:10282C00000000000000000040404040404040409C
:10283C00404040808080808080808080808080804C
:10284C00808080808080808080808080808080807C
:10285C008080808080808080808080808282828264
:10286C00828282828282828282828282828282823C
:10287C00828282828282828282828282828282822C
:10288C00828282828282828282828282828282821C
:10289C00828282828282820000000000000000009E
:1028AC0000000000000000404040404040404040DC
:1028BC00404040404080808080808080808080804C
:1028CC0080808080808080808080808080808080FC
:1028DC0080808080808080808080808282828282E2
:1028EC0082828282828282828282828282828282BC
:1028FC0082828282828282828282828282828282AC
:10290C00828282828282828282828282828282829B
:10291C00828282828282820000000000000000001D
:10292C00000000000000404040404040404040401B
:10293C00404040404040408080808080808080804B
:10294C00808080808080808080808080808080807B
:10295C008080808080808080808080828282828261
:10296C00828282828282828282828282828282823B
:10297C00828282828282828282828282828282822B
:10298C00828282828282828282828282828282821B
:10299C00828282828282820000000000000000009D
:1029AC00000000004040404040404040404040401B
:1029BC00404040404040404080808080808080800B
:1029CC0080808080808080808080808080808080FB
:1029DC0080808080808080808080808282828282E1
:1029EC0082828282828282828282828282828282BB
:1029FC0082828282828282828282828282828282AB
:102A0C00828282828282828282828282828282829A
:102A1C00828282828282820000000000000000001C
:102A2C00000000404040404040404040404040405A
:102A3C00404040404040404040408080808080800A
:102A4C00808080808080808080808080808080807A
:102A5C008080808080808080808080828282828260
:102A6C00828282828282828282828282828282823A
:102A7C00828282828282828282828282828282822A
:102A8C00828282828282828282828282828282821A
:102A9C00828282828282820000000000000000009C
:102AAC00004040404040404040404040404040405A
:102ABC00404040404040404040404040808080800A
:102ACC0080808080808080808080808080808080FA
:102ADC0080808080808080808080828282828282DE
:102AEC0082828282828282828282828282828282BA
:102AFC0082828282828282828282828282828282AA
:102B0C008282828282828282828282828282828299
:102B1C00828282828282820000000000000040409B
:102B2C004040404040404040404040404040404099
:102B3C004040404040404040404040404040808009
:102B4C008080808080808080808080808080808079
:102B5C00808080808080808080808282828282825D
:102B6C008282828282828282828282828282828239
:102B7C008282828282828282828282828282828229
:102B8C008282828282828282828282828282828219
:102B9C00828282828282824040404040404040405B
:102BAC004040404040404040404040404040404019
:102BBC0040404040404040404040404040404080C9
:102BCC0080808080808080808080808080808080F9
:102BDC0080808080808080808080828282828282DD
:102BEC0082828282828282828282828282828282B9
:102BFC0082828282828282828282828282828282A9
:102C0C008282828282828282828282828282828298
:102C1C0082828282828282404040404040404040DA
:102C2C004040404040404040404040404040404098
:102C3C004040404040404040404040404040404088
:102C4C0040808080808080808080808080808080B8
:102C5C00808080808080808080828282828282825A
:102C6C008282828282828282828282828282828238
:102C7C008282828282828282828282828282828228
:102C8C008282828282828282828282828282828218
:102C9C00828282828282824040404040404040405A
:102CAC004040404040404040404040404040404018
:102CBC004040404040404040404040404040404008
:102CCC0040404080808080808080808080808080B8
:102CDC0080808080808080808082828282828282DA
:102CEC0082828282828282828282828282828282B8
:102CFC0082828282828282828282828282828282A8
:102D0C008282828282828282828282828282828297
:102D1C0082828282828282404040404040404040D9
:102D2C004040404040404040404040404040404097
:102D3C004040404040404040404040404040404087
:102D4C0040404040408080808080808080808080B7
:102D5C008080808080808080828282828282828257
:102D6C008282828282828282828282828282828237
:102D7C008282828282828282828282828282828227
:102D8C008282828282828282828282828282828217
:102D9C008282828282828240404040404040404059
:102DAC004040404040404040404040404040404017
:102DBC004040404040404040404040404040404007
:102DCC004040404040408080808080808080808077
:102DDC0080808080808080808282828282828282D7
:102DEC0082828282828282828282828282828282B7
:102DFC0082828282828282828282828282828282A7
:102E0C008282828282828282828282828282828296
:102E1C0082828282828282404040404040404040D8
:102E2C004040404040404040404040404040404096
:102E3C004040404040404040404040404040404086
:102E4C004040404040404040808080808080808076
:102E5C008080808080808080828282828282828256
:102E6C008282828282828282828282828282828236
:102E7C008282828282828282828282828282828226
:102E8C008282828282828282828282828282828216
:102E9C008282828282828240404040404040404058
:102EAC004040404040404040404040404040404016
:102EBC004040404040404040404040404040404006
:102ECC004040404040404040404080808080808076
:102EDC0080808080808080828282828282828282D4
:102EEC0082828282828282828282828282828282B6
:102EFC0082828282828282828282828282828282A6
:102F0C008282828282828282828282828282828295
:102F1C0082828282828282404040404040404040D7
:102F2C004040404040404040404040404040404095
:102F3C004040404040404040404040404040404085
:102F4C004040404040404040404040808080808035
:102F5C008080808080808082828282828282828253
:102F6C008282828282828282828282828282828235
:102F7C008282828282828282828282828282828225
:102F8C008282828282828282828282828282828215
:102F9C008282828282828240404040404040404057
:102FAC004040404040404040404040404040404015
:102FBC004040404040404040404040404040404005
:102FCC004040404040404040404040404080808035
:102FDC0080808080808082828282828282828282D1
:102FEC0082828282828282828282828282828282B5
:102FFC0082828282828282828282828282828282A5
:10300C008282828282828282828282828282828294
:10301C0082828282828282404040404040404040D6
:10302C004040404040404040404040404040404094
:10303C004040404040404040404040404040404084
:10304C004040404040404040404040404040408034
:10305C008080808080808282828282828282828250
:10306C008282828282828282828282828282828234
:10307C008282828282828282828282828282828224
:10308C008282828282828282828282828282828214
:10309C008282828282828240404040404040404056
:1030AC004040404040404040404040404040404014
:1030BC004040404040404040404040404040404004
:1030CC0040404040404040404040404040404040F4
:1030DC00408080808082828282828282828282820E
:1030EC0082828282828282828282828282828282B4
:1030FC0082828282828282828282828282828282A4
:10310C008282828282828282828282828282828293
:10311C0082828282828282404040404040404040D5
:10312C004040404040404040404040404040404093
:10313C004040404040404040404040404040404083
:10314C004040404040404040404040404040404073
:10315C0040408080808282828282828282828282CD
:10316C008282828282828282828282828282828233
:10317C008282828282828282828282828282828223
:10318C008282828282828282828282828282828213
:10319C008282828282828240404040404040404055
:1031AC004040404040404040404040404040404013
:1031BC004040404040404040404040404040404003
:1031CC0040404040404040404040404040404040F3
:1031DC0040404040828282828282828282828282CB
:1031EC0082828282828282828282828282828282B3
:1031FC0082828282828282828282828282828282A3
:10320C008282828282828282828282828282828292
:10321C0082828282828282404040404040404040D4
:10322C004040404040404040404040404040404092
:10323C004040404040404040404040404040404082
:10324C004040404040404040404040404040404072
:10325C0040404040404082828282828282828282CE
:10326C008282828282828282828282828282828232
:10327C008282828282828282828282828282828222
:10328C008282828282828282828282828282828212
:10329C008282828282828240404040404040404054
:1032AC004040404040404040404040404040404012
:1032BC004040404040404040404040404040404002
:1032CC0040404040404040404040404040404040F2
:1032DC0040404040404040408282828282828282D2
:1032EC0082828282828282828282828282828282B2
:1032FC0082828282828282828282828282828282A2
:10330C008282828282828282828282828282828291
:10331C0082828282828282404040404040404040D3
:10332C004040404040404040404040404040404091
:10333C004040404040404040404040404040404081
:10334C004040404040404040404040404040404071
:10335C004040404040404040408282828282828293
:10336C008282828282828282828282828282828231
:10337C008282828282828282828282828282828221
:10338C008282828282828282828282828282828211
:10339C008282828282828240404040404040404053
:1033AC004040404040404040404040404040404011
:1033BC004040404040404040404040404040404001
:1033CC0040404040404040404040404040404040F1
:1033DC004040404040404040404040828282828297
:1033EC0082828282828282828282828282828282B1
:1033FC0082828282828282828282828282828282A1
:10340C008282828282828282828282828282828290
:10341C0082828282828282404040404040404040D2
:10342C004040404040404040404040404040404090
:10343C004040404040404040404040404040404080
:10344C004040404040404040404040404040404070
:10345C00404040404040404040404040408282829A
:10346C008282828282828282828282828282828230
:10347C008282828282828282828282828282828220
:10348C008282828282828282828282828282828210
:10349C008282828282828240404040404040404052
:1034AC004040404040404040404040404040404010
:1034BC004040404040404040404040404040404000
:1034CC0040404040404040404040404040404040F0
:1034DC00404040404040404040404040404040829E
:1034EC0082828282828282828282828282828282B0
:1034FC0082828282828282828282828282828282A0
:10350C00828282828282828282828282828282828F
:10351C0082828282828282404040404040404040D1
:10352C00404040404040404040404040404040408F
:10353C00404040404040404040404040404040407F
:10354C00404040404040404040404040404040406F
:10355C00404040404040404040404040404040405F
:10356C00828282828282828282828282828282822F
:10357C00828282828282828282828282828282821F
:10358C00828282828282828282828282828282820F
:10359C008282828282828240404040404040404051
:1035AC00404040404040404040404040404040400F
:1035BC0040404040404040404040404040404040FF
:1035CC0040404040404040404040404040404040EF
:1035DC0040404040404040404040404040404040DF
:1035EC004040828282828282828282828282828233
:1035FC00828282828282828282828282828282829F
:10360C00828282828282828282828282828282828E
:10361C0082828282828282404040404040404040D0
:10362C00404040404040404040404040404040408E
:10363C00404040404040404040404040404040407E
:10364C00404040404040404040404040404040406E
:10365C00404040404040404040404040404040405E
:10366C004040404082828282828282828282828236
:10367C00828282828282828282828282828282821E
:10368C00828282828282828282828282828282820E
:10369C008282828282828240404040404040404050
:1036AC00404040404040404040404040404040400E
:1036BC0040404040404040404040404040404040FE
:1036CC0040404040404040404040404040404040EE
:1036DC0040404040404040404040404040404040DE
:1036EC0040404040408282828282828282828282F8
:1036FC00828282828282828282828282828282829E
:10370C00828282828282828282828282828282828D
:10371C0082828282828282404040404040404040CF
:10372C00404040404040404040404040404040408D
:10373C00404040404040404040404040404040407D
:10374C00404040404040404040404040404040406D
:10375C00404040404040404040404040404040405D
:10376C0040404040404040828282828282828282FB
:10377C00828282828282828282828282828282821D
:10378C00828282828282828282828282828282820D
:10379C00828282828282824040404040404040404F
:1037AC00404040404040404040404040404040400D
:1037BC0040404040404040404040404040404040FD
:1037CC0040404040404040404040404040404040ED
:1037DC0040404040404040404040404040404040DD
:1037EC0040404040404040404082828282828282FF
:1037FC00828282828282828282828282828282829D
:10380C00828282828282828282828282828282828C
:10381C0082828282828282404040404040404040CE
:10382C00404040404040404040404040404040408C
:10383C00404040404040404040404040404040407C
:10384C00404040404040404040404040404040406C
:10385C00404040404040404040404040404040405C
:10386C004040404040404040404040828282828202
:10387C00828282828282828282828282828282821C
:10388C00828282828282828282828282828282820C
:10389C00828282828282824040404040404040404E
:1038AC00404040404040404040404040404040400C
:1038BC0040404040404040404040404040404040FC
:1038CC0040404040404040404040404040404040EC
:1038DC0040404040404040404040404040404040DC
:1038EC0040404040404040404040404082828282C4
:1038FC00828282828282828282828282828282829C
:10390C00828282828282828282828282828282828B
:10391C0082828282828282404040404040404040CD
:10392C00404040404040404040404040404040408B
:10393C00404040404040404040404040404040407B
:10394C00404040404040404040404040404040406B
:10395C00404040404040404040404040404040405B
:10396C0040404040404040404040404040408282C7
:10397C00828282828282828282828282828282821B
:10398C00828282828282828282828282828282820B
:10399C00828282828282824040404040404040404D
:1039AC00404040404040404040404040404040400B
:1039BC0040404040404040404040404040404040FB
:1039CC0040404040404040404040404040404040EB
:1039DC0040404040404040404040404040404040DB
:1039EC0040404040404040404040404040404040CB
:1039FC00828282828282828282828282828282829B
:103A0C00828282828282828282828282828282828A
:103A1C0082828282828282404040404040404040CC
:103A2C00404040404040404040404040404040408A
:103A3C00404040404040404040404040404040407A
:103A4C00404040404040404040404040404040406A
:103A5C00404040404040404040404040404040405A
:103A6C00404040404040404040404040404040404A
:103A7C00404082828282828282828282828282829E
:103A8C00828282828282828282828282828282820A
:103A9C00828282828282824040404040404040404C
:103AAC00404040404040404040404040404040400A
:103ABC0040404040404040404040404040404040FA
:103ACC0040404040404040404040404040404040EA
:103ADC0040404040404040404040404040404040DA
:103AEC0040404040404040404040404040404040CA
:103AFC004040408282828282828282828282828260
:103B0C008282828282828282828282828282828289
:103B1C0082828282828282404040404040404040CB
:103B2C004040404040404040404040404040404089
:103B3C004040404040404040404040404040404079
:103B4C004040404040404040404040404040404069
:103B5C004040404040404040404040404040404059
:103B6C004040404040404040404040404040404049
:103B7C004040404040828282828282828282828263
:103B8C008282828282828282828282828282828209
:103B9C00828282828282824040404040404040404B
:103BAC004040404040404040404040404040404009
:103BBC0040404040404040404040404040404040F9
:103BCC0040404040404040404040404040404040E9
:103BDC0040404040404040404040404040404040D9
:103BEC0040404040404040404040404040404040C9
:103BFC004040404040404082828282828282828267
:103C0C008282828282828282828282828282828288
:103C1C0082828282828282404040404040404040CA
:103C2C004040404040404040404040404040404088
:103C3C004040404040404040404040404040404078
:103C4C004040404040404040404040404040404068
:103C5C004040404040404040404040404040404058
:103C6C004040404040404040404040404040404048
:103C7C004040404040404040828282828282828228
:103C8C008282828282828282828282828282828208
:103C9C00828282828282824040404040404040404A
:103CAC004040404040404040404040404040404008
:103CBC0040404040404040404040404040404040F8
:103CCC0040404040404040404040404040404040E8
:103CDC0040404040404040404040404040404040D8
:103CEC0040404040404040404040404040404040C8
:103CFC00404040404040404040408282828282822C
:103D0C008282828282828282828282828282828287
:103D1C0082828282828282404040404040404040C9
:103D2C004040404040404040404040404040404087
:103D3C004040404040404040404040404040404077
:103D4C004040404040404040404040404040404067
:103D5C004040404040404040404040404040404057
:103D6C004040404040404040404040404040404047
:103D7C00404040404040404040404040828282822F
:103D8C008282828282828282828282828282828207
:103D9C008282828282828240404040404040404049
:103DAC004040404040404040404040404040404007
:103DBC0040404040404040404040404040404040F7
:103DCC0040404040404040404040404040404040E7
:103DDC0040404040404040404040404040404040D7
:103DEC0040404040404040404040404040404040C7
:103DFC004040404040404040404040404040828233
:103E0C008282828282828282828282828282828286
:103E1C0082828282828282404040404040404040C8
:103E2C004040404040404040404040404040404086
:103E3C004040404040404040404040404040404076
:103E4C004040404040404040404040404040404066
:103E5C004040404040404040404040404040404056
:103E6C004040404040404040404040404040404046
:103E7C0040404040404040404040404040404082F4
:103E8C008282828282828282828282828282828206
:103E9C008282828282828240404040404040404048
:103EAC004040404040404040404040404040404006
:103EBC0040404040404040404040414040404040F5
:103ECC0040404040404040404040404040404040E6
:103EDC0040404040404040404040404040404040D6
:103EEC0040404040404040404040404040404040C6
:103EFC0040404040404040404040404040404040B6
:103F0C0040828282828282828282828282828282C7
:103F1C0082828282828282404040404040404040C7
:103F2C004040404040404040404040404040404085
:103F3C004040404040404040414141404040404072
:103F4C004040404040404040404040404040404065
:103F5C004040404040404040404040404040404055
:103F6C004040404040404040404040404040404045
:103F7C004040404040404040404040404040404035
:103F8C0040404082828282828282828282828282CB
:103F9C008282828282828240404040404040404047
:103FAC004040404040404040404040404040404005
:103FBC0040404040404041414141414140404040EF
:103FCC0040404040404040404040404040404040E5
:103FDC0040404040404040404040404040404040D5
:103FEC0040404040404040404040404040404040C5
:103FFC0040404040404040404040404040404040B5
:10400C0040404040408282828282828282828282CE
:10401C0082828282828282404040404040404040C6
:10402C004040404040404040404040404040404084
:10403C00404040404141414141414141404040406C
:10404C004040404040404040404040404040404064
:10405C004040404040404040404040404040404054
:10406C004040404040404040404040404040404044
:10407C004040404040404040404040404040404034
:10408C004040404040408282828282828282828290
:10409C008282828282828240404040404040404046
:1040AC004040404040404040404040404040404004
:1040BC0040414141414141414141414141404040E8
:1040CC0040404040404040404040404040404040E4
:1040DC0040404040404040404040404040404040D4
:1040EC0040404040404040404040404040404040C4
:1040FC0040404040404040404040404040404040B4
:10410C004040404040404040828282828282828293
:10411C0082828282828282404040404040404040C5
:10412C004040404040404040404040404040404182
:10413C004141414141414141414141414141404065
:10414C004040404040404040404040404040404063
:10415C004040404040404040404040404040404053
:10416C004040404040404040404040404040404043
:10417C004040404040404040404040404040404033
:10418C004040404040404040404082828282828297
:10419C008282828282828240404040404040404045
:1041AC0040404040404040404040404041414141FF
:1041BC0041414141414141414141414141414040E5
:1041CC0040404040404040404040404040404040E3
:1041DC0040404040404040404040404040404040D3
:1041EC0040404040404040404040404040404040C3
:1041FC0040404040404040404040404040404040B3
:10420C00404040404040404040404040828282829A
:10421C0082828282828282404040404040404040C4
:10422C00404040404040404041414141414141417A
:10423C004141414141414141414141414141414063
:10424C004040404040404040404040404040404062
:10425C004040404040404040404040404040404052
:10426C004040404040404040404040404040404042
:10427C004040404040404040404040404040404032
:10428C00404040404040404040404040408282825C
:10429C008282828282828240404040404040404044
:1042AC0040404041414141414141414141414141F5
:1042BC0041414141414141414141414141414140E3
:1042CC0040404040404040404040404040404040E2
:1042DC0040404040404040404040404040404040D2
:1042EC0040404040404040404040404040404040C2
:1042FC0040404040404040404040404040404040B2
:10430C00404040404040404040404040404040825F
:10431C0082828282828282404040404040404041C2
:10432C004141414141414141414141414141414171
:10433C004141414141414141414141414141414161
:10434C004040404040404040404040404040404061
:10435C004040404040404040404040404040404051
:10436C004040404040404040404040404040404041
:10437C004040404040404040404040404040404031
:10438C004040404040404040404040404040404021
:10439C004082828282828240404040404040404184
:1043AC0041414141414141414141414141414141F1
:1043BC0041414141414141414141414141414141E1
:1043CC0040404040404040404040404040404040E1
:1043DC0040404040404040404040404040404040D1
:1043EC0040404040404040404040404040404040C1
:1043FC0040404040404040404040404040404040B1
:10440C0040404040404040404040404040404040A0
:10441C004040828282828240404040404040404145
:10442C004141414141414141414141414141414170
:10443C004141414141414141414141414141414160
:10444C00414040404040404040404040404040405F
:10445C004040404040404040404040404040404050
:10446C004040404040404040404040404040404040
:10447C004040404040404040404040404040404030
:10448C004040404040404040404040404040404020
:10449C004040404082828240404040404040404149
:1044AC0041414141414141414141414141414141F0
:1044BC0041414141414141414141414141414141E0
:1044CC0041414040404040404040404040404040DE
:1044DC0040404040404040404040404040404040D0
:1044EC0040404040404040404040404040404040C0
:1044FC0040404040404040404040404040404040B0
:10450C00404040404040404040404040404040409F
:10451C00404040404040824040404040404040414C
:10452C00414141414141414141414141414141416F
:10453C00414141414141414141414141414141415F
:10454C00414140404040404040404040404040405D
:10455C00404040404040404040404040404040404F
:10456C00404040404040404040404040404040403F
:10457C00404040404040404040404040404040402F
:10458C00404040404040404040404040404040401F
:10459C00404040404040404040404040404040410E
:1045AC0041414141414141414141414141414141EF
:1045BC0041414141414141414141414141414141DF
:1045CC0041414140404040404040404040404040DC
:1045DC0040404040404040404040404040404040CF
:1045EC0040404040404040404040404040404040BF
:1045FC0040404040404040404040404040404040AF
:10460C00404040404040404040404040404040409E
:10461C00404040404040404040404040404040418D
:10462C00414141414141414141414141414141416E
:10463C00414141414141414141414141414141415E
:10464C00414141404040404040404040404040405B
:10465C00404040404040404040404040404040404E
:10466C00404040404040404040404040404040403E
:10467C00404040404040404040404040404040402E
:10468C00404040404040404040404040404040401E
:10469C00404040404040404040404040404040400E
:1046AC0041414141414141414141414141414141EE
:1046BC0041414141414141414141414141414141DE
:1046CC0041414141404040404040404040404040DA
:1046DC0040404040404040404040404040404040CE
:1046EC0040404040404040404040404040404040BE
:1046FC0040404040404040404040404040404040AE
:10470C00404040404040404040404040404040409D
:10471C00404040404040404040404040404040408D
:10472C00414141414141414141414141414141416D
:10473C00414141414141414141414141414141415D
:10474C004141414141404040404040404040404058
:10475C00404040404040404040404040404040404D
:10476C00404040404040404040404040404040403D
:10477C00404040404040404040404040404040402D
:10478C00404040404040404040404040404040401D
:10479C00404040404040404040404040404040400D
:1047AC0041414141414141414141414141414141ED
:1047BC0041414141414141414141414141414141DD
:1047CC0041414141414040404040404040404040D8
:1047DC0040404040404040404040404040404040CD
:1047EC0040404040404040404040404040404040BD
:1047FC0040404040404040404040404040404040AD
:10480C00404040404040404040404040404040409C
:10481C00404040404040404040404040404040408C
:10482C00414141414141414141414141414141416C
:10483C00414141414141414141414141414141415C
:10484C004141414141414040404040404040404056
:10485C00404040404040404040404040404040404C
:10486C00404040404040404040404040404040403C
:10487C00404040404040404040404040404040402C
:10488C00404040404040404040404040404040401C
:10489C00404040404040404040404040404040400C
:1048AC0041414141414141414141414141414141EC
:1048BC0041414141414141414141414141414141DC
:1048CC0041414141414140404040404040404040D6
:1048DC0040404040404040404040404040404040CC
:1048EC0040404040404040404040404040404040BC
:1048FC0040404040404040404040404040404040AC
:10490C00404040404040404040404040404040409B
:10491C00404040404040404040404040404040408B
:10492C00414141414141414141414141414141416B
:10493C00414141414141414141414141414141415B
:10494C004141414141414140404040404040404054
:10495C00404040404040404040404040404040404B
:10496C00404040404040404040404040404040403B
:10497C00404040404040404040404040404040402B
:10498C00404040404040404040404040404040401B
:10499C00404040404040404040404040404040400B
:1049AC0041414141414141414141414141414141EB
:1049BC0041414141414141414141414141414141DB
:1049CC0041414141414141404040404040404040D4
:1049DC0040404040404040404040404040404040CB
:1049EC0040404040404040404040404040404040BB
:1049FC0040404040404040404040404040404040AB
:104A0C00404040404040404040404040404040409A
:104A1C00404040404040404040404040404040408A
:104A2C00414141414141414141414141414141416A
:104A3C00414141414141414141414141414141415A
:104A4C004141414141414141404040404040404052
:104A5C00404040404040404040404040404040404A
:104A6C00404040404040404040404040404040403A
:104A7C00404040404040404040404040404040402A
:104A8C00404040404040404040404040404040401A
:104A9C00404040404040404040404040404040400A
:104AAC0041414141414141414141414141414141EA
:104ABC0041414141414141414141414141414141DA
:104ACC0041414141414141414140404040404040D1
:104ADC0040404040404040404040404040404040CA
:104AEC0040404040404040404040404040404040BA
:104AFC0040404040404040404040404040404040AA
:104B0C004040404040404040404040404040404099
:104B1C004040404040404040404040404040404089
:104B2C00404141414141414141414141414141416A
:104B3C004141414141414141414141414141414159
:104B4C004141414141414141414040404040404050
:104B5C004040404040404040404040404040404049
:104B6C004040404040404040404040404040404039
:104B7C004040404040404040404040404040404029
:104B8C004040404040404040404040404040404019
:104B9C004040404040404040404040404040404009
:104BAC0040414141414141414141414141414141EA
:104BBC0041414141414141414141414141414141D9
:104BCC0041414141414141414141404040404040CF
:104BDC0040404040404040404040404040404040C9
:104BEC0040404040404040404040404040404040B9
:104BFC0040404040404040404040404040404040A9
:104C0C004040404040404040404040404040404098
:104C1C004040404040404040404040404040404088
:104C2C004041414141414141414141414141414169
:104C3C004141414141414141414141414141414158
:104C4C00414141414141414141414040404040404E
:104C5C004040404040404040404040404040404048
:104C6C004040404040404040404040404040404038
:104C7C004040404040404040404040404040404028
:104C8C004040404040404040404040404040404018
:104C9C004040404040404040404040404040404008
:104CAC0040414141414141414141414141414141E9
:104CBC0041414141414141414141414141414141D8
:104CCC0041414141414141414141414040404040CD
:104CDC0040404040404040404040404040404040C8
:104CEC0040404040404040404040404040404040B8
:104CFC0040404040404040404040404040404040A8
:104D0C004040404040404040404040404040404097
:104D1C004040404040404040404040404040404087
:104D2C004041414141414141414141414141414168
:104D3C004141414141414141414141414141414157
:104D4C00414141414141414141414140404040404C
:104D5C004040404040404040404040404040404047
:104D6C004040404040404040404040404040404037
:104D7C004040404040404040404040404040404027
:104D8C004040404040404040404040404040404017
:104D9C004040404040404040404040404040404007
:104DAC0040414141414141414141414141414141E8
:104DBC0041414141414141414141414141414141D7
:104DCC0041414141414141414141414140404040CB
:104DDC0040404040404040404040404040404040C7
:104DEC0040404040404040404040404040404040B7
:104DFC0040404040404040404040404040404040A7
:104E0C004040404040404040404040404040404096
:104E1C004040404040404040404040404040404086
:104E2C004041414141414141414141414141414167
:104E3C004141414141414141414141414141414156
:104E4C004141414141414141414141414140404049
:104E5C004040404040404040404040404040404046
:104E6C004040404040404040404040404040404036
:104E7C004040404040404040404040404040404026
:104E8C004040404040404040404040404040404016
:104E9C004040404040404040404040404040404006
:104EAC0040414141414141414141414141414141E7
:104EBC0041414141414141414141414141414141D6
:104ECC0041414141414141414141414141404040C9
:104EDC0040404040404040404040404040404040C6
:104EEC0040404040404040404040404040404040B6
:104EFC0040404040404040404040404040404040A6
:104F0C004040404040404040404040404040404095
:104F1C004040404040404040404040404040404085
:104F2C004041414141414141414141414141414166
:104F3C004141414141414141414141414141414155
:104F4C004141414141414141414141414141404047
:104F5C004040404040404040404040404040404045
:104F6C004040404040404040404040404040404035
:104F7C004040404040404040404040404040404025
:104F8C004040404040404040404040404040404015
:104F9C004040404040404040404040404040404005
:104FAC0040414141414141414141414141414141E6
:104FBC0041414141414141414141414141414141D5
:104FCC0041414141414141414141414141414040C7
:104FDC0040404040404040404040404040404040C5
:104FEC0040404040404040404040404040404040B5
:104FFC0040404040404040404040404040404040A5
:10500C004040404040404040404040404040404094
:10501C004040404040404040404040404040404084
:10502C004040414141414141414141414141414166
:10503C004141414141414141414141414141414154
:10504C004141414141414141414141414141414045
:10505C004040404040404040404040404040404044
:10506C004040404040404040404040404040404034
:10507C004040404040404040404040404040404024
:10508C004040404040404040404040404040404014
:10509C004040404040404040404040404040404004
:1050AC0040404141414141414141414141414141E6
:1050BC0041414141414141414141414141414141D4
:1050CC0041414141414141414141414141414141C4
:1050DC0040404040404040404040404040404040C4
:1050EC0040404040404040404040404040404040B4
:1050FC0040404040404040404040404040404040A4
:10510C004040404040404040404040404040404093
:10511C004040404040404040404040404040404083
:10512C004040414141414141414141414141414165
:10513C004141414141414141414141414141414153
:10514C004141414141414141414141414141414143
:10515C004040404040404040404040404040404043
:10516C004040404040404040404040404040404033
:10517C004040404040404040404040404040404023
:10518C004040404040404040404040404040404013
:10519C004040404040404040404040404040404003
:1051AC0040404141414141414141414141414141E5
:1051BC0041414141414141414141414141414141D3
:1051CC0041414141414141414141414141414141C3
:1051DC0041404040404040404040404040404040C2
:1051EC0040404040404040404040404040404040B3
:1051FC0040404040404040404040404040404040A3
:10520C004040404040404040404040404040404092
:10521C004040404040404040404040404040404082
:10522C004040414141414141414141414141414164
:10523C004141414141414141414141414141414152
:10524C004141414141414141414141414141414142
:10525C004140404040404040404040404040404041
:10526C004040404040404040404040404040404032
:10527C004040404040404040404040404040404022
:10528C004040404040404040404040404040404012
:10529C004040404040404040404040404040404002
:1052AC0040404141414141414141414141414141E4
:1052BC0041414141414141414141414141414141D2
:1052CC0041414141414141414141414141414141C2
:1052DC0041414040404040404040404040404040C0
:1052EC0040404040404040404040404040404040B2
:1052FC0040404040404040404040404040404040A2
:10530C004040404040404040404040404040404091
:10531C004040404040404040404040404040404081
:10532C004040414141414141414141414141414163
:10533C004141414141414141414141414141414151
:10534C004141414141414141414141414141414141
:10535C00414140404040404040404040404040403F
:10536C004040404040404040404040404040404031
:10537C004040404040404040404040404040404021
:10538C004040404040404040404040404040404011
:10539C004040404040404040404040404040404001
:1053AC0040404141414141414141414141414141E3
:1053BC0041414141414141414141414141414141D1
:1053CC0041414141414141414141414141414141C1
:1053DC0041414140404040404040404040404040BE
:1053EC0040404040404040404040404040404040B1
:1053FC0040404040404040404040404040404040A1
:10540C004040404040404040404040404040404090
:10541C004040404040404040404040404040404080
:10542C004040414141414141414141414141414162
:10543C004141414141414141414141414141414150
:10544C004141414141414141414141414141414140
:10545C00414141414040404040404040404040403C
:10546C004040404040404040404040404040404030
:10547C004040404040404040404040404040404020
:10548C004040404040404040404040404040404010
:10549C004040404040404040404040404040404000
:1054AC0040404041414141414141414141414141E3
:1054BC0041414141414141414141414141414141D0
:1054CC0041414141414141414141414141414141C0
:1054DC0041414141404040404040404040404040BC
:1054EC0040404040404040404040404040404040B0
:1054FC0040404040404040404040404040404040A0
:10550C00404040404040404040404040404040408F
:10551C00404040404040404040404040404040407F
:10552C004040404141414141414141414141414162
:10553C00414141414141414141414141414141414F
:10554C00414141414141414141414141414141413F
:10555C00414141414140404040404040404040403A
:10556C00404040404040404040404040404040402F
:10557C00404040404040404040404040404040401F
:10558C00404040404040404040404040404040400F
:10559C0040404040404040404040404040404040FF
:1055AC0040404041414141414141414141414141E2
:1055BC0041414141414141414141414141414141CF
:1055CC0041414141414141414141414141414141BF
:1055DC0041414141414040404040404040404040BA
:1055EC0040404040404040404040404040404040AF
:1055FC00404040404040404040404040404040409F
:10560C00404040404040404040404040404040408E
:10561C00404040404040404040404040404040407E
:10562C004040404141414141414141414141414161
:10563C00414141414141414141414141414141414E
:10564C00414141414141414141414141414141413E
:10565C004141414141414040404040404040404038
:10566C00404040404040404040404040404040402E
:10567C00404040404040404040404040404040401E
:10568C00404040404040404040404040404040400E
:10569C0040404040404040404040404040404040FE
:1056AC0040404041414141414141414141414141E1
:1056BC0041414141414141414141414141414141CE
:1056CC0041414141414141414141414141414141BE
:1056DC0041414141414140404040404040404040B8
:1056EC0040404040404040404040404040404040AE
:1056FC00404040404040404040404040404040409E
:10570C00404040404040404040404040404040408D
:10571C00404040404040404040404040404040407D
:10572C004040404141414141414141414141414160
:10573C00414141414141414141414141414141414D
:10574C00414141414141414141414141414141413D
:10575C004141414141414140404040404040404036
:10576C00404040404040404040404040404040402D
:10577C00404040404040404040404040404040401D
:10578C00404040404040404040404040404040400D
:10579C0040404040404040404040404040404040FD
:1057AC0040404041414141414141414141414141E0
:1057BC0041414141414141414141414141414141CD
:1057CC0041414141414141414141414141414141BD
:1057DC0041414141414141414040404040404040B5
:1057EC0040404040404040404040404040404040AD
:1057FC00404040404040404040404040404040409D
:10580C00404040404040404040404040404040408C
:10581C00404040404040404040404040404040407C
:10582C00404040414141414141414141414141415F
:10583C00414141414141414141414141414141414C
:10584C00414141414141414141414141414141413C
:10585C004141414141414141404040404040404034
:10586C00404040404040404040404040404040402C
:10587C00404040404040404040404040404040401C
:10588C00404040404040404040404040404040400C
:10589C0040404040404040404040404040404040FC
:1058AC0040404041414141414141414141414141DF
:1058BC0041414141414141414141414141414141CC
:1058CC0041414141414141414141414141414141BC
:1058DC0041414141414141414140404040404040B3
:1058EC0040404040404040404040404040404040AC
:1058FC00404040404040404040404040404040409C
:10590C00404040404040404040404040404040408B
:10591C00404040404040404040404040404040407B
:10592C00404040414141414141414141414141415E
:10593C00414141414141414141414141414141414B
:10594C00414141414141414141414141414141413B
:10595C004141414141414141414040404040404032
:10596C00404040404040404040404040404040402B
:10597C00404040404040404040404040404040401B
:10598C00404040404040404040404040404040400B
:10599C0040404040404040404040404040404040FB
:1059AC0040404040414141414141414141414141DF
:1059BC0041414141414141414141414141414141CB
:1059CC0041414141414141414141414141414141BB
:1059DC0041414141414141414141404040404040B1
:1059EC0040404040404040404040404040404040AB
:1059FC00404040404040404040404040404040409B
:105A0C00404040404040404040404040404040408A
:105A1C00404040404040404040404040404040407A
:105A2C00404040404141414141414141414141415E
:105A3C00414141414141414141414141414141414A
:105A4C00414141414141414141414141414141413A
:105A5C004141414141414141414140404040404030
:105A6C00404040404040404040404040404040402A
:105A7C00404040404040404040404040404040401A
:105A8C00404040404040404040404040404040400A
:105A9C0040404040404040404040404040404040FA
:105AAC0040404040414141414141414141414141DE
:105ABC0041414141414141414141414141414141CA
:105ACC0041414141414141414141414141414141BA
:105ADC0041414141414141414141414040404040AF
:105AEC0040404040404040404040404040404040AA
:105AFC00404040404040404040404040404040409A
:105B0C004040404040404040404040404040404089
:105B1C004040404040404040404040404040404079
:105B2C00404040404141414141414141414141415D
:105B3C004141414141414141414141414141414149
:105B4C004141414141414141414141414141414139
:105B5C00414141414141414141414141404040402D
:105B6C004040404040404040404040404040404029
:105B7C004040404040404040404040404040404019
:105B8C004040404040404040404040404040404009
:105B9C0040404040404040404040404040404040F9
:105BAC0040404040414141414141414141414141DD
:105BBC0041414141414141414141414141414141C9
:105BCC0041414141414141414141414141414141B9
:105BDC0041414141414141414141414140404040AD
:105BEC0040404040404040404040404040404040A9
:105BFC004040404040404040404040404040404099
:105C0C004040404040404040404040404040404088
:105C1C004040404040404040404040404040404078
:105C2C00404040404141414141414141414141415C
:105C3C004141414141414141414141414141414148
:105C4C004141414141414141414141414141414138
:105C5C00414141414141414141414141414040402B
:105C6C004040404040404040404040404040404028
:105C7C004040404040404040404040404040404018
:105C8C004040404040404040404040404040404008
:105C9C0040404040404040404040404040404040F8
:105CAC0040404040414141414141414141414141DC
:105CBC0041414141414141414141414141414141C8
:105CCC0041414141414141414141414141414141B8
:105CDC0041414141414141414141414141404040AB
:105CEC0040404040404040404040404040404040A8
:105CFC004040404040404040404040404040404098
:105D0C004040404040404040404040404040404087
:105D1C004040404040404040404040404040404077
:105D2C00404040404141414141414141414141415B
:105D3C004141414141414141414141414141414147
:105D4C004141414141414141414141414141414137
:105D5C004141414141414141414141414141404029
:105D6C004040404040404040404040404040404027
:105D7C004040404040404040404040404040404017
:105D8C004040404040404040404040404040404007
:105D9C0040404040404040404040404040404040F7
:105DAC0040404040414141414141414141414141DB
:105DBC0041414141414141414141414141414141C7
:105DCC0041414141414141414141414141414141B7
:105DDC0041414141414141414141414141414140A8
:105DEC0040404040404040404040404040404040A7
:105DFC004040404040404040404040404040404097
:105E0C004040404040404040404040404040404086
:105E1C004040404040404040404040404040404076
:105E2C00404040404041414141414141414141415B
:105E3C004141414141414141414141414141414146
:105E4C004141414141414141414141414141414136
:105E5C004141414141414141414141414141414027
:105E6C004040404040404040404040404040404026
:105E7C004040404040404040404040404040404016
:105E8C004040404040404040404040404040404006
:105E9C0040404040404040404040404040404040F6
:105EAC0040404040404141414141414141414141DB
:105EBC0041414141414141414141414141414141C6
:105ECC0041414141414141414141414141414141B6
:105EDC0041414141414141414141414141414141A6
:105EEC0040404040404040404040404040404040A6
:105EFC004040404040404040404040404040404096
:105F0C004040404040404040404040404040404085
:105F1C004040404040404040404040404040404075
:105F2C00404040404041414141414141414141415A
:105F3C004141414141414141414141414141414145
:105F4C004141414141414141414141414141414135
:105F5C004141414141414141414141414141414125
:105F6C004040404040404040404040404040404025
:105F7C004040404040404040404040404040404015
:105F8C004040404040404040404040404040404005
:105F9C0040404040404040404040404040404040F5
:105FAC0040404040404141414141414141414141DA
:105FBC0041414141414141414141414141414141C5
:105FCC0041414141414141414141414141414141B5
:105FDC0041414141414141414141414141414141A5
:105FEC0041404040404040404040404040404040A4
:105FFC004040404040404040404040404040404095
:10600C004040404040404040404040404040404084
:10601C004040404040404000010E0001B16F000E76
:10602C00846F37EC37F06F0028FFB2F06F002CFF55
:10603C00B3F06F0030FFB4F098EC37F00001CD05F1
:10604C00D8A403D0210E3A016013600014F32CF095
:10605C00600018F32DF060001CF32EF00001C45109
:10606C0089EC34F087EC36F042EC36F00001B3A743
:10607C00B3B506D0B4BF04D0C7EC36F06EEC38F034
:10608C00B0EC38F0800ED26E6F0028FFB2F06F00CB
:10609C002CFFB3F06F0030FFB4F00001B3A7B3B521
:1060AC0001D0B2BD040001EC32F0600E2C6E000E7B
:1060BC002D6EE6EC37F00001B06FB051D8A469D169
:1060CC00E3D7090E856F000E866F030E876F850E62
:1060DC00426E000E436E030E446ED6EC35F0D4D7F0
:1060EC006251010AD8A4030A615188EC33F06000B4
:1060FC00B0F042F06000B4F043F0080E446ED6EC01
:10610C0035F0C2D71FEC38F06000B0F042F0600000
:10611C00B4F043F00A0E446ED6EC35F0B5D7470E0A
:10612C006119D8A412D0430E6219D8A40ED02B0E2C
:10613C006319D8A40AD0320E6419D8A406D0050E5F
:10614C00B019D8A402D0000E01D0010EB16F000E10
:10615C000001856F850E426E000E436E010E446E7B
:10616C00D6EC35F091D7B151D8A413D0020E856F6F
:10617C00100E866F000E876F100E886F000E896FE1
:10618C00850E426E000E436E050E446ED6EC35F055
:10619C007BD78569DFD7B151D8A4FBD7030EB06587
:1061AC0020D0600088F1AEF0AF6BAE51AF6FAE6B2C
:1061BC006151AE13030EB56F0FD0600EB525D96EBD
:1061CC00DA6A000EDA22DF502C6EAE51C3EC38F0D6
:1061DC000001AE4BAF2BB52BB051B55DD8B0B7D7D6
:1061EC00ECD7FE0EB6D7B151D8A4D3D7040EB01944
:1061FC00D8A4F7D7600088F1AEF0AF6BAE51AF6F9B
:10620C00AE6B6151AE1360008CF1ADF0AD51D8B4F2
:10621C00E8D7000E856F000EB56F15D0B5514C6EDA
:10622C004D6A010E4C26000E4D22850E4C24D96E63
:10623C00000E4D20DA6EAE51D5EC38F0DF6E000159
:10624C00AE4BAF2BB52BAD51B55DD8B003D01F0EF7
:10625C00B565E4D7850E426E000E436EAD29446ED3
:10626C00D6EC35F011D7FF000FD7B151D8A491D788
:10627C00000E856F850E426E000E436E010E446E4D
:10628C00D6EC35F0C4EC37F0FFD6B151D8A481D799
:10629C00100EB019D8A4A5D7610E2C6E000E2D6E61
:1062AC009AEC38F054D7B151D8A473D7100EB0195A
:1062BC00D8A497D7610E2C6E000E2D6E84EC38F09E
:1062CC0046D7B151D8A465D754EC38F06000B0F083
:1062DC00A9F06000B4F0AAF0000E0001856F000E6A
:1062EC00B56F0E0EB56501D018D0B551A925D96E74
:1062FC00000EAA21DA6EB5514C6E4D6A010E4C2679
:10630C00000E4D22850E4C24E16E000E4D20E26EE7
:10631C006F007FFFE7FFB52BE4D7850E426E000EB2
:10632C00436E100E446ED6EC35F0AED6B151D8A4F7
:10633C0030D73AEC38F06000B0F0ABF06000B4F05D
