:020000040000FA
:040000000DEF00F010
:04000800ADEF09F05F
:10001800FF00DDEF07F0010E0001F26F000EEE6F3A
:10002800E2EC09F06F0028FFF3F06F002CFFF4F00A
:100038006F0030FFF5F0200E026E000E016E600EAC
:10004800036E000E046E72EC09F0470E0001601991
:10005800D8A416D0430E6119D8A412D02B0E621959
:10006800D8A40ED0320E6319D8A40AD0F4A7F4B5D8
:1000780002D0F4A105D03F013851D8B46DEC0AF094
:10008800000E3F01386F15EC0AF001013B05D8A4BA
:1000980003D0180E3A0160136000CCF401F0600040
:1000A800D0F402F06000D4F403F00101325180EC86
:1000B80004F0F7EC08F02DEC08F00001F4A7F4B513
:1000C80006D0F5BF04D037EC09F013EC0BF012ECB6
:1000D80007F0800ED26E6F0028FFF3F06F002CFF40
:1000E800F4F06F0030FFF5F00001F4A7F4B501D08B
:1000F800F3BD0400F9EC02F0A00E016E000E026ED2
:100108008FEC0AF00001EF6FEF51D8B4E4D7D29E1C
:1001180024D2090EC86F000EC96F030ECA6FC80E2D
:10012800076E000E086E030E096EA6EC06F059D293
:10013800A251010AD8A4030A6000ECF401F0A1510D
:100148007BEC07F0600004F007F0600008F008F0AE
:10015800080E096EA6EC06F044D2000EC86F800E99
:10016800C96F800ECA6F800ECB6F800ECC6F800E69
:10017800CD6F000ECE6F000ECF6F000ED06F000E49
:10018800D16FC80E076E000E086E0A0E096EA6EC37
:1001980006F027D2470EA119D8A412D0430EA219EF
:1001A800D8A40ED02B0EA319D8A40AD0320EA419A5
:1001B800D8A406D0050EEF19D8A402D0000E01D09D
:1001C800010EF26F000E0001C86FC80E076E000E18
:1001D800086E010E096EA6EC06F003D2F251D8A4FF
:1001E80013D0010EC86F100EC96F000ECA6F100E23
:1001F800CB6F000ECC6FC80E076E000E086E050E92
:10020800096EA6EC06F0EDD1C869DFD7F251D8A483
:10021800FBD7030EEF6520D0600088F2F0F0F16B99
:10022800F051F16FF06BA151F013030EF66F0FD080
:10023800A00EF625D96EDA6A000EDA22DF50016EBA
:10024800F05155EC0BF00001F04BF12BF62BEF5170
:10025800F65DD8B0B7D7ECD7FE0EB6D7F251D8A412
:10026800D3D7040EEF19D8A4F7D7600088F2F0F0BE
:10027800F16BF051F16FF06BA151F01360008CF24B
:10028800ECF0EC51D8B4E8D7000EC86F000EF66F4A
:1002980015D0F651246E256A010E2426000E25225B
:1002A800C80E2424D96E000E2520DA6EF05167ECB2
:1002B8000BF0DF6E0001F04BF12BF62BEC51F65DE5
:1002C800D8B003D01F0EF665E4D7C80E076E000E2F
:1002D800086EEC29096EA6EC06F083D1FF0081D1E7
:1002E800FD0E72D7F251D8A48FD7100EEF19D8A4EB
:1002F800B3D7A10E016E000E026E3FEC0BF062D771
:10030800F251D8A481D7100EEF19D8A4A5D7A10E01
:10031800016E000E026E29EC0BF054D7F251D8A4EE
:1003280073D7E2EC0AF0600004F0C4F0600008F053
:10033800C5F0000E0001C86F000EF66F0E0EF665D0
:1003480001D018D0F651C425D96E000EC521DA6E39
:10035800F651246E256A010E2426000E2522C80EA9
:100368002424E16E000E2520E26E6F007FFFE7FF78
:10037800F62BE4D7C80E076E000E086E100E096E35
:10038800A6EC06F02ED1F251D8A43ED7C8EC0AF05C
:10039800600004F0C6F0600008F0C7F0000E00012D
:1003A800C86F000EF66F0E0EF66501D0E3D7F65152
:1003B800C625D96E000EC721DA6EF651246E256A5D
:1003C800010E2426000E2522C80E2424E16E000EFC
:1003D8002520E26E6F007FFFE7FFF62BE4D7F2518E
:1003E800D8A412D712EC07F0EDD6F251D8A40CD746
:1003F800000EEE6F000EE8D6F251D8A405D7010E14
:10040800F66F13D0A00EF625D96EDA6A000EDA223E
:10041800600EEE25E16EE26A000EE2226F007FFFB9
:10042800E7FFEE2B3F0EEE17F62BEF51F65DD8B037
:10043800C9D6E8D7F251D8A4E7D6020EEF19D8A446
:100448000BD7600084F2EDF0ED51D8B405D7000E5B
:10045800C86F000EF66F1AD0600EEE25D96EDA6AF4
:10046800000EDA22F651246E256A010E2426000EAB
:100478002522C80E2424E16E000E2520E26E6F00AE
:100488007FFFE7FFEE2B3F0EEE17F62BED51F65DE3
:10049800D8B003D01F0EF665DFD7C80E076E000E62
:1004A800086EED29096EA6EC06F09BD0F251D8A48F
:1004B800ABD6030EEF19D8A4CFD6600088F2F0F0BF
:1004C800F16BF051F16FF06BA151F0133F0EF01585
:1004D800246E000EF115256E24502510D8A4BCD624
:1004E8006000C0F305F06000C4F306F0600E076E0C
:1004F800000E086EB6EC08F065D6F251D8A484D682
:10050800030EEF19D8A4A8D6600088F2F0F0F16BBA
:10051800F051F16FF06BA151F0136000C0F301F0DE
:100528006000C4F302F0600E036E000E046E72ECFD
:1005380009F048D6F251D8A467D6000EC86FC80E85
:10054800076E000E086E010E096EA6EC06F06DEC43
:100558000AF047D071EC0BF044D0A051000AD8B48F
:10056800D8D5100AD8B416D6010AD8B437D6030A93
:10057800D8B44CD6010AD8B471D6070AD8B4AED6C6
:10058800010AD8B4ADD6030AD8B4ACD6010AD8B497
:10059800B7D60F0AD8B4C2D6010AD8B4F4D6390AE5
:1005A800D8B41DD7600AD8B4C3D5010AD8B4D5D5F4
:1005B800030AD8B4D2D5320AD8B417D7010AD8B4A6
:1005C8001BD7030AD8B436D7010AD8B46FD7070A9D
:1005D800D8B493D7010AD8B4ADD78A0AD8B499D574
:1005E800B9D771EC0BF0D28E76D56F0028FF01F0E9
:1005F8006F002CFF02F06F0030FF03F03950011834
:10060800056E3A500218066E3B500318076E6000DC
:1006180004F039F0600008F03AF060000CF03BF0AC
:1006280007AE02D0000E266E07AC02D0000E276E71
:1006380006A602D0000E286E06A402D0000E296E6F
:1006480005AC02D0000E2A6E05A602D0000E2B6E55
:1006580005AA02D0000E2C6E05AE02D0000E2D6E3B
:1006680005A802D0000E2E6E06A002D0000E2F6E36
:1006780006A202D0000E306E05A402D0000E316E24
:1006880007A002D0000E326E07AA02D0000E336E09
:1006980006AA02D0000E346E3901A3AF1200A39F40
:1006A800000E046E260E0424D96EDA6A000EDA22D1
:1006B800DF2A042A0E0E0464F5D7000E356E800E6C
:1006C800366E090E266407D03BBE05D00A0E266E8C
:1006D80001014B513512090E266407D03BBE05D0E7
:1006E8000A0E266E01013C513612090E276407D006
:1006F8003BBC05D00A0E276E01014C513512090E7C
:10070800276407D03BBC05D00A0E276E01013D5176
:100718003612090E286407D03AB605D00A0E286E9C
:1007280001014D513512090E286407D03AB605D09B
:100738000A0E286E01013E513612090E296407D0AF
:100748003AB405D00A0E296E01014E513512090E30
:10075800296407D03AB405D00A0E296E01013F5129
:100768003612090E2A6407D039BC05D00A0E2A6E43
:1007780001014F513512090E2A6407D039BC05D042
:100788000A0E2A6E010140513612090E2B6407D059
:1007980039B605D00A0E2B6E010150513512090EDB
:1007A8002B6407D039B605D00A0E2B6E01014151D2
:1007B8003612090E2C6407D039BA05D00A0E2C6EF1
:1007C800010151513512090E2C6407D039BA05D0F0
:1007D8000A0E2C6E010142513612090E2D6407D003
:1007E80039BE05D00A0E2D6E010152513512090E7F
:1007F8002D6407D039BE05D00A0E2D6E0101435174
:100808003612090E2E6407D039B805D00A0E2E6E9E
:10081800010153513512090E2E6407D039B805D09D
:100828000A0E2E6E010144513612090E2F6407D0AC
:100838003AB005D00A0E2F6E010154513512090E37
:100848002F6407D03AB005D00A0E2F6E010145512A
:100858003612090E306407D03AB205D00A0E306E4F
:10086800010155513512090E306407D03AB205D04E
:100878000A0E306E010146513612090E316407D056
:1008880039B405D00A0E316E010156513512090EE0
:10089800316407D039B405D00A0E316E01014751D1
:1008A8003612090E346407D03ABA05D00A0E346EEF
:1008B800010159513512090E346407D03ABA05D0EE
:1008C8000A0E346E01014A513612090E326408D0FC
:1008D8000A0E326E3BA003D0000E376E01D0376887
:1008E800090E336412000A0E336E3BAA03D0000EC1
:1008F800386E120038681200086E800E3E01F86FDC
:10090800000EF96F030EFA6FFA518F0B6009FA6F38
:10091800070EFB6F3F0EFF6F000EFD6FF369040EAD
:10092800EC6F1D0EFE6FD78FD7A1FED7600020F0A9
:100938004FF0600004F050F0600008F051F06000E3
:100948000CF052F03901A197000E096E4F0E0924E0
:10095800D96EDA6A000EDA22DF503E01F16F3901F2
:10096800A1A7FDD7A197490E0924D96EDA6A000E0E
:10097800DA226F009BFBDFFF092A050E0964E6D720
:100988003901550EEF6FAA0EEF6FEF814F0E046E0F
:10099800000E056E066A076A110E05D0D890073258
:1009A800063205320432E82EF9D704503B01FB6FBA
:1009B8004F0E046E000E056E066A076A600014F09A
:1009C80004F0600018F005F060001CF006F0076AFB
:1009D8000450FA6F4F0EF96FF10E046E3E0E056E5D
:1009E800066A076A600014F004F0600018F005F069
:1009F80060001CF006F0076A0450F16FF10EF06F0A
:100A0800000EF86F060EF76F000EEF6F010EEE6F17
:100A18002A0EFF6F3F0EFD17FD9BE70EFD17FD51D8
:100A2800F90B0209FD6FFD91C00EFC6F000EDB6F24
:100A3800E60E046E3E0E056E066A076A600014F044
:100A480004F0600018F005F060001CF006F0076A7A
:100A58000450DA6FE60ED96F490E046E000E056E6B
:100A6800066A076A600014F004F0600018F005F0E8
:100A780060001CF006F0076A0450D16F490ED06F71
:100A8800000ED86F010ED76F000ECF6F060ECE6F17
:100A98000B0EDF6FDD513F0B4009DD6FDD9BE70E6D
:100AA800DD17F90EDD17DD91C00EDC6FFC8B12002F
:100AB8001150125C076E086AD8A00806000E0A6E6C
:100AC800020E096E72EC08F060001CF01CF0600069
:100AD80020F01DF0000E216E000E206E1350205CD9
:100AE800226E2150D8A02104236E1650D8B404D009
:100AF800226C231ED8B0232A23AE11D0600088F0C0
:100B080017F060008CF018F0171E181E174A182AE4
:100B180060005CF01AF0600060F01BF006D0600026
:100B280088F01AF060008CF01BF01450176E186AE9
:100B380017501A5C1B50800A196E1850800A1958F1
:100B4800D8B009D020500F24D96E21501020DA6E69
:100B5800800EDF6E7ED01550D8A41BD0600088F0C0
:100B680001F060008CF002F0000E046E7F0E036E40
:100B7800FCEC0AF0600004F007F0600008F008F0F0
:100B8800600070F009F0600074F00AF072EC08F090
:100B98003FD023BE22D0235003E12204D8A01DD089
:100BA8001450225C016E2350D8A02304026E000E5C
:100BB800046E7F0E036EFCEC0AF0600004F007F090
:100BC800600008F008F014501C5C096E1D50D8A095
:100BD8001D040A6E72EC08F01BD014502224016E1A
:100BE800000E2320026E000E046E7F0E036EFCECD6
:100BF8000AF0600004F007F0600008F008F01450F4
:100C08001C5C096E1D50D8A01D040A6E72EC08F019
:100C180060001CF01EF0600020F01FF0800E1E2601
:100C2800000E1F221FAE04D0000E1F6E000E1E6E97
:100C38001FBE06D01F04D8A003D0000E1F6E1E686A
:100C480020500F24D96E21501020DA6E60007BF0FE
:100C5800DFFF204A212A21BE41D72104D8B0120043
:100C68003DD7000EAC6E010EAE6E040EAD6E120EC8
:100C7800AF6E1F0EAB6E000EAA6E800EAC6E0F0E1E
:100C88006D6E000E6C6E800E6E6E000E3C01756F00
:100C9800180E766F050E776F000E786F000E796F5D
:100CA800080E7A6F020E7B6F000E7C6F000E7D6F50
:100CB800840E746F000E6B6F2C0E6C6F050E6D6FCB
:100CC800000E6E6F000E6F6F080E706F010E716F61
:100CD800000E726F000E736F840E6A6F000E616FE4
:100CE800240E626F180E636F2B0E646F2C0E656FE7
:100CF800020E666F040E676F900E686F600E696F64
:100D0800820E606F040E576F260E586F2C0E596FA7
:100D1800250E5A6F000E5B6F020E5C6F000E5D6F42
:100D2800140E5E6F000E5F6F830E566F050E3D0149
:100D38001C6F000E196F000E156F020E166F820ED3
:100D4800146F12003F011F9F3D0117ABFDD7C394DD
:100D5800000E3F6E000E3E6E000E3D6E000E3C6EA5
:100D6800010EAA6E010E186F1A9F600027F012FD7F
:100D78000904D8A40BD060001FF0D9FF600023F04D
:100D8800DAFFDF50116F800E116F3FD060001FF047
:100D9800D9FF600023F0DAFFDF50116F20EE01F079
:100DA8000750D9260850DA22DF50116F0950FE0F7C
:100DB800106E020E0F6E27D0600040F00AF00B6A2A
:100DC8000ABE0B06020E0A26000E0B2212510C6EEA
:100DD8000D6A0A500C5C0D50800A0E6E0B50800A8A
:100DE8000E58D8B010D01050D8A403D0800E116F70
:100DF80009D00F500724D96E000E0820DA6EDF5094
:100E0800116F0F2A100610AED7D71AAFFED717AB3F
:100E1800FED71A9F3F011F8FC3841200000E0F6E6A
:100E2800040E106E6000A8F411F06000ACF412F02B
:100E3800600024F113F06000DCF414F06000E4F4C6
:100E480015F00101000E36B1010E166E5CEC05F0CE
:100E5800000E0F6E050E106E6000B0F411F0600009
:100E6800B4F412F0600028F113F06000DCF414F020
:100E78006000E4F415F00101000E36B3010E166EA1
:100E88005CEC05F0000E0F6E020E106E6000B8F4F8
:100E980011F06000BCF412F060002CF113F0600057
:100EA800E0F414F06000E4F415F00101000E36B52A
:100EB800010E166E5CEC05F0000E0F6E030E106E40
:100EC8006000C0F411F06000C4F412F0600030F16A
:100ED80013F06000E0F414F06000E4F415F0010190
:100EE800000E36B7010E166E5CEC05F01200046EAB
:100EF8006000D4F041F06000D8F042F0000E4924C0
:100F0800D96EDA6A040EDA22DF50436E000E4A24E4
:100F1800D96EDA6A050EDA22DF50446E2CD0000E44
:100F28004B24D96EDA6A020EDA22DF50456E000EC3
:100F38004C24D96EDA6A030EDA22DF50466E000EB0
:100F4800476E000E486E30D0000E4C24D96EDA6A17
:100F5800030EDA22DF50036E033A0F0E0316000E5B
:100F68004B24D96EDA6A020EDA22DF50F00B031036
:100F7800456E000EE3D70450000AD8B4D0D7010A52
:100F8800D8B4E2D7030AD8B4DFD7010AD8B4C7D790
:100F9800070AD8B4C4D7010AD8B4C1D7030AD8B449
:100FA800BED7010AD8B4BBD7410E016E000E026E3F
:100FB8001200180EF66E170EF76E000EF86E00EEA1
:100FC80049F010EE0CF009006F00D7FFEEFFE55076
:100FD800E150F9E101EE00F110EE00F1EE6AE550A2
:100FE800E150FCE1E250FAE101EE00F010EE00F110
:100FF800EE6AE550E150FCE1E250FAE100EE00F360
:1010080010EE00F1EE6AE550E150FCE1E250FAE141
:1010180000EE00F210EE00F1EE6AE550E150FCE15E
:10102800E250FAE100EE00F15A0EEE6AE806FDE140
:1010380000EE26F0230EEE6AE806FDE1080ED56EF6
:10104800000ED66E000ED76E000EF86E00010FEF80
:1010580000F0000E946E010E966E000E976E000E54
:10106800926E500E936E050E956E3901A991998175
:10107800000EAC6E010EAE6E000EAF6E000EAA6EC4
:101088007D0EAB6EA495F00EAC6E04D0CBB402D03E
:10109800000EAA6EA4A5FAD7550E3F015F6F35EC76
:1010A80006F0800E946E3F011B691C691D69000ED5
:1010B800126F000E136F000E146F880E1E6F430E12
:1010C8001F6F010E216F000E236F000E226F390172
:1010D800A19F818F918F3F011F8F1200000E0C6E10
:1010E8000AAE06D0096C0A1ED8B00A2A010E0C6E88
:1010F80008AE06D0076C081ED8B0082A010E0C1AD4
:10110800000E0E6E000E0D6E09500A10D8B41CD0D9
:10111800010E0B6E04D0D89009360A360B2A0AAE97
:10112800FAD7D8900D360E360950075C0A50085881
:10113800D8A005D00950075E0A50085A0D80D890EB
:101148000A3209320B2EEDD70C50D8B404D00D6CEE
:101158000E1ED8B00E2A600034F007F0600038F098
:1011680008F012003F0E0514096E000E06140A6EF0
:1011780009500A10D8A41200200E065CD8A012004C
:10118800400E0524096E000E06200A6E0904800E22
:101198000A58D8B01200600014F001F0600018F08E
:1011A80002F041EC0AF00A00000E0C6E000E0B6E05
:1011B8000B500724D96E0C500820DA6EDF50F56EFC
:1011C8000F000B4A0C2A0C5004E1400E0B5CD8A00F
:1011D800EFD73901E59DE58FE585E5997AEC0BF0C8
:1011E8003901E5951200000EB86E470EB96E7C0EF7
:1011F800B76E3901A39F800EB86E4B0E016E010EBB
:10120800026E000E046E000E036E000E066E0F0EC8
:10121800056EADEC0AF03C0E016E010E026E000E7A
:10122800046E000E036E000E066E0F0E056EADEC1A
:101238000AF0010E01014B6F020E4C6F040E4D6F48
:10124800080E4E6F100E4F6F010E416F020E426F67
:10125800040E436F080E446F100E456F200E466F44
:10126800400E476F1200240E016E010E026E000E32
:10127800046E000E036E000E066E180E056EADECC1
:101288000AF0470E0101246F430E256F2B0E266FBF
:10129800320E276F000E296F100E286F000E2A6F6E
:1012A8002B69000E2C6F2D69000E2E6F2F69000E12
:1012B800306F3169020E326F030E336F000E346FD8
:1012C800010E356F000E366F180E376F180E386F17
:1012D800010E396F3A69000E3B6F12003F0E011480
:1012E800056E000E0214066E05500610D8A41200F2
:1012F800200E025CD8A01200400E0124056E000EDC
:101308000220066E0504800E0658D8B01200000EA2
:10131800F86E0250F76E600007F0F6FF3901E59DA0
:10132800E58F000E086E000E076E090007500324B3
:10133800D96E08500420DA6E6F00D7FFDFFF074A26
:10134800082A085005E1400E075CD8B01200EDD716
:101358001200390191BFA1AF23D0A19FD8903C368C
:101368007F0E3F01186501D002D0010E01D0000E9A
:101378003C12000E3D6E000E926E3F2A080E3F187A
:10138800D8A40ED0000E3E24D96EDA6A010EDA22F5
:101398006000F3F0DFFF000E3C6E000E3F6E3E2A49
:1013A8003901A9A111003E50D8B403D0010E3D6EF9
:1013B80002D083EC0BF03901A9911100000ED2BEC6
:1013C800010E016ED29E550E3A01BF6FAA0EBF6F75
:1013D800BF910C0ECC6F0C0ED26F040E0C6F550E15
:1013E800BF6FAA0EBF6FBF8101A002D0D28E01D0FD
:1013F800D29EBB68C268C368C468030E3A01406FD6
:10140800000E506F1E0E606FFC0E416F3F0E516F45
:10141800E10E616F000E426F100E526F000E626F88
:101428001200240E096E010E0A6E000E0B6E0400E7
:101438000B500924D96E000E0A20DA6E0B5067ECA7
:101448000BF0DF6E030E0B18D8A412D0470E010163
:1014580024190AE1430E251907E12B0E261904E188
:10146800320E2719D8B404D037EC09F013EC0BF07E
:101478000B2A170E0B64DBD712003F0E0114036E04
:10148800000E0214046E03500410D8A41200200E9B
:10149800025CD8A01200400E0124036E000E022048
:1014A800046E0304800E0458D8B01200000E3901EF
:1014B800E56F000EF86E0250F76E600007F0F6FF59
:1014C800E59DE58FE589E5857AEC0BF03901E59531
:1014D8001200000ED26E010E3F01386F000EFC6E36
:1014E800550ED46EAA0ED46E000ED46ED4900C0E87
:1014F800D56E200ED66E000ED76E550ED46EAA0E7F
:10150800D46E010ED46ED480000EFB6E200EFA6EDF
:10151800040EF96E12003D50D8A402D0000E12003D
:10152800000E036E10D0000E0324D96EDA6A010E85
:10153800DA2203500124E16E000E0220E26E6F00F1
:101548007FFFE7FF032A3E50035CD8A0ECD73E504C
:101558001200600004F007F0600008F008F00BD0FB
:1015680060001FF0D9FF600023F0DAFF60000FF081
:10157800DFFF074A082A0506D8A006060528F0E175
:101588000628D8B41200ECD7000E036E3C0E0324D4
:10159800D96EDA6A010EDA22410E0324E16EE26A9C
:1015A800000EE2226F007FFFE7FF032A0E0E03649E
:1015B800EDD7410E016E000E026E1200000E036E92
:1015C8004B0E0324D96EDA6A010EDA22410E032487
:1015D800E16EE26A000EE2226F007FFFE7FF032A56
:1015E8000E0E0364EDD7410E016E000E026E12005E
:1015F800015003026F00CCFF05F06F00D0FF06F02A
:1016080001500402F350062602500302F350062646
:10161800600014F001F0600018F002F01200240ECF
:10162800036E010E046E000E056E05500324D96E7C
:10163800000E0420DA6EDF50016E055055EC0BF0F9
:10164800052A170E0564F1D71200000E036E035029
:101658000124D96E000E0220DA6E3C0E0324E16EDE
:10166800E26A010EE2226F007FFFE7FF032A0E0EF7
:101678000364EDD71200000E036E03500124D96EE7
:10168800000E0220DA6E4B0E0324E16EE26A010EB0
:10169800E2226F007FFFE7FF032A0E0E0364EDD7F7
:1016A8001200026E000E3901E56F60000BF0E0F9E0
:1016B800600007F0E3F9E5857AEC0BF03901E5B352
:1016C800FDD7E5951200016E000E3901E56F600047
:1016D80007F0E0F9E581E3511200000E3F6E000EBD
:1016E8003E6E000E3D6E000E3C6E1200D29E550EF0
:1016F8003901E66FAA0EE66FE583D28E1200000E5E
:101708003F6E000E3E6E000E3D6E000E3C6E1200E7
:0C17180080808080000002030001131498
:020000040020DA
:10000000FF0FFF0FFF0FFF0FFF0FFF0FFF0FFF0F80
:020000040030CA
:0A0000008CFDE7F4ECC7E4FEFFFFFF
:00000001FF
