:040000000DEF00F010
:04000800F4EF09F018
:10001800FF00EFEF07F0010E0001F26F000EEE6F28
:10002800BFEC09F06F0028FFF3F06F002CFFF4F02D
:100038006F0030FFF5F0200E026E000E016E600EAC
:10004800036E000E046E84EC09F0470E000160197F
:10005800D8A416D0430E6119D8A412D02B0E621959
:10006800D8A40ED0320E6319D8A40AD0F3AFF3BDCA
:1000780002D0F5A105D03F013851D8B481EC0AF07F
:10008800000E3F01386F29EC0AF001013B05D8A4A6
:1000980003D0180E3A0160136000CCF401F0600040
:1000A800D0F402F06000D4F403F00101325192EC74
:1000B80004F009EC09F03FEC08F010EC0BF000013B
:1000C800F3AFF3BD06D0F3B904D049EC09F03EEC28
:1000D8000BF024EC07F0800ED26E6F0028FFF3F0CF
:1000E8006F002CFFF4F06F0030FFF5F00001F3AF64
:1000F800F3BD01D0F5B304000BEC03F0A00E016EC4
:10010800000E026EA3EC0AF00001EF6FEF51D8B4B5
:10011800E4D7D29E34D2090EC86F000EC96F030E01
:10012800CA6FC80E076E000E086E030E096EB8EC93
:1001380006F069D201013A51BDEC0BF00ED0C7ECC4
:100148000BF00BD0C3EC0BF008D0A251010AD8B4C5
:10015800F1D7030AD8B4F3D7F5D76000ECF401F06F
:100168000001A1518DEC07F0600004F007F0600079
:1001780008F008F0080E096EB8EC06F044D2000E3C
:10018800C86F800EC96F800ECA6F800ECB6F800E4D
:10019800CC6F800ECD6F000ECE6F000ECF6F000EAD
:1001A800D06F000ED16FC80E076E000E086E0A0ED3
:1001B800096EB8EC06F027D2470EA119D8A412D0C0
:1001C800430EA219D8A40ED02B0EA319D8A40AD076
:1001D800320EA419D8A406D0050EEF19D8A402D05F
:1001E800000E01D0010EF26F000E0001C86FC80E9C
:1001F800076E000E086E010E096EB8EC06F003D209
:10020800F251D8A413D0010EC86F100EC96F000E9A
:10021800CA6F100ECB6F000ECC6FC80E076E000EA3
:10022800086E050E096EB8EC06F0EDD1C869DFD787
:10023800F251D8A4FBD7030EEF6520D0600088F2F6
:10024800F0F0F16BF051F16FF06BA151F013030E68
:10025800F66F0FD0A00EF625D96EDA6A000EDA22F4
:10026800DF50016EF05180EC0BF00001F04BF12BE8
:10027800F62BEF51F65DD8B0B7D7ECD7FE0EB6D750
:10028800F251D8A4D3D7040EEF19D8A4F7D7600039
:1002980088F2F0F0F16BF051F16FF06BA151F013AF
:1002A80060008CF2ECF0EC51D8B4E8D7000EC86FBF
:1002B800000EF66F15D0F651246E256A010E24261D
:1002C800000E2522C80E2424D96E000E2520DA6ED1
:1002D800F05192EC0BF0DF6E0001F04BF12BF62B96
:1002E800EC51F65DD8B003D01F0EF665E4D7C80E02
:1002F800076E000E086EEC29096EB8EC06F083D183
:10030800FF0081D1FD0E72D7F251D8A48FD7100EFD
:10031800EF19D8A4B3D7A10E016E000E026E6AECD5
:100328000BF062D7F251D8A481D7100EEF19D8A4D8
:10033800A5D7A10E016E000E026E54EC0BF054D737
:10034800F251D8A473D7F6EC0AF0600004F0C4F0B8
:10035800600008F0C5F0000E0001C86F000EF66FCF
:100368000E0EF66501D018D0F651C425D96E000ED0
:10037800C521DA6EF651246E256A010E2426000E78
:100388002522C80E2424E16E000E2520E26E6F009F
:100398007FFFE7FFF62BE4D7C80E076E000E086E46
:1003A800100E096EB8EC06F02ED1F251D8A43ED743
:1003B800DCEC0AF0600004F0C6F0600008F0C7F05A
:1003C800000E0001C86F000EF66F0E0EF66501D024
:1003D800E3D7F651C625D96E000EC721DA6EF6515D
:1003E800246E256A010E2426000E2522C80E242418
:1003F800E16E000E2520E26E6F007FFFE7FFF62B0F
:10040800E4D7F251D8A412D724EC07F0EDD6F25174
:10041800D8A40CD7000EEE6F000EE8D6F251D8A47F
:1004280005D7010EF66F13D0A00EF625D96EDA6A3D
:10043800000EDA22600EEE25E16EE26A000EE2227C
:100448006F007FFFE7FFEE2B3F0EEE17F62BEF5105
:10045800F65DD8B0C9D6E8D7F251D8A4E7D6020ECF
:10046800EF19D8A40BD7600084F2EDF0ED51D8B4A1
:1004780005D7000EC86F000EF66F1AD0600EEE2575
:10048800D96EDA6A000EDA22F651246E256A010E58
:100498002426000E2522C80E2424E16E000E2520F5
:1004A800E26E6F007FFFE7FFEE2B3F0EEE17F62B95
:1004B800ED51F65DD8B003D01F0EF665DFD7C80E34
:1004C800076E000E086EED29096EB8EC06F09BD099
:1004D800F251D8A4ABD6030EEF19D8A4CFD660003A
:1004E80088F2F0F0F16BF051F16FF06BA151F0135D
:1004F8003F0EF015246E000EF115256E24502510C0
:10050800D8A4BCD66000C0F305F06000C4F306F0C0
:10051800600E076E000E086EC8EC08F065D6F25142
:10052800D8A484D6030EEF19D8A4A8D6600088F200
:10053800F0F0F16BF051F16FF06BA151F013600026
:10054800C0F301F06000C4F302F0600E036E000E09
:10055800046E84EC09F048D6F251D8A467D6000E90
:10056800C86FC80E076E000E086E010E096EB8EC53
:1005780006F081EC0AF047D09CEC0BF044D0A05177
:10058800000AD8B4C8D5100AD8B416D6010AD8B407
:1005980037D6030AD8B44CD6010AD8B471D6070A9C
:1005A800D8B4AED6010AD8B4ADD6030AD8B4ACD6FE
:1005B800010AD8B4B7D60F0AD8B4C2D6010AD8B43B
:1005C800F4D6390AD8B41DD7600AD8B4BED5010A02
:1005D800D8B4D5D5030AD8B4D2D5320AD8B417D7E7
:1005E800010AD8B41BD7030AD8B436D7010AD8B43D
:1005F8006FD7070AD8B493D7010AD8B4ADD78A0AF7
:10060800D8B489D5B9D79CEC0BF0D28E66D56F00DB
:1006180028FF01F06F002CFF02F06F0030FF03F09D
:1006280039500118056E3A500218066E3B500318EF
:10063800076E600004F039F0600008F03AF06000DE
:100648000CF03BF005A802D0000E266E05AA02D0D9
:10065800000E276E05AE02D0000E286E05AC02D043
:10066800000E296E07A202D0000E2A6E06A202D042
:10067800000E2B6E06A002D0000E2C6E07AE02D024
:10068800000E2D6E07AC02D0000E2E6E07A002D011
:10069800000E2F6E07A402D0000E306E07AA02D0FB
:1006A800000E316E07A802D0000E326E07A602D0E7
:1006B800000E336E06AA02D0000E346E3901A3AFC5
:1006C8001200A39F000E046E260E0424D96EDA6A67
:1006D800000EDA22DF2A042A0E0E0464F5D7000E73
:1006E800356E800E366E090E266407D039B805D0EF
:1006F8000A0E266E01014B513512090E266407D0E9
:1007080039B805D00A0E266E01013C513612090E81
:10071800276407D039BA05D00A0E276E01014C515B
:100728003512090E276407D039BA05D00A0E276E8C
:1007380001013D513612090E286407D039BE05D093
:100748000A0E286E01014D513512090E286407D092
:1007580039BE05D00A0E286E01013E513612090E27
:10076800296407D039BC05D00A0E296E01014E5103
:100778003512090E296407D039BC05D00A0E296E36
:1007880001013F513612090E2A6407D03BB205D049
:100798000A0E2A6E01014F513512090E2A6407D03C
:1007A8003BB205D00A0E2A6E010140513612090EDD
:1007B8002B6407D03AB205D00A0E2B6E01015051B6
:1007C8003512090E2B6407D03AB205D00A0E2B6EEB
:1007D800010141513612090E2C6407D03AB005D0F8
:1007E8000A0E2C6E010151513512090E2C6407D0E6
:1007F8003AB005D00A0E2C6E010142513612090E8C
:100808002D6407D03BBE05D00A0E2D6E0101525152
:100818003512090E2D6407D03BBE05D00A0E2D6E89
:10082800010143513612090E2E6407D03BBC05D096
:100838000A0E2E6E010153513512090E2E6407D08F
:100848003BBC05D00A0E2E6E010144513612090E2A
:100858002F6407D03BB005D00A0E2F6E010154510A
:100868003512090E2F6407D03BB005D00A0E2F6E43
:10087800010145513612090E306407D03BB405D04A
:100888000A0E306E010155513512090E306407D039
:100898003BB405D00A0E306E010146513612090EDE
:1008A800316407D03BBA05D00A0E316E01015651AA
:1008B8003512090E316407D03BBA05D00A0E316EE5
:1008C800010147513612090E346407D03ABA05D0EF
:1008D8000A0E346E010159513512090E346407D0DD
:1008E8003ABA05D00A0E346E01014A513612090E81
:1008F800326408D00A0E326E3BA803D0000E376E61
:1009080001D03768090E336412000A0E336E3BA615
:1009180003D0000E386E120038681200086E800E80
:100928003E01F86F000EF96F030EFA6FFA518F0B44
:100938006009FA6F070EFB6F3F0EFF6F000EFD6F29
:10094800F369040EEC6F1D0EFE6FD78FD7A1FED78B
:10095800600020F04FF0600004F050F0600008F0F4
:1009680051F060000CF052F03901A197000E096EA9
:100978004F0E0924D96EDA6A000EDA22DF503E01E2
:10098800F16F3901A1A7FDD7A197490E0924D96EA6
:10099800DA6A000EDA226F009BFBDFFF092A050ED8
:1009A8000964E6D73901550EEF6FAA0EEF6FEF8194
:1009B8004F0E046E000E056E066A076A110E05D00A
:1009C800D8900732063205320432E82EF9D704509F
:1009D8003B01FB6F4F0E046E000E056E066A076A38
:1009E800600014F004F0600018F005F060001CF0DE
:1009F80006F0076A0450FA6F4F0EF96FF10E046E95
:100A08003E0E056E066A076A600014F004F0600086
:100A180018F005F060001CF006F0076A0450F16F4A
:100A2800F10EF06F000EF86F060EF76F000EEF6F05
:100A3800010EEE6F2A0EFF6F3F0EFD17FD9BE70EAE
:100A4800FD17FD51F90B0209FD6FFD91C00EFC6FFA
:100A5800000EDB6FE60E046E3E0E056E066A076A30
:100A6800600014F004F0600018F005F060001CF05D
:100A780006F0076A0450DA6FE60ED96F490E046E65
:100A8800000E056E066A076A600014F004F0600044
:100A980018F005F060001CF006F0076A0450D16FEA
:100AA800490ED06F000ED86F010ED76F000ECF6FB2
:100AB800060ECE6F0B0EDF6FDD513F0B4009DD6F69
:100AC800DD9BE70EDD17F90EDD17DD91C00EDC6F3B
:100AD800FC8B12001150125C076E086AD8A0080639
:100AE800000E0A6E020E096E84EC08F060001CF01D
:100AF8001CF0600020F01DF0000E216E000E206E2C
:100B08001350205C226E2150D8A02104236E165069
:100B1800D8B404D0226C231ED8B0232A23AE11D017
:100B2800600088F017F060008CF018F0171E181E8F
:100B3800174A182A60005CF01AF0600060F01BF099
:100B480006D0600088F01AF060008CF01BF014509A
:100B5800176E186A17501A5C1B50800A196E1850C5
:100B6800800A1958D8B009D020500F24D96E2150C6
:100B78001020DA6E800EDF6E7ED01550D8A41BD000
:100B8800600088F001F060008CF002F0000E046E46
:100B98007F0E036E27EC0BF0600004F007F0600096
:100BA80008F008F0600070F009F0600074F00AF0D6
:100BB80084EC08F03FD023BE22D0235003E1220466
:100BC800D8A01DD01450225C016E2350D8A0230455
:100BD800026E000E046E7F0E036E27EC0BF06000B1
:100BE80004F007F0600008F008F014501C5C096E6F
:100BF8001D50D8A01D040A6E84EC08F01BD01450B8
:100C08002224016E000E2320026E000E046E7F0E59
:100C1800036E27EC0BF0600004F007F0600008F0AA
:100C280008F014501C5C096E1D50D8A01D040A6EF3
:100C380084EC08F060001CF01EF0600020F01FF04B
:100C4800800E1E26000E1F221FAE04D0000E1F6E3F
:100C5800000E1E6E1FBE06D01F04D8A003D0000EC3
:100C68001F6E1E6820500F24D96E21501020DA6E96
:100C780060007BF0DFFF204A212A21BE41D72104F2
:100C8800D8B012003DD7000EAC6E010EAE6E040E49
:100C9800AD6E120EAF6E1F0EAB6E000EAA6E800EFA
:100CA800AC6E0F0E6D6E000E6C6E800E6E6E000ECA
:100CB8003C01756F180E766F050E776F000E786F12
:100CC800000E796F080E7A6F020E7B6F000E7C6F34
:100CD800000E7D6F840E746F000E6B6F2C0E6C6FA0
:100CE800050E6D6F000E6E6F000E6F6F080E706F41
:100CF800010E716F000E726F000E736F840E6A6FB3
:100D0800000E616F240E626F180E636F2B0E646FF6
:100D18002C0E656F020E666F040E676F900E686F7B
:100D2800600E696F820E606F040E576F260E586F43
:100D38002C0E596F250E5A6F000E5B6F020E5C6FFA
:100D4800000E5D6F140E5E6F000E5F6F830E566FA0
:100D5800050E3D011C6F000E196F000E156F020E77
:100D6800166F820E146F12003F011F9F3D0117ABD3
:100D7800FDD7C394000E3F6E000E3E6E000E3D6E12
:100D8800000E3C6E010EAA6E010E186F1A9F6000CD
:100D980027F012FD0904D8A40BD060001FF0D9FF7A
:100DA800600023F0DAFFDF50116F800E116F3FD023
:100DB80060001FF0D9FF600023F0DAFFDF50116FE9
:100DC80020EE01F00750D9260850DA22DF50116FC3
:100DD8000950FE0F106E020E0F6E27D0600040F013
:100DE8000AF00B6A0ABE0B06020E0A26000E0B2238
:100DF80012510C6E0D6A0A500C5C0D50800A0E6E72
:100E08000B50800A0E58D8B010D01050D8A403D078
:100E1800800E116F09D00F500724D96E000E0820DC
:100E2800DA6EDF50116F0F2A100610AED7D71AAF3F
:100E3800FED717ABFED71A9F3F011F8FC38412003E
:100E4800000E0F6E040E106E6000A8F411F0600022
:100E5800ACF412F0600024F113F06000DCF414F03C
:100E68006000E4F415F00101000E36B1010E166EB3
:100E78006EEC05F0000E0F6E050E106E6000B0F4FB
:100E880011F06000B4F412F0600028F113F0600073
:100E9800DCF414F06000E4F415F00101000E36B340
:100EA800010E166E6EEC05F0000E0F6E020E106E3F
:100EB8006000B8F411F06000BCF412F060002CF18E
:100EC80013F06000E0F414F06000E4F415F00101A0
:100ED800000E36B5010E166E6EEC05F0000E0F6EA4
:100EE800030E106E6000C0F411F06000C4F412F03C
:100EF800600030F113F06000E0F414F06000E4F4F6
:100F080015F00101000E36B7010E166E6EEC05F0F5
:100F18001200046E6000D4F041F06000D8F042F096
:100F2800000E4924D96EDA6A040EDA22DF50436EC5
:100F3800000E4A24D96EDA6A050EDA22DF50446EB2
:100F48002CD0000E4B24D96EDA6A020EDA22DF505A
:100F5800456E000E4C24D96EDA6A030EDA22DF5091
:100F6800466E000E476E000E486E30D0000E4C24C0
:100F7800D96EDA6A030EDA22DF50036E033A0F0ED7
:100F88000316000E4B24D96EDA6A020EDA22DF50FD
:100F9800F00B0310456E000EE3D70450000AD8B4D6
:100FA800D0D7010AD8B4E2D7030AD8B4DFD7010AE8
:100FB800D8B4C7D7070AD8B4C4D7010AD8B4C1D798
:100FC800030AD8B4BED7010AD8B4BBD7410E016E04
:100FD800000E026E12006E0EF66E170EF76E000E01
:100FE800F86E00EE49F010EE0CF009006F00D7FF24
:100FF800EEFFE550E150F9E101EE00F110EE00F1ED
:10100800EE6AE550E150FCE1E250FAE101EE00F051
:1010180010EE00F1EE6AE550E150FCE1E250FAE131
:1010280000EE00F310EE00F1EE6AE550E150FCE14D
:10103800E250FAE100EE00F210EE00F1EE6AE5503F
:10104800E150FCE1E250FAE100EE00F15A0EEE6ADE
:10105800E806FDE100EE26F0230EEE6AE806FDE163
:10106800080ED56E000ED66E000ED76E000EF86E06
:1010780000010FEF00F0000E946E010E966E000E48
:10108800976E000E926E500E936E050E956E390196
:10109800A9919981000EAC6E010EAE6E000EAF6E76
:1010A800000EAA6E7D0EAB6EA495F00EAC6E04D049
:1010B800CBB402D0000EAA6EA4A5FAD7550E3F01F4
:1010C8005F6F47EC06F0800E946E3F011B691C6948
:1010D8001D69000E126F000E136F000E146F880E3C
:1010E8001E6F430E1F6F010E216F000E236F000E3F
:1010F800226F3901A19F818F918F3F011F8F1200AD
:10110800000E0C6E0AAE06D0096C0A1ED8B00A2A68
:10111800010E0C6E08AE06D0076C081ED8B0082A5F
:10112800010E0C1A000E0E6E000E0D6E09500A10FC
:10113800D8B41CD0010E0B6E04D0D89009360A36EC
:101148000B2A0AAEFAD7D8900D360E360950075C2E
:101158000A500858D8A005D00950075E0A50085A06
:101168000D80D8900A3209320B2EEDD70C50D8B426
:1011780004D00D6C0E1ED8B00E2A600034F007F0B3
:10118800600038F008F012003F0E0514096E000EDA
:1011980006140A6E09500A10D8A41200200E065C24
:1011A800D8A01200400E0524096E000E06200A6E13
:1011B8000904800E0A58D8B01200600014F001F03B
:1011C800600018F002F055EC0AF00A00000E0C6EF0
:1011D800000E0B6E0B500724D96E0C500820DA6EE7
:1011E800DF50F56E0F000B4A0C2A0C5004E1400E3C
:1011F8000B5CD8A0EFD73901E59DE58FE585E5992A
:10120800A5EC0BF03901E5951200000EB86E470EFB
:10121800B96E7C0EB76E3901A39F800EB86E4B0E67
:10122800016E010E026E000E046E000E036E000EBB
:10123800066E0F0E056EC1EC0AF03C0E016E010E33
:10124800026E000E046E000E036E000E066E0F0E88
:10125800056EC1EC0AF0010E01014B6F020E4C6FD6
:10126800040E4D6F080E4E6F100E4F6F010E416F3A
:10127800020E426F040E436F080E446F100E456F46
:10128800200E466F400E476F1200240E016E010EAD
:10129800026E000E046E000E036E000E066E180E2F
:1012A800056EC1EC0AF0470E0101246F430E256F4D
:1012B8002B0E266F320E276F000E296F100E286F27
:1012C800000E2A6F2B69000E2C6F2D69000E2E6FF1
:1012D8002F69000E306F3169020E326F030E336FC3
:1012E800000E346F010E356F000E366F180E376F13
:1012F800180E386F010E396F3A69000E3B6F1200F5
:101308003F0E0114056E000E0214066E05500610FD
:10131800D8A41200200E025CD8A01200400E0124AE
:10132800056E000E0220066E0504800E0658D8B021
:101338001200000EF86E0250F76E600007F0F6FF1C
:101348003901E59DE58F000E086E000E076E090055
:1013580007500324D96E08500420DA6E6F00D7FFB7
:10136800DFFF074A082A085005E1400E075CD8B09D
:101378001200EDD71200000ED2BE010E016ED29EF1
:10138800550E3A01BF6FAA0EBF6FBF910A0ECC6F00
:101398000A0ED26F040E0A6F090E0B6F550EBF6F3F
:1013A800AA0EBF6FBF8101A002D0D28E01D0D29EFB
:1013B800BB68C268E70EC36EC4680F0E3A01406F7F
:1013C800000E506F000E606FF00E416F270E516FC8
:1013D8006169000E426F040E526F000E626F1200B8
:1013E800390191BFA1AF23D0A19FD8903C367F0E81
:1013F8003F01186501D002D0010E01D0000E3C1249
:10140800000E3D6E000E926E3F2A080E3F18D8A4BB
:101418000ED0000E3E24D96EDA6A010EDA22600080
:10142800F3F0DFFF000E3C6E000E3F6E3E2A3901DE
:10143800A9A111003E50D8B403D0010E3D6E02D0D0
:10144800AEEC0BF03901A9911100240E096E010EC2
:101458000A6E000E0B6E04000B500924D96E000EA4
:101468000A20DA6E0B5092EC0BF0DF6E030E0B18AD
:10147800D8A412D0470E010124190AE1430E2519F8
:1014880007E12B0E261904E1320E2719D8B404D02F
:1014980049EC09F03EEC0BF00B2A170E0B64DBD776
:1014A80012003F0E0114036E000E0214046E035066
:1014B8000410D8A41200200E025CD8A01200400E1E
:1014C8000124036E000E0220046E0304800E0458EB
:1014D800D8B01200000E3901E56F000EF86E025008
:1014E800F76E600007F0F6FFE59DE58FE589E58575
:1014F800A5EC0BF03901E5951200000ED26E010E35
:101508003F01386F000EFC6E550ED46EAA0ED46ED5
:10151800000ED46ED4900C0ED56E200ED66E000E32
:10152800D76E550ED46EAA0ED46E010ED46ED4802A
:10153800000EFB6E200EFA6E040EF96E12003D507E
:10154800D8A402D0000E1200000E036E10D0000EB8
:101558000324D96EDA6A010EDA2203500124E16EFF
:10156800000E0220E26E6F007FFFE7FF032A3E5065
:10157800035CD8A0ECD73E501200600004F007F0DE
:10158800600008F008F00BD060001FF0D9FF600081
:1015980023F0DAFF60000FF0DFFF074A082A05068C
:1015A800D8A006060528F0E10628D8B41200ECD722
:1015B800000E036E3C0E0324D96EDA6A010EDA229D
:1015C800410E0324E16EE26A000EE2226F007FFF03
:1015D800E7FF032A0E0E0364EDD7410E016E000EDD
:1015E800026E1200000E036E4B0E0324D96EDA6AE7
:1015F800010EDA22410E0324E16EE26A000EE222B5
:101608006F007FFFE7FF032A0E0E0364EDD7410E3C
:10161800016E000E026E1200000EA06E010EA26E88
:10162800000EA16E9F68000E9E6E800EA06E3F0198
:101638005E51FC0B02095E6F000E7C6E800E7D6EA3
:101648009C0E7E6E1200015003026F00CCFF05F065
:101658006F00D0FF06F001500402F3500626025036
:101668000302F3500626600014F001F0600018F041
:1016780002F01200240E036E010E046E000E056EB9
:1016880005500324D96E000E0420DA6EDF50016E77
:10169800055080EC0BF0052A170E0564F1D71200EF
:1016A800000E036E03500124D96E000E0220DA6E7C
:1016B8003C0E0324E16EE26A010EE2226F007FFF16
:1016C800E7FF032A0E0E0364EDD71200000E036E27
:1016D80003500124D96E000E0220DA6E4B0E03244B
:1016E800E16EE26A010EE2226F007FFFE7FF032A44
:1016F8000E0E0364EDD71200026E000E3901E56F7D
:1017080060000BF0E0F9600007F0E3F9E585A5EC6F
:101718000BF03901E5B3FDD7E5951200016E000E17
:101728003901E56F600007F0E0F9E581E351120047
:10173800000E3F6E000E3E6E000E3D6E000E3C6EBB
:101748001200D29E550E3901E66FAA0EE66FE583A8
:10175800D28E1200000E3F6E000E3E6E000E3D6EE1
:10176800000E3C6E120080808080000002030001A1
:101778001314016EBB88600007F07DFF1200BB9850
:0E178800800E7D6E1200BB88600E7D6E12001A
:0820000047432B320FEF10F0F3
:04200C00FEEF18F0DB
:10201C00FF006FEF17F0010E0001B16F000E846F1F
:10202C00C9EC18F06F0028FFB2F06F002CFFB3F072
:10203C006F0030FFB4F033EC19F00001CD05D8A4DB
:10204C0003D0180E3A016013600014F301F0600025
:10205C0018F302F060001CF303F00001C451ADEC66
:10206C0013F04EEC18F0C5EC17F0EEEC19F0000183
:10207C00B2AFB2BD06D0B2B904D08EEC18F01CECE5
:10208C001AF006EC17F0800ED26E6F0028FFB2F03B
:10209C006F002CFFB3F06F0030FFB4F00001B2AF53
:1020AC00B2BD01D0B4B3040026EC12F0600E016E88
:1020BC00000E026E81EC19F00001B06FB051D8A483
:1020CC008DD1E3D7090E896F000E8A6F030E8B6FCB
:1020DC00890E076E000E086E030E096E9AEC16F050
:1020EC00D4D7FF0E9BEC1AF00ED0A5EC1AF00BD047
:1020FC00A1EC1AF008D06251010AD8B4F2D7030A45
:10210C00D8B4F3D7F5D7600034F301F00001615176
:10211C0062EC15F0600004F007F0600008F008F0C5
:10212C00080E096E9AEC16F0B0D7000E896F800E6F
:10213C008A6F800E8B6F800E8C6F800E8D6F800E71
:10214C008E6F000E8F6F000E906F000E916F000E51
:10215C00926F890E076E000E086E0A0E096E9AECCD
:10216C0016F093D7470E6119D8A412D0430E6219FA
:10217C00D8A40ED02B0E6319D8A40AD0320E641931
:10218C00D8A406D0050EB019D8A402D0000E01D0E8
:10219C00010EB16F000E0001896F890E076E000EE3
:1021AC00086E010E096E9AEC16F06FD7B151D8A4D7
:1021BC0013D0020E896F100E8A6F000E8B6F100EEB
:1021CC008C6F000E8D6F890E076E000E086E050E5B
:1021DC00096E9AEC16F059D78969DFD7B151D8A49A
:1021EC00FBD7030EB06520D0600088F1AEF0AF6B6A
:1021FC00AE51AF6FAE6B6151AE13030EB56F0FD016
:10220C00600EB525D96EDA6A000EDA22DF50016E47
:10221C00AE515EEC1AF00001AE4BAF2BB52BB051AA
:10222C00B55DD8B0B7D7ECD7FE0EB6D7B151D8A4A0
:10223C00D3D7040EB019D8A4F7D7600088F1AEF04C
:10224C00AF6BAE51AF6FAE6B6151AE1360008CF1E2
:10225C00ADF0AD51D8B4E8D7000E896F000EB56F54
:10226C0015D0B551246E256A010E2426000E2522A8
:10227C00890E2424D96E000E2520DA6EAE5170EC36
:10228C001AF0DF6E0001AE4BAF2BB52BAD51B55D27
:10229C00D8B003D01F0EB565E4D7890E076E000EBB
:1022AC00086EAD29096E9AEC16F0EFD6FF00EDD64C
:1022BC00B151D8A491D7000E896F890E076E000E0C
:1022CC00086E010E096E9AEC16F05FEC19F0DDD673
:1022DC00B151D8A481D7100EB019D8A4A5D7610ECE
:1022EC00016E000E026E48EC1AF054D7B151D8A40E
:1022FC0073D7100EB019D8A497D7610E016E000ECB
:10230C00026E32EC1AF046D7B151D8A465D7D4EC92
:10231C0019F0600004F085F0600008F086F0000E03
:10232C000001896F000EB56F0E0EB56501D018D087
:10233C00B5518525D96E000E8621DA6EB551246E05
:10234C00256A010E2426000E2522890E2424E16E16
:10235C00000E2520E26E6F007FFFE7FFB52BE4D760
:10236C00890E076E000E086E100E096E9AEC16F0B0
:10237C008CD6B151D8A430D7BAEC19F0600004F067
:10238C0087F0600008F088F0000E0001896F000EE5
:10239C00B56F0E0EB56501D0E3D7B5518725D96E53
:1023AC00000E8821DA6EB551246E256A010E2426A2
:1023BC00000E2522890E2424E16E000E2520E26EEB
:1023CC006F007FFFE7FFB52BE4D7B151D8A404D73A
:1023DC0006EC17F0DFD683EC1AF057D66051000AE2
:1023EC00D8B470D6100AD8B4BDD6010AD8B4DED68B
:1023FC00030AD8B4F3D6010AD8B418D7070AD8B44C
:10240C0055D7010AD8B454D7030AD8B461D7010AF6
:10241C00D8B46CD70F0AD8B477D7010AD8B4A9D7D7
:10242C00390AD8B4D2D7600AD8B465D6010AD8B460
:10243C007CD6030AD8B479D6BD0AD8B443D6CBD748
:10244C006F0028FF01F06F002CFF02F06F0030FFCF
:10245C0003F039500118056E3A500218066E3B50C5
:10246C000318076E600004F039F0600008F03AF0D1
:10247C0060000CF03BF005A802D0000E266E05AAF9
:10248C0002D0000E276E05AE02D0000E286E05ACF1
:10249C0002D0000E296E07A202D0000E2A6E06A2F0
:1024AC0002D0000E2B6E06A002D0000E2C6E07AED2
:1024BC0002D0000E2D6E07AC02D0000E2E6E07A0BF
:1024CC0002D0000E2F6E07A402D0000E306E07AAA9
:1024DC0002D0000E316E07A802D0000E326E07A695
:1024EC0002D0000E336E06AA02D0000E346E3901F3
:1024FC00A3AF1200A39F000E046E260E0424D96E07
:10250C00DA6A000EDA22DF2A042A0E0E0464F5D7EA
:10251C00000E356E800E366E090E266407D039B863
:10252C0005D00A0E266E0001DD513512090E266407
:10253C0007D039B805D00A0E266E0001CE513612DE
:10254C00090E276407D039BA05D00A0E276E000190
:10255C00DE513512090E276407D039BA05D00A0EA0
:10256C00276E0001CF513612090E286407D039BEF0
:10257C0005D00A0E286E0001DF513512090E2864B1
:10258C0007D039BE05D00A0E286E0001D051361284
:10259C00090E296407D039BC05D00A0E296E00013A
:1025AC00E0513512090E296407D039BC05D00A0E4A
:1025BC00296E0001D1513612090E2A6407D03BB2A4
:1025CC0005D00A0E2A6E0001E1513512090E2A645B
:1025DC0007D03BB205D00A0E2A6E0001D25136123A
:1025EC00090E2B6407D03AB205D00A0E2B6E0001EF
:1025FC00E2513512090E2B6407D03AB205D00A0EFF
:10260C002B6E0001D3513612090E2C6407D03AB050
:10261C0005D00A0E2C6E0001E3513512090E2C6404
:10262C0007D03AB005D00A0E2C6E0001D4513612E8
:10263C00090E2D6407D03BBE05D00A0E2D6E00018D
:10264C00E4513512090E2D6407D03BBE05D00A0E9D
:10265C002D6E0001D5513612090E2E6407D03BBCED
:10266C0005D00A0E2E6E0001E5513512090E2E64AE
:10267C0007D03BBC05D00A0E2E6E0001D651361287
:10268C00090E2F6407D03BB005D00A0E2F6E000147
:10269C00E6513512090E2F6407D03BB005D00A0E57
:1026AC002F6E0001D7513612090E306407D03BB49F
:1026BC0005D00A0E306E0001E7513512090E306458
:1026CC0007D03BB405D00A0E306E0001D85136123B
:1026DC00090E316407D03BBA05D00A0E316E0001E9
:1026EC00E8513512090E316407D03BBA05D00A0EF9
:1026FC00316E0001D9513612090E346407D03ABA42
:10270C0005D00A0E346E0001EB513512090E3464FB
:10271C0007D03ABA05D00A0E346E0001DC513612DD
:10272C00090E326408D00A0E326E3BA803D0000E9C
:10273C00376E01D03768090E336412000A0E336EFF
:10274C003BA603D0000E386E120038681200086EDB
:10275C00800E3E01F86F000EF96F030EFA6FFA51FE
:10276C008F0B6009FA6F070EFB6F3F0EFF6F000EA9
:10277C00FD6FF369040EEC6F1D0EFE6FD78FD7A1A2
:10278C00FED7600020F04FF0600004F050F06000C5
:10279C0008F051F060000CF052F03901A197000ED6
:1027AC00096E4F0E0924D96EDA6A000EDA22DF5058
:1027BC003E01F16F3901A1A7FDD7A197490E09245C
:1027CC00D96EDA6A000EDA226F009BFBDFFF092A52
:1027DC00050E0964E6D73901550EEF6FAA0EEF6F9F
:1027EC00EF814F0E046E000E056E066A076A110E1D
:1027FC0005D0D8900732063205320432E82EF9D7CC
:10280C0004503B01FB6F4F0E046E000E056E066A02
:10281C00076A600014F004F0600018F005F0600026
:10282C001CF006F0076A0450FA6F4F0EF96FF10EA8
:10283C00046E3E0E056E066A076A600014F004F022
:10284C00600018F005F060001CF006F0076A0450F8
:10285C00F16FF10EF06F000EF86F060EF76F000EB1
:10286C00EF6F010EEE6F2A0EFF6F3F0EFD17FD9BF3
:10287C00E70EFD17FD51F90B0209FD6FFD91C00E1E
:10288C00FC6F000EDB6FE60E046E3E0E056E066AE4
:10289C00076A600014F004F0600018F005F06000A6
:1028AC001CF006F0076A0450DA6FE60ED96F490E79
:1028BC00046E000E056E066A076A600014F004F0E0
:1028CC00600018F005F060001CF006F0076A045078
:1028DC00D16F490ED06F000ED86F010ED76F000E5E
:1028EC00CF6F060ECE6F0B0EDF6FDD513F0B400925
:1028FC00DD6FDD9BE70EDD17F90EDD17DD91C00EE8
:10290C00DC6FFC8B12001150125C076E086AD8A0A9
:10291C000806000E0A6E020E096E0AEC18F0600032
:10292C001CF01CF0600020F01DF0000E216E000E5B
:10293C00206E1350205C226E2150D8A02104236EEF
:10294C001650D8B404D0226C231ED8B0232A23AE40
:10295C0011D0600088F017F060008CF018F0171E92
:10296C00181E174A182A60005CF01AF0600060F01C
:10297C001BF006D0600088F01AF060008CF01BF0A1
:10298C001450176E186A17501A5C1B50800A196E77
:10299C001850800A1958D8B009D020500F24D96E7D
:1029AC0021501020DA6E800EDF6E7ED01550D8A428
:1029BC001BD0600088F001F060008CF002F0000E7B
:1029CC00046E7F0E036E05EC1AF0600004F007F045
:1029DC00600008F008F0600070F009F0600074F01E
:1029EC000AF00AEC18F03FD023BE22D0235003E1AA
:1029FC002204D8A01DD01450225C016E2350D8A004
:102A0C002304026E000E046E7F0E036E05EC1AF0AA
:102A1C00600004F007F0600008F008F014501C5C33
:102A2C00096E1D50D8A01D040A6E0AEC18F01BD0BC
:102A3C0014502224016E000E2320026E000E046E30
:102A4C007F0E036E05EC1AF0600004F007F06000D6
:102A5C0008F008F014501C5C096E1D50D8A01D0421
:102A6C000A6E0AEC18F060001CF01EF0600020F0FA
:102A7C001FF0800E1E26000E1F221FAE04D0000E6B
:102A8C001F6E000E1E6E1FBE06D01F04D8A003D0F2
:102A9C00000E1F6E1E6820500F24D96E215010207E
:102AAC00DA6E60007BF0DFFF204A212A21BE41D77D
:102ABC002104D8B012003DD7046E6000D4F041F070
:102ACC006000D8F042F0000E4924D96EDA6A040E88
:102ADC00DA22DF50436E000E4A24D96EDA6A050EF4
:102AEC00DA22DF50446E0150D8A407D06000E0F029
:102AFC0005F06000DCF006F088D0600034F105F0E1
:102B0C00600038F106F081D0000E4B24D96EDA6AE1
:102B1C00020EDA22DF50456E000E4C24D96EDA6AB2
:102B2C00030EDA22DF50466E600014F003F0033A15
:102B3C000F0E03160650F00B0310476E000E486E76
:102B4C007DD0000E4C24D96EDA6A030EDA22DF50E7
:102B5C00036E033A0F0E0316000E4B24D96EDA6A7D
:102B6C00020EDA22DF50F00B0310456E600018F0F5
:102B7C0046F0600014F047F0E1D7000E4C24D96EFB
:102B8C00DA6A030EDA22DF50036E033A0F0E0316D5
:102B9C00000E4B24D96EDA6A020EDA22DF50F00BEB
:102BAC000310456E600014F003F0033A0F0E031689
:102BBC000650F00B0310466E000EBFD7000E4B24D0
:102BCC00D96EDA6A020EDA22DF50456E000E4C2402
:102BDC00D96EDA6A030EDA22DF50466E600018F006
:102BEC0047F0600014F048F029D0000E4B24D96E49
:102BFC00DA6A020EDA22DF50456E000E4C24D96ED2
:102C0C00DA6A030EDA22DF50D6D70450000AD8B4A1
:102C1C007BD7010AD8B495D7030AD8B4AED7010A2A
:102C2C00D8B4CCD7070AD8B4E0D7010AD8B46CD73B
:102C3C00030AD8B469D7010AD8B466D7410E016E1D
:102C4C00000E026E1200000EAC6E010EAE6E040E83
:102C5C00AD6E120EAF6E1F0EAB6E000EAA6E800E16
:102C6C00AC6E0F0E6D6E000E6C6E800E6E6E000EE6
:102C7C003C01756F180E766F050E776F000E786F2E
:102C8C00000E796F080E7A6F020E7B6F000E7C6F50
:102C9C00000E7D6F840E746F000E6B6F2C0E6C6FBC
:102CAC00050E6D6F000E6E6F000E6F6F080E706F5D
:102CBC00010E716F000E726F000E736F840E6A6FCF
:102CCC00000E616F240E626F180E636F2B0E646F13
:102CDC002C0E656F020E666F040E676F900E686F98
:102CEC00600E696F820E606F040E576F260E586F60
:102CFC002C0E596F250E5A6F000E5B6F020E5C6F17
:102D0C00000E5D6F140E5E6F000E5F6F830E566FBC
:102D1C00050E3D011C6F000E196F000E156F020E93
:102D2C00166F820E146F12003F011F9F3D0117ABEF
:102D3C00FDD7C394000E3F6E000E3E6E000E3D6E2E
:102D4C00000E3C6E010EAA6E010E186F1A9F6000E9
:102D5C0027F012FD0904D8A40BD060001FF0D9FF96
:102D6C00600023F0DAFFDF50116F800E116F3FD03F
:102D7C0060001FF0D9FF600023F0DAFFDF50116F05
:102D8C0020EE01F00750D9260850DA22DF50116FDF
:102D9C000950FE0F106E020E0F6E27D0600040F02F
:102DAC000AF00B6A0ABE0B06020E0A26000E0B2254
:102DBC0012510C6E0D6A0A500C5C0D50800A0E6E8E
:102DCC000B50800A0E58D8B010D01050D8A403D095
:102DDC00800E116F09D00F500724D96E000E0820F9
:102DEC00DA6EDF50116F0F2A100610AED7D71AAF5C
:102DFC00FED717ABFED71A9F3F011F8FC38412005B
:102E0C00000E0F6E040E106E6000F0F211F06000F8
:102E1C00F4F212F0600024F113F0600024F314F0CB
:102E2C0060002CF315F00001000EC8B1010E166EF7
:102E3C0089EC14F0000E0F6E050E106E6000F8F2A7
:102E4C0011F06000FCF212F0600028F113F0600049
:102E5C0024F314F060002CF315F00001000EC8B33D
:102E6C00010E166E89EC14F0000E0F6E020E106E31
:102E7C00600000F311F0600004F312F060002CF11C
:102E8C0013F0600028F314F060002CF315F000012F
:102E9C00000EC8B5010E166E89EC14F0000E0F6E04
:102EAC00030E106E600008F311F060000CF312F0CA
:102EBC00600030F113F0600028F314F060002CF384
:102ECC0015F00001000EC8B7010E166E89EC14F057
:102EDC0012002A0EF66E350EF76E000EF86E00EE2E
:102EEC0049F010EE0CF009006F00D7FFEEFFE55033
:102EFC00E150F9E101EE00F110EE00F1EE6AE5505F
:102F0C00E150FCE1E250FAE101EE00F010EE00F1CC
:102F1C00EE6AE550E150FCE1E250FAE100EE00F31C
:102F2C0010EE00F1EE6AE550E150FCE1E250FAE1FE
:102F3C0000EE00F210EE00F1EE6AE550E150FCE11B
:102F4C00E250FAE100EE00F1240EEE6AE806FDE133
:102F5C0000EEB6F0360EEE6AE806FDE100EE26F065
:102F6C00230EEE6AE806FDE10C0ED56E200ED66E31
:102F7C00000ED76E000EF86E000111EF10F0000E6F
:102F8C00946E010E966E000E976E000E926E500EA1
:102F9C00936E050E956E3901A9919981000EAC6E58
:102FAC00010EAE6E000EAF6E000EAA6E7D0EAB6EF5
:102FBC00A495F00EAC6E04D0CBB402D0000EAA6E69
:102FCC00A4A5FAD7550E3F015F6F29EC16F0800EC1
:102FDC00946E3F011B691C691D69000E126F000E77
:102FEC00136F000E146F880E1E6F430E1F6F010EB1
:102FFC00216F000E236F000E226F3901A19F818F6C
:10300C00918F3F011F8F1200000E0C6E0AAE06D07E
:10301C00096C0A1ED8B00A2A010E0C6E08AE06D036
:10302C00076C081ED8B0082A010E0C1A000E0E6E82
:10303C00000E0D6E09500A10D8B41CD0010E0B6E88
:10304C0004D0D89009360A360B2A0AAEFAD7D89093
:10305C000D360E360950075C0A500858D8A005D01A
:10306C000950075E0A50085A0D80D8900A3209326E
:10307C000B2EEDD70C50D8B404D00D6C0E1ED8B05E
:10308C000E2A600034F007F0600038F008F01200EF
:10309C00000EB86E470EB96E7C0EB76E3901A39F49
:1030AC00800EB86EDD0E016E000E026E000E046E08
:1030BC00000E036E000E066E0F0E056E9FEC19F0DF
:1030CC00CE0E016E000E026E000E046E000E036E2C
:1030DC00000E066E0F0E056E9FEC19F0010E00012E
:1030EC00DD6F020EDE6F040EDF6F080EE06F100E48
:1030FC00E16F010ED36F020ED46F040ED56F080E64
:10310C00D66F100ED76F200ED86F400ED96F1200ED
:10311C00B60E016E000E026E000E046E000E036EF3
:10312C00000E066E180E056E9FEC19F0470E00018E
:10313C00B66F430EB76F2B0EB86F320EB96F000E11
:10314C00BB6F100EBA6F000EBC6FBD69000EBE6F68
:10315C00BF69000EC06FC169000EC26FC369020E59
:10316C00C46F030EC56F000EC66F010EC76F000E45
:10317C00C86F180EC96F180ECA6F010ECB6FCC69D1
:10318C00000ECD6F1200000ED2BE010E016ED29E4B
:10319C00550E3A01BF6FAA0EBF6FBF910A0ECC6FCE
:1031AC000A0ED26F040E0A6F090E0B6F550EBF6F0D
:1031BC00AA0EBF6FBF8101A002D0D28E01D0D29EC9
:1031CC00BB68C268E70EC36EC4680F0E3A01406F4D
:1031DC00000E506F000E606FF00E416F270E516F96
:1031EC006169000E426F040E526F000E626F120086
:1031FC00390191BFA1AF23D0A19FD8903C367F0E4F
:10320C003F01186501D002D0010E01D0000E3C1216
:10321C00000E3D6E000E926E3F2A080E3F18D8A489
:10322C000ED0000E3E24D96EDA6A010EDA2260004E
:10323C00F3F0DFFF000E3C6E000E3F6E3E2A3901AC
:10324C00A9A111003E50D8B403D0010E3D6E02D09E
:10325C008CEC1AF03901A9911100B60E096E000E12
:10326C000A6E000E0B6E04000B500924D96E000E72
:10327C000A20DA6E0B5070EC1AF0DF6E030E0B188E
:10328C00D8A412D0470E0001B6190AE1430EB719A3
:10329C0007E12B0EB81904E1320EB919D8B404D0D9
:1032AC008EEC18F01CEC1AF00B2A170E0B64DBD703
:1032BC001200000ED26E010E3F01386F000EFC6E34
:1032CC00550ED46EAA0ED46E000ED46ED490080E89
:1032DC00D56E000ED66E000ED76E550ED46EAA0E9D
:1032EC00D46E010ED46ED480000EFB6E000EFA6EFE
:1032FC00000EF96E12003D50D8A402D0000E120040
:10330C00000E036E10D0000E0324D96EDA6A010E83
:10331C00DA2203500124E16E000E0220E26E6F00EF
:10332C007FFFE7FF032A3E50035CD8A0ECD73E504A
:10333C001200600004F007F0600008F008F00BD0F9
:10334C0060001FF0D9FF600023F0DAFF60000FF07F
:10335C00DFFF074A082A0506D8A006060528F0E173
:10336C000628D8B41200ECD7000E036ECE0E032440
:10337C00D96EDA6A000EDA22410E0324E16EE26A9B
:10338C00000EE2226F007FFFE7FF032A0E0E03649C
:10339C00EDD7410E016E000E026E1200000E036E90
:1033AC00DD0E0324D96EDA6A000EDA22410E0324F4
:1033BC00E16EE26A000EE2226F007FFFE7FF032A54
:1033CC000E0E0364EDD7410E016E000E026E12005C
:1033DC00000EA06E010EA26E000EA16E9F68000E74
:1033EC009E6E800EA06E3F015E51FC0B02095E6F5B
:1033FC00000E7C6E800E7D6E9C0E7E6E1200015057
:10340C0003026F00CCFF05F06F00D0FF06F00150F7
:10341C000402F350062602500302F3500626600005
:10342C0014F001F0600018F002F01200B60E036EFA
:10343C00000E046E000E056E05500324D96E000EAE
:10344C000420DA6EDF50016E05505EEC1AF0052A8E
:10345C00170E0564F1D71200000E036E0350012401
:10346C00D96E000E0220DA6ECE0E0324E16EE26AF3
:10347C00000EE2226F007FFFE7FF032A0E0E0364AB
:10348C00EDD71200000E036E03500124D96E000E0E
:10349C000220DA6EDD0E0324E16EE26A000EE222F7
:1034AC006F007FFFE7FF032A0E0E0364EDD71200B7
:1034BC00026E000E3901E56F60000BF0E0F9600060
:1034CC0007F0E3F9E5857AEC1AF03901E5B3FDD79D
:1034DC00E5951200016E000E3901E56F600007F0F2
:1034EC00E0F9E581E3511200D29E550E3901E66FE9
:1034FC00AA0EE66FE583D28E1200000E3F6E000E10
:10350C003E6E000E3D6E000E3C6E1200000E3F6EC5
:10351C00000E3E6E000E3D6E000E3C6E1200808062
:10352C0080800000020300011314016EBB88600050
:10353C0007F07DFF1200BB98800E7D6E1200BB88D9
:06354C00600E7D6E12000E
:020000040020DA
:10000000FF0FFF0FFF0FFF0FFF0FFF0FFF0FFF0F80
:020000040030CA
:0A0000008CFDE7F4ECC7E4FEFFFFFF
:00000001FF
