:020000040000FA
:0820000047432B320FEF10F0F3
:04200C00ACEF18F02D
:10201C00FF0052EF17F0010E0001B16F000E846F3C
:10202C00E1EC18F06F0028FFB2F06F002CFFB3F05A
:10203C006F0030FFB4F046EC19F00001CD05D8A4C8
:10204C0003D0210E3A016013600014F32CF06000F1
:10205C0018F32DF060001CF32EF00001C45190EC2D
:10206C0013F031EC18F0A8EC17F00001B3A7B3B5DE
:10207C0006D0B4BF04D071EC18F037EC1AF0E9ECD0
:10208C0016F00001CD5114EC19F0800ED26E6F00D9
:10209C0028FFB2F06F002CFFB3F06F0030FFB4F0EC
:1020AC000001B3A7B3B501D0B2BD040009EC12F026
:1020BC00600E2C6E000E2D6EB3EC19F00001B06F9B
:1020CC00B051D8A46ED1E3D7090E856F000E866F80
:1020DC00030E876F850E326E000E336E030E346E58
:1020EC007DEC16F0D4D76251010AD8A4030A600023
:1020FC0034F32CF0615145EC15F06000B0F032F087
:10210C006000B4F033F0080E346E7DEC16F0BFD7DF
:10211C0094EC19F06000B0F032F06000B4F033F0E1
:10212C000A0E346E7DEC16F0B2D7470E6119D8A4A6
:10213C0012D0430E6219D8A40ED02B0E6319D8A45A
:10214C000AD0320E6419D8A406D0050EB019D8A442
:10215C0002D0000E01D0010EB16F000E0001856F90
:10216C00850E326E000E336E010E346E7DEC16F061
:10217C008ED7B151D8A413D0020E856F100E866F76
:10218C00000E876F100E886F000E896F850E326EF1
:10219C00000E336E050E346E7DEC16F078D7856923
:1021AC00DFD7B151D8A4FBD7030EB06520D06000A7
:1021BC0088F1AEF0AF6BAE51AF6FAE6B6151AE1339
:1021CC00030EB56F0FD0600EB525D96EDA6A000E0E
:1021DC00DA22DF502C6EAE5179EC1AF00001AE4BC6
:1021EC00AF2BB52BB051B55DD8B0B7D7ECD7FE0E31
:1021FC00B6D7B151D8A4D3D7040EB019D8A4F7D7F9
:10220C00600088F1AEF0AF6BAE51AF6FAE6B615149
:10221C00AE1360008CF1ADF0AD51D8B4E8D7000E20
:10222C00856F000EB56F15D0B5514F6E506A010E0B
:10223C004F26000E5022850E4F24D96E000E5020D2
:10224C00DA6EAE518BEC1AF0DF6E0001AE4BAF2B99
:10225C00B52BAD51B55DD8B003D01F0EB565E4D725
:10226C00850E326E000E336EAD29346E7DEC16F099
:10227C000ED7FF000CD7B151D8A491D7000E856FA3
:10228C00850E326E000E336E010E346E7DEC16F040
:10229C0072EC19F0FCD6B151D8A481D7100EB0193C
:1022AC00D8A4A5D7610E2C6E000E2D6E63EC1AF01F
:1022BC0054D7B151D8A473D7100EB019D8A497D74E
:1022CC00610E2C6E000E2D6E4DEC1AF046D7B151EE
:1022DC00D8A465D706EC1AF06000B0F0A9F0600045
:1022EC00B4F0AAF0000E0001856F000EB56F0E0E53
:1022FC00B56501D018D0B551A925D96E000EAA210B
:10230C00DA6EB5514F6E506A010E4F26000E5022F8
:10231C00850E4F24E16E000E5020E26E6F007FFFA1
:10232C00E7FFB52BE4D7850E326E000E336E100E20
:10233C00346E7DEC16F0ABD6B151D8A430D7ECECA2
:10234C0019F06000B0F0ABF06000B4F0ACF0000E2F
:10235C000001856F000EB56F0E0EB56501D0E3D789
:10236C00B551AB25D96E000EAC21DA6EB5514F6E5E
:10237C00506A010E4F26000E5022850E4F24E16E3E
:10238C00000E5020E26E6F007FFFE7FFB52BE4D705
:10239C00B151D8A404D7E9EC16F0DFD69EEC1AF0B4
:1023AC0076D66051000AD8B48FD6100AD8B4BDD6F0
:1023BC00010AD8B4DED6030AD8B4F3D6010AD8B4CD
:1023CC0018D7070AD8B455D7010AD8B454D7030A7A
:1023DC00D8B461D7010AD8B46CD70F0AD8B477D760
:1023EC00010AD8B4A9D7390AD8B4D2D7600AD8B45C
:1023FC007AD6010AD8B48CD6030AD8B489D6BD0AC9
:10240C00D8B462D6CBD76F0028FF2CF06F002CFF0E
:10241C002DF06F0030FF2EF01A502C18306E1B5020
:10242C002D18316E1C502E18326E6000B0F01AF060
:10243C006000B4F01BF06000B8F01CF032AE02D0BB
:10244C00000E016E32AC02D0000E026E31A602D02C
:10245C00000E036E31A402D0000E046E30AC02D01C
:10246C00000E056E30A602D0000E066E30AA02D009
:10247C00000E076E30AE02D0000E086E30A802D0EF
:10248C00000E096E31A002D0000E0A6E31A202D0ED
:10249C00000E0B6E30A402D0000E0C6E32A002D0D7
:1024AC00000E0D6E32AA02D0000E0E6E31AA02D0B2
:1024BC00000E0F6E3901A3AF1200A39F000E2F6EFA
:1024CC00010E2F24D96EDA6A000EDA22DF2A2F2AA7
:1024DC000E0E2F64F5D7000E166E800E176E090EB9
:1024EC00016407D01CBE05D00A0E016E0001DD513F
:1024FC001612090E016407D01CBE05D00A0E016E1F
:10250C000001CE511712090E026407D01CBC05D075
:10251C000A0E026E0001DE511612090E026407D07B
:10252C001CBC05D00A0E026E0001CF511712090E09
:10253C00036407D01BB605D00A0E036E0001DF51F1
:10254C001612090E036407D01BB605D00A0E036ED3
:10255C000001D0511712090E046407D01BB405D02A
:10256C000A0E046E0001E0511612090E046407D025
:10257C001BB405D00A0E046E0001D1511712090EBE
:10258C00056407D01ABC05D00A0E056E0001E15196
:10259C001612090E056407D01ABC05D00A0E056E7A
:1025AC000001D2511712090E066407D01AB605D0D5
:1025BC000A0E066E0001E2511612090E066407D0CF
:1025CC001AB605D00A0E066E0001D3511712090E69
:1025DC00076407D01ABA05D00A0E076E0001E35142
:1025EC001612090E076407D01ABA05D00A0E076E28
:1025FC000001D4511712090E086407D01ABE05D079
:10260C000A0E086E0001E4511612090E086407D078
:10261C001ABE05D00A0E086E0001D5511712090E0C
:10262C00096407D01AB805D00A0E096E0001E551ED
:10263C001612090E096407D01AB805D00A0E096ED5
:10264C000001D6511712090E0A6407D01BB005D031
:10265C000A0E0A6E0001E6511612090E0A6407D022
:10266C001BB005D00A0E0A6E0001D7511712090EC5
:10267C000B6407D01BB205D00A0E0B6E0001E7519C
:10268C001612090E0B6407D01BB205D00A0E0B6E86
:10269C000001D8511712090E0C6407D01AB405D0DA
:1026AC000A0E0C6E0001E8511612090E0C6407D0CC
:1026BC001AB405D00A0E0C6E0001D9511712090E6E
:1026CC000F6407D01BBA05D00A0E0F6E0001EB5138
:1026DC001612090E0F6407D01BBA05D00A0E0F6E26
:1026EC000001DC511712090E0D6408D00A0E0D6E94
:1026FC001CA003D0000E186E01D01868090E0E64D1
:10270C0012000A0E0E6E1CAA03D0000E196E1200D7
:10271C0019681200336E800E3E01F86F000EF96FCF
:10272C00030EFA6FFA518F0B6009FA6F070EFB6FED
:10273C003F0EFF6F000EFD6FF369040EEC6F1D0E64
:10274C00FE6FD78FD7A1FED76000CCF057F060009A
:10275C00B0F058F06000B4F059F06000B8F05AF0E6
:10276C003901A197000E346E570E3424D96EDA6AF3
:10277C00000EDA22DF503E01F16F3901A1A7FDD71F
:10278C00A197510E3424D96EDA6A000EDA226F004A
:10279C009BFBDFFF342A050E3464E6D73901550E56
:1027AC00EF6FAA0EEF6FEF81570E2F6E000E306E8B
:1027BC00316A326A110E05D0D89032323132303251
:1027CC002F32E82EF9D72F503B01FB6F570E2F6E8F
:1027DC00000E306E316A326A6000C0F02FF060007B
:1027EC00C4F030F06000C8F031F0326A2F50FA6F4C
:1027FC00570EF96FF10E2F6E3E0E306E316A326A43
:10280C006000C0F02FF06000C4F030F06000C8F041
:10281C0031F0326A2F50F16FF10EF06F000EF86F3D
:10282C00060EF76F000EEF6F010EEE6F2A0EFF6FA4
:10283C003F0EFD17FD9BE70EFD17FD51F90B02092D
:10284C00FD6FFD91C00EFC6F000EDB6FE60E2F6E60
:10285C003E0E306E316A326A6000C0F02FF06000BC
:10286C00C4F030F06000C8F031F0326A2F50DA6FEB
:10287C00E60ED96F510E2F6E000E306E316A326A31
:10288C006000C0F02FF06000C4F030F06000C8F0C1
:10289C0031F0326A2F50D16F510ED06F000ED86FBD
:1028AC00010ED76F000ECF6F060ECE6F0B0EDF6FC3
:1028BC00DD513F0B4009DD6FDD9BE70EDD17F90E97
:1028CC00DD17DD91C00EDC6FFC8B12003C503D5CC3
:1028DC00326E336AD8A03306000E356E020E346E9B
:1028EC00EDEC17F06000C8F047F06000CCF048F059
:1028FC00000E4C6E000E4B6E3E504B5C4D6E4C50B1
:10290C00D8A04C044E6E4150D8B404D04D6C4E1E21
:10291C00D8B04E2A4EAE11D0600034F142F06000B7
:10292C0038F143F0421E431E424A432A600008F12C
:10293C0045F060000CF146F006D0600034F145F033
:10294C00600038F146F03F50426E436A4250455C9D
:10295C004650800A446E4350800A4458D8B009D07F
:10296C004B503A24D96E4C503B20DA6E800EDF6E01
:10297C007ED04050D8A41BD0600034F12CF0600005
:10298C0038F12DF0000E2F6E7F0E2E6E20EC1AF00B
:10299C006000B0F032F06000B4F033F060001CF175
:1029AC0034F0600020F135F0EDEC17F03FD04EBE66
:1029BC0022D04E5003E14D04D8A01DD03F504D5CA9
:1029CC002C6E4E50D8A04E042D6E000E2F6E7F0E26
:1029DC002E6E20EC1AF06000B0F032F06000B4F013
:1029EC0033F03F50475C346E4850D8A04804356EE5
:1029FC00EDEC17F01BD03F504D242C6E000E4E20EA
:102A0C002D6E000E2F6E7F0E2E6E20EC1AF06000D5
:102A1C00B0F032F06000B4F033F03F50475C346EED
:102A2C004850D8A04804356EEDEC17F06000C8F0A3
:102A3C0049F06000CCF04AF0800E4926000E4A2284
:102A4C004AAE04D0000E4A6E000E496E4ABE06D045
:102A5C004A04D8A003D0000E4A6E49684B503A2461
:102A6C00D96E4C503B20DA6E600027F1DFFF4B4AE9
:102A7C004C2A4CBE41D74C04D8B012003DD72F6E17
:102A8C00600058F022F060005CF023F0000E51243E
:102A9C00D96EDA6A040EDA22DF50246E000E52244C
:102AAC00D96EDA6A050EDA22DF50256E2C50D8A4C6
:102ABC0007D0600064F030F0600060F031F088D036
:102ACC00600054F130F0600058F131F081D0000E0C
:102ADC005324D96EDA6A020EDA22DF50266E000E0B
:102AEC005424D96EDA6A030EDA22DF50276E6000A6
:102AFC00C0F02EF02E3A0F0E2E163150F00B2E1079
:102B0C00286E000E296E7DD0000E5424D96EDA6A20
:102B1C00030EDA22DF502E6E2E3A0F0E2E16000EFA
:102B2C005324D96EDA6A020EDA22DF50F00B2E1023
:102B3C00266E6000C4F027F06000C0F028F0E1D7EA
:102B4C00000E5424D96EDA6A030EDA22DF502E6E90
:102B5C002E3A0F0E2E16000E5324D96EDA6A020E80
:102B6C00DA22DF50F00B2E10266E6000C0F02EF033
:102B7C002E3A0F0E2E163150F00B2E10276E000E23
:102B8C00BFD7000E5324D96EDA6A020EDA22DF5058
:102B9C00266E000E5424D96EDA6A030EDA22DF5048
:102BAC00276E6000C4F028F06000C0F029F029D036
:102BBC00000E5324D96EDA6A020EDA22DF50266E2A
:102BCC00000E5424D96EDA6A030EDA22DF50D6D7FF
:102BDC002F50000AD8B47BD7010AD8B495D7030A72
:102BEC00D8B4AED7010AD8B4CCD7070AD8B4E0D73A
:102BFC00010AD8B46CD7030AD8B469D7010AD8B47F
:102C0C0066D7220E2C6E000E2D6E1200000EAC6ECE
:102C1C00010EAE6E040EAD6E120EAF6E1F0EAB6ECD
:102C2C00000EAA6E800EAC6E0F0E6D6E000E6C6EEA
:102C3C00800E6E6E000E3C01756F180E766F050ED1
:102C4C00776F000E786F000E796F080E7A6F020E98
:102C5C007B6F000E7C6F000E7D6F840E746F000E08
:102C6C006B6F2C0E6C6F050E6D6F000E6E6F000E81
:102C7C006F6F080E706F010E716F000E726F000E89
:102C8C00736F840E6A6F000E616F240E626F180EE4
:102C9C00636F2B0E646F2C0E656F020E666F040E45
:102CAC00676F900E686F600E696F820E606F040E16
:102CBC00576F260E586F2C0E596F250E5A6F000E3B
:102CCC005B6F020E5C6F000E5D6F140E5E6F000E7C
:102CDC005F6F830E566F050E3D011C6F000E196F52
:102CEC00000E156F020E166F820E146F12003F014C
:102CFC001F9F3D0117ABFDD7C398000E206E000E31
:102D0C001F6E000E1E6E000E1D6E010EAA6E010EC1
:102D1C00186F1A9F6000D3F012FD3404D8A40BD0A6
:102D2C006000CBF0D9FF6000CFF0DAFFDF50116FFD
:102D3C00800E116F3FD06000CBF0D9FF6000CFF058
:102D4C00DAFFDF50116F20EE01F03250D9263350EC
:102D5C00DA22DF50116F3450FE0F3B6E020E3A6ECA
:102D6C0027D06000ECF035F0366A35BE3606020E20
:102D7C003526000E36221251376E386A3550375CC4
:102D8C003850800A396E3650800A3958D8B010D075
:102D9C003B50D8A403D0800E116F09D03A50322486
:102DAC00D96E000E3320DA6EDF50116F3A2A3B06D3
:102DBC003BAED7D71AAFFED717ABFED71A9F3F0142
:102DCC001F8FC3881200000E3A6E040E3B6E60001B
:102DDC00F0F23CF06000F4F23DF0600044F13EF0A3
:102DEC00600024F33FF060002CF340F00001000E73
:102DFC00C8B1010E416E6CEC14F0000E3A6E050E6B
:102E0C003B6E6000F8F23CF06000FCF23DF06000BC
:102E1C0048F13EF0600024F33FF060002CF340F0EA
:102E2C000001000EC8B3010E416E6CEC14F0000EE4
:102E3C003A6E020E3B6E600000F33CF0600004F34F
:102E4C003DF060004CF13EF0600028F33FF0600074
:102E5C002CF340F00001000EC8B5010E416E6CEC75
:102E6C0014F0000E3A6E030E3B6E600008F33CF05B
:102E7C0060000CF33DF0600050F13EF0600028F370
:102E8C003FF060002CF340F00001000EC8B7010EBB
:102E9C00416E6CEC14F01200600EF66E350EF76E8F
:102EAC00000EF86E00EE51F010EE0CF009006F0001
:102EBC00D7FFEEFFE550E150F9E101EE00F110EE25
:102ECC0000F1EE6AE550E150FCE1E250FAE101EE6E
:102EDC0000F010EE00F1EE6AE550E150FCE1E2503A
:102EEC00FAE100EE00F310EE00F1EE6AE550E1506D
:102EFC00FCE1E250FAE100EE00F210EE00F1EE6AB5
:102F0C00E550E150FCE1E250FAE100EE00F1240E54
:102F1C00EE6AE806FDE100EEB6F0360EEE6AE80663
:102F2C00FDE100EE01F02B0EEE6AE806FDE10C0E61
:102F3C00D56E200ED66E000ED76E000EF86E000108
:102F4C0011EF10F0000E946E010E966E000E976E3F
:102F5C00000E926E500E936E050E956E3901A9916E
:102F6C009981000EAC6E010EAE6E000EAF6E000EAF
:102F7C00AA6E7D0EAB6EA495F00EAC6E04D0CBB8E1
:102F8C0002D0000EAA6EA4A5FAD7550E3F015F6FB2
:102F9C000CEC16F0800E946E3F011B691C691D69C8
:102FAC00000E126F000E136F000E146F880E1E6F42
:102FBC00430E1F6F010E216F000E236F000E226F48
:102FCC003901A19F818F918F3F011F8F1200000E3D
:102FDC00376E35AE06D0346C351ED8B0352A010E9E
:102FEC00376E33AE06D0326C331ED8B0332A010E96
:102FFC00371A000E396E000E386E34503510D8B4B6
:10300C001CD0010E366E04D0D89034363536362AA4
:10301C0035AEFAD7D890383639363450325C355014
:10302C003358D8A005D03450325E3550335A3880DE
:10303C00D89035323432362EEDD73750D8B404D040
:10304C00386C391ED8B0392A6000E0F032F06000DC
:10305C00E4F033F01200000EB86E470EB96E7C0E21
:10306C00B76E3901A39F800EB86EDD0E2C6E000E6C
:10307C002D6E000E2F6E000E2E6E000E316E0F0E8A
:10308C00306ED1EC19F0CE0E2C6E000E2D6E000EA3
:10309C002F6E000E2E6E000E316E0F0E306ED1ECB8
:1030AC0019F0010E0001DD6F020EDE6F040EDF6FF2
:1030BC00080EE06F100EE16F010ED36F020ED46F8D
:1030CC00040ED56F080ED66F100ED76F200ED86F6A
:1030DC00400ED96F1200B60E2C6E000E2D6E000E27
:1030EC002F6E000E2E6E000E316E180E306ED1EC5F
:1030FC0019F0470E0001B66F430EB76F2B0EB86F69
:10310C00320EB96F000EBB6F100EBA6F000EBC6F93
:10311C00BD69000EBE6FBF69000EC06FC169000EA5
:10312C00C26FC369110EC46F120EC56F130EC66F3A
:10313C00140EC76F000EC86F180EC96F180ECA6F29
:10314C00010ECB6FCC69010ECD6F1200390191BF0E
:10315C00A1AF23D0A19FD8901D367F0E3F011865DB
:10316C0001D002D0010E01D0000E1D12000E1E6EF9
:10317C00000E926E202A080E2018D8A40ED0000E35
:10318C001F24D96EDA6A010EDA22600077F0DFFFB5
:10319C00000E1D6E000E206E1F2A3901A9A1110010
:1031AC001F50D8B403D0010E1E6E02D0A7EC1AF03B
:1031BC003901A9911100000ED2BE010E2C6ED29EC7
:1031CC00550E3A01BF6FAA0EBF6FBF910C0ECC6F9C
:1031DC000C0ED26F040E0C6F550EBF6FAA0EBF6F84
:1031EC00BF812CA002D0D28E01D0D29EBB68C26807
:1031FC00C368C468030E3A01406F000E506F1E0E78
:10320C00606FFC0E416F3F0E516FE10E616F000E4F
:10321C00426F100E526F000E626F12002C6E000E79
:10322C005124D96EDA6A040EDA22DF50106E000EC9
:10323C005224D96EDA6A050EDA22DF50116E000EB6
:10324C005324D96EDA6A020EDA22DF50126E000EA7
:10325C005424D96EDA6A030EDA22DF50136E2C5026
:10326C00D8A407D0600060F014F0600064F015F092
:10327C001200600058F114F0600054F115F01200C7
:10328C00B60E346E000E356E000E366E04003650DF
:10329C003424D96E000E3520DA6E36508BEC1AF0D1
:1032AC00DF6E030E3618D8A412D0470E0001B619E3
:1032BC000AE1430EB71907E12B0EB81904E1320EDF
:1032CC00B919D8B404D071EC18F037EC1AF0362ACE
:1032DC00170E3664DBD71200000ED26E010E3F01C2
:1032EC00386F000EFC6E550ED46EAA0ED46E000E06
:1032FC00D46ED490080ED56E000ED66E000ED76E1E
:10330C00550ED46EAA0ED46E010ED46ED480000E5F
:10331C00FB6E000EFA6E000EF96E1200000E226E9D
:10332C00000E236E600040F024F0600044F025F0A5
:10333C00600048F026F060004CF027F0600050F080
:10334C0028F0600054F029F0020E2A6E020E2B6E4B
:10335C00220E2C6E000E2D6E12001E50D8A402D020
:10336C00000E1200000E2E6E10D0000E2E24D96E00
:10337C00DA6A010EDA222E502C24E16E000E2D207A
:10338C00E26E6F007FFFE7FF2E2A1F502E5CD8A045
:10339C00ECD71F5012006000B0F032F06000B4F0B7
:1033AC0033F00BD06000CBF0D9FF6000CFF0DAFF28
:1033BC006000BBF0DFFF324A332A3006D8A031065A
:1033CC003028F0E13128D8B41200ECD7000E2E6E64
:1033DC00CE0E2E24D96EDA6A000EDA22220E2E249C
:1033EC00E16EE26A000EE2226F007FFFE7FF2E2AF9
:1033FC000E0E2E64EDD7220E2C6E000E2D6E1200CA
:10340C00000E2E6EDD0E2E24D96EDA6A000EDA2234
:10341C00220E2E24E16EE26A000EE2226F007FFF84
:10342C00E7FF2E2A0E0E2E64EDD7220E2C6E000E08
:10343C002D6E12002C502E026F00CCFF30F06F005E
:10344C00D0FF31F02C502F02F35031262D502E028C
:10345C00F35031266000C0F02CF06000C4F02DF069
:10346C001200B60E2E6E000E2F6E000E306E305007
:10347C002E24D96E000E2F20DA6EDF502C6E3050B9
:10348C0079EC1AF0302A170E3064F1D71200000EC6
:10349C002E6E2E502C24D96E000E2D20DA6ECE0EF0
:1034AC002E24E16EE26A000EE2226F007FFFE7FF3E
:1034BC002E2A0E0E2E64EDD71200000E2E6E2E50FC
:1034CC002C24D96E000E2D20DA6EDD0E2E24E16E2A
:1034DC00E26A000EE2226F007FFFE7FF2E2A0E0E3B
:1034EC002E64EDD712002D6E000E3901E56F6000D1
:1034FC00B7F0E0F96000B3F0E3F9E58595EC1AF06C
:10350C003901E5B3FDD7E59512002C6E000E39019B
:10351C00E56F6000B3F0E0F9E581E3511200D29E53
:10352C00550E3901E66FAA0EE66FE583D28E1200B6
:10353C00000E206E000E1F6E000E1E6E000E1D6E15
:10354C001200000E206E000E1F6E000E1E6E000E7E
:10355C001D6E120080808080000011121314151053
:020000040020DA
:10000000FF0FFF0FFF0FFF0FFF0FFF0FFF0FFF0F80
:020000040030CA
:0A0000008CFDE7F4ECC7E4FEFFFFFF
:00000001FF
