:020000040000FA
:0820000047432B320FEF10F0F3
:04200C0002EF37F0B8
:10201C00FF006AEF37F00000000000000000000035
:10202C0000000000000000000000000000008080A4
:10203C008080808080808080808080808080808094
:10204C008080808080808080808080808080808084
:10205C008080808080808080808080808080808074
:10206C008080808080808080808080808080808064
:10207C008080808080808080808080808080808054
:10208C008080808080808080808080808080808044
:10209C0080808080808080000000000000000000B4
:1020AC000000000000000000000000000000808024
:1020BC008080808080808080808080808080808014
:1020CC008080808080808080808080808080808004
:1020DC0080808080808080808080808080808080F4
:1020EC0080808080808080808080808080808080E4
:1020FC0080808080808080808080808080808080D4
:10210C0080808080808080808080808080808080C3
:10211C008080808080808000000000000000000033
:10212C0000000000000000000000000000008080A3
:10213C008080808080808080808080808080808093
:10214C008080808080808080808080808080808083
:10215C008080808080808080808080808080808073
:10216C008080808080808080808080808080808063
:10217C008080808080808080808080808080808053
:10218C008080808080808080808080808080808043
:10219C0080808080808080000000000000000000B3
:1021AC000000000000000000000000000000808023
:1021BC008080808080808080808080808080808013
:1021CC008080808080808080808080808080808003
:1021DC0080808080808080808080808080808080F3
:1021EC0080808080808080808080808080808080E3
:1021FC0080808080808080808080808080808080D3
:10220C0080808080808080808080808080808080C2
:10221C008080808080808000000000000000000032
:10222C0000000000000000000000000000008080A2
:10223C008080808080808080808080808080808092
:10224C008080808080808080808080808080808082
:10225C008080808080808080808080808080808072
:10226C008080808080808080808080808080808062
:10227C008080808080808080808080808080808052
:10228C008080808080808080808080808080808042
:10229C0080808080808080000000000000000000B2
:1022AC000000000000000000000000000000808022
:1022BC008080808080808080808080808080808012
:1022CC008080808080808080808080808080808002
:1022DC0080808080808080808080808080808080F2
:1022EC0080808080808080808080808080808080E2
:1022FC0080808080808080808080808080808080D2
:10230C0080808080808080808080808080808080C1
:10231C008080808080808000000000000000000031
:10232C0000000000000000000000000000008080A1
:10233C008080808080808080808080808080808091
:10234C008080808080808080808080808080808081
:10235C008080808080808080808080808080808071
:10236C008080808080808080808080808080808061
:10237C008080808080808080808080808080808051
:10238C008080808080808080808080808080808041
:10239C0080808080808080000000000000000000B1
:1023AC0000000000000000000000000000808080A1
:1023BC008080808080808080808080808080808011
:1023CC008080808080808080808080808080808001
:1023DC0080808080808080808080808080808080F1
:1023EC0080808080808080808080808080808080E1
:1023FC0080808080808080808080808080808080D1
:10240C0080808080808080808080808080808080C0
:10241C008080808080808000000000000000000030
:10242C000000000000000000000000000080808020
:10243C008080808080808080808080808080808090
:10244C008080808080808080808080808080808080
:10245C00808080808080808080808080808282826A
:10246C008282828280808080808080808080808058
:10247C008080808080808080808080808080808050
:10248C008080808080808080808080808080808040
:10249C0080808080808080000000000000000000B0
:1024AC0000000000000000000000000000808080A0
:1024BC008080808080808080808080808080808010
:1024CC008080808080808080808080808080808000
:1024DC0080808080808080808080808080828282EA
:1024EC0082828282828282828282828282808080C6
:1024FC0080808080808080808080808080808080D0
:10250C0080808080808080808080808080808080BF
:10251C00808080808080800000000000000000002F
:10252C00000000000000000000000000808080809F
:10253C00808080808080808080808080808080808F
:10254C00808080808080808080808080808080807F
:10255C008080808080808080808080808082828269
:10256C00828282828282828282828282828282823F
:10257C008282828282828280808080808080808041
:10258C00808080808080808080808080808080803F
:10259C0080808080808080000000000000000000AF
:1025AC00000000000000000000000000808080801F
:1025BC00808080808080808080808080808080800F
:1025CC0080808080808080808080808080808080FF
:1025DC0080808080808080808080808080828282E9
:1025EC0082828282828282828282828282828282BF
:1025FC0082828282828282828282828282828282AF
:10260C0080808080808080808080808080808080BE
:10261C00808080808080800000000000000000002E
:10262C00000000000000000000000040808080805E
:10263C00808080808080808080808080808080808E
:10264C00808080808080808080808080808080807E
:10265C008080808080808080808080808282828266
:10266C00828282828282828282828282828282823E
:10267C00828282828282828282828282828282822E
:10268C00828282828282828282828080808080802A
:10269C0080808080808080000000000000000000AE
:1026AC00000000000000000000004040404080801E
:1026BC00808080808080808080808080808080800E
:1026CC0080808080808080808080808080808080FE
:1026DC0080808080808080808080808082828282E6
:1026EC0082828282828282828282828282828282BE
:1026FC0082828282828282828282828282828282AE
:10270C00828282828282828282828282828282829D
:10271C008282828080808000000000000000000027
:10272C00000000000000000000004040404040401D
:10273C00808080808080808080808080808080808D
:10274C00808080808080808080808080808080807D
:10275C008080808080808080808080808282828265
:10276C00828282828282828282828282828282823D
:10277C00828282828282828282828282828282822D
:10278C00828282828282828282828282828282821D
:10279C00828282828282820000000000000000009F
:1027AC00000000000000000000404040404040405D
:1027BC00408080808080808080808080808080804D
:1027CC0080808080808080808080808080808080FD
:1027DC0080808080808080808080808082828282E5
:1027EC0082828282828282828282828282828282BD
:1027FC0082828282828282828282828282828282AD
:10280C00828282828282828282828282828282829C
:10281C00828282828282820000000000000000001E
:10282C00000000000000000040404040404040409C
:10283C00404040808080808080808080808080804C
:10284C00808080808080808080808080808080807C
:10285C008080808080808080808080808282828264
:10286C00828282828282828282828282828282823C
:10287C00828282828282828282828282828282822C
:10288C00828282828282828282828282828282821C
:10289C00828282828282820000000000000000009E
:1028AC0000000000000000404040404040404040DC
:1028BC00404040404080808080808080808080804C
:1028CC0080808080808080808080808080808080FC
:1028DC0080808080808080808080808282828282E2
:1028EC0082828282828282828282828282828282BC
:1028FC0082828282828282828282828282828282AC
:10290C00828282828282828282828282828282829B
:10291C00828282828282820000000000000000001D
:10292C00000000000000404040404040404040401B
:10293C00404040404040408080808080808080804B
:10294C00808080808080808080808080808080807B
:10295C008080808080808080808080828282828261
:10296C00828282828282828282828282828282823B
:10297C00828282828282828282828282828282822B
:10298C00828282828282828282828282828282821B
:10299C00828282828282820000000000000000009D
:1029AC00000000004040404040404040404040401B
:1029BC00404040404040404080808080808080800B
:1029CC0080808080808080808080808080808080FB
:1029DC0080808080808080808080808282828282E1
:1029EC0082828282828282828282828282828282BB
:1029FC0082828282828282828282828282828282AB
:102A0C00828282828282828282828282828282829A
:102A1C00828282828282820000000000000000001C
:102A2C00000000404040404040404040404040405A
:102A3C00404040404040404040408080808080800A
:102A4C00808080808080808080808080808080807A
:102A5C008080808080808080808080828282828260
:102A6C00828282828282828282828282828282823A
:102A7C00828282828282828282828282828282822A
:102A8C00828282828282828282828282828282821A
:102A9C00828282828282820000000000000000009C
:102AAC00004040404040404040404040404040405A
:102ABC00404040404040404040404040808080800A
:102ACC0080808080808080808080808080808080FA
:102ADC0080808080808080808080828282828282DE
:102AEC0082828282828282828282828282828282BA
:102AFC0082828282828282828282828282828282AA
:102B0C008282828282828282828282828282828299
:102B1C00828282828282820000000000000040409B
:102B2C004040404040404040404040404040404099
:102B3C004040404040404040404040404040808009
:102B4C008080808080808080808080808080808079
:102B5C00808080808080808080808282828282825D
:102B6C008282828282828282828282828282828239
:102B7C008282828282828282828282828282828229
:102B8C008282828282828282828282828282828219
:102B9C00828282828282824040404040404040405B
:102BAC004040404040404040404040404040404019
:102BBC0040404040404040404040404040404080C9
:102BCC0080808080808080808080808080808080F9
:102BDC0080808080808080808080828282828282DD
:102BEC0082828282828282828282828282828282B9
:102BFC0082828282828282828282828282828282A9
:102C0C008282828282828282828282828282828298
:102C1C0082828282828282404040404040404040DA
:102C2C004040404040404040404040404040404098
:102C3C004040404040404040404040404040404088
:102C4C0040808080808080808080808080808080B8
:102C5C00808080808080808080828282828282825A
:102C6C008282828282828282828282828282828238
:102C7C008282828282828282828282828282828228
:102C8C008282828282828282828282828282828218
:102C9C00828282828282824040404040404040405A
:102CAC004040404040404040404040404040404018
:102CBC004040404040404040404040404040404008
:102CCC0040404080808080808080808080808080B8
:102CDC0080808080808080808082828282828282DA
:102CEC0082828282828282828282828282828282B8
:102CFC0082828282828282828282828282828282A8
:102D0C008282828282828282828282828282828297
:102D1C0082828282828282404040404040404040D9
:102D2C004040404040404040404040404040404097
:102D3C004040404040404040404040404040404087
:102D4C0040404040408080808080808080808080B7
:102D5C008080808080808080828282828282828257
:102D6C008282828282828282828282828282828237
:102D7C008282828282828282828282828282828227
:102D8C008282828282828282828282828282828217
:102D9C008282828282828240404040404040404059
:102DAC004040404040404040404040404040404017
:102DBC004040404040404040404040404040404007
:102DCC004040404040408080808080808080808077
:102DDC0080808080808080808282828282828282D7
:102DEC0082828282828282828282828282828282B7
:102DFC0082828282828282828282828282828282A7
:102E0C008282828282828282828282828282828296
:102E1C0082828282828282404040404040404040D8
:102E2C004040404040404040404040404040404096
:102E3C004040404040404040404040404040404086
:102E4C004040404040404040808080808080808076
:102E5C008080808080808080828282828282828256
:102E6C008282828282828282828282828282828236
:102E7C008282828282828282828282828282828226
:102E8C008282828282828282828282828282828216
:102E9C008282828282828240404040404040404058
:102EAC004040404040404040404040404040404016
:102EBC004040404040404040404040404040404006
:102ECC004040404040404040404080808080808076
:102EDC0080808080808080828282828282828282D4
:102EEC0082828282828282828282828282828282B6
:102EFC0082828282828282828282828282828282A6
:102F0C008282828282828282828282828282828295
:102F1C0082828282828282404040404040404040D7
:102F2C004040404040404040404040404040404095
:102F3C004040404040404040404040404040404085
:102F4C004040404040404040404040808080808035
:102F5C008080808080808082828282828282828253
:102F6C008282828282828282828282828282828235
:102F7C008282828282828282828282828282828225
:102F8C008282828282828282828282828282828215
:102F9C008282828282828240404040404040404057
:102FAC004040404040404040404040404040404015
:102FBC004040404040404040404040404040404005
:102FCC004040404040404040404040404080808035
:102FDC0080808080808082828282828282828282D1
:102FEC0082828282828282828282828282828282B5
:102FFC0082828282828282828282828282828282A5
:10300C008282828282828282828282828282828294
:10301C0082828282828282404040404040404040D6
:10302C004040404040404040404040404040404094
:10303C004040404040404040404040404040404084
:10304C004040404040404040404040404040408034
:10305C008080808080808282828282828282828250
:10306C008282828282828282828282828282828234
:10307C008282828282828282828282828282828224
:10308C008282828282828282828282828282828214
:10309C008282828282828240404040404040404056
:1030AC004040404040404040404040404040404014
:1030BC004040404040404040404040404040404004
:1030CC0040404040404040404040404040404040F4
:1030DC00408080808082828282828282828282820E
:1030EC0082828282828282828282828282828282B4
:1030FC0082828282828282828282828282828282A4
:10310C008282828282828282828282828282828293
:10311C0082828282828282404040404040404040D5
:10312C004040404040404040404040404040404093
:10313C004040404040404040404040404040404083
:10314C004040404040404040404040404040404073
:10315C0040408080808282828282828282828282CD
:10316C008282828282828282828282828282828233
:10317C008282828282828282828282828282828223
:10318C008282828282828282828282828282828213
:10319C008282828282828240404040404040404055
:1031AC004040404040404040404040404040404013
:1031BC004040404040404040404040404040404003
:1031CC0040404040404040404040404040404040F3
:1031DC0040404040828282828282828282828282CB
:1031EC0082828282828282828282828282828282B3
:1031FC0082828282828282828282828282828282A3
:10320C008282828282828282828282828282828292
:10321C0082828282828282404040404040404040D4
:10322C004040404040404040404040404040404092
:10323C004040404040404040404040404040404082
:10324C004040404040404040404040404040404072
:10325C0040404040404082828282828282828282CE
:10326C008282828282828282828282828282828232
:10327C008282828282828282828282828282828222
:10328C008282828282828282828282828282828212
:10329C008282828282828240404040404040404054
:1032AC004040404040404040404040404040404012
:1032BC004040404040404040404040404040404002
:1032CC0040404040404040404040404040404040F2
:1032DC0040404040404040408282828282828282D2
:1032EC0082828282828282828282828282828282B2
:1032FC0082828282828282828282828282828282A2
:10330C008282828282828282828282828282828291
:10331C0082828282828282404040404040404040D3
:10332C004040404040404040404040404040404091
:10333C004040404040404040404040404040404081
:10334C004040404040404040404040404040404071
:10335C004040404040404040408282828282828293
:10336C008282828282828282828282828282828231
:10337C008282828282828282828282828282828221
:10338C008282828282828282828282828282828211
:10339C008282828282828240404040404040404053
:1033AC004040404040404040404040404040404011
:1033BC004040404040404040404040404040404001
:1033CC0040404040404040404040404040404040F1
:1033DC004040404040404040404040828282828297
:1033EC0082828282828282828282828282828282B1
:1033FC0082828282828282828282828282828282A1
:10340C008282828282828282828282828282828290
:10341C0082828282828282404040404040404040D2
:10342C004040404040404040404040404040404090
:10343C004040404040404040404040404040404080
:10344C004040404040404040404040404040404070
:10345C00404040404040404040404040408282829A
:10346C008282828282828282828282828282828230
:10347C008282828282828282828282828282828220
:10348C008282828282828282828282828282828210
:10349C008282828282828240404040404040404052
:1034AC004040404040404040404040404040404010
:1034BC004040404040404040404040404040404000
:1034CC0040404040404040404040404040404040F0
:1034DC00404040404040404040404040404040829E
:1034EC0082828282828282828282828282828282B0
:1034FC0082828282828282828282828282828282A0
:10350C00828282828282828282828282828282828F
:10351C0082828282828282404040404040404040D1
:10352C00404040404040404040404040404040408F
:10353C00404040404040404040404040404040407F
:10354C00404040404040404040404040404040406F
:10355C00404040404040404040404040404040405F
:10356C00828282828282828282828282828282822F
:10357C00828282828282828282828282828282821F
:10358C00828282828282828282828282828282820F
:10359C008282828282828240404040404040404051
:1035AC00404040404040404040404040404040400F
:1035BC0040404040404040404040404040404040FF
:1035CC0040404040404040404040404040404040EF
:1035DC0040404040404040404040404040404040DF
:1035EC004040828282828282828282828282828233
:1035FC00828282828282828282828282828282829F
:10360C00828282828282828282828282828282828E
:10361C0082828282828282404040404040404040D0
:10362C00404040404040404040404040404040408E
:10363C00404040404040404040404040404040407E
:10364C00404040404040404040404040404040406E
:10365C00404040404040404040404040404040405E
:10366C004040404082828282828282828282828236
:10367C00828282828282828282828282828282821E
:10368C00828282828282828282828282828282820E
:10369C008282828282828240404040404040404050
:1036AC00404040404040404040404040404040400E
:1036BC0040404040404040404040404040404040FE
:1036CC0040404040404040404040404040404040EE
:1036DC0040404040404040404040404040404040DE
:1036EC0040404040408282828282828282828282F8
:1036FC00828282828282828282828282828282829E
:10370C00828282828282828282828282828282828D
:10371C0082828282828282404040404040404040CF
:10372C00404040404040404040404040404040408D
:10373C00404040404040404040404040404040407D
:10374C00404040404040404040404040404040406D
:10375C00404040404040404040404040404040405D
:10376C0040404040404040828282828282828282FB
:10377C00828282828282828282828282828282821D
:10378C00828282828282828282828282828282820D
:10379C00828282828282824040404040404040404F
:1037AC00404040404040404040404040404040400D
:1037BC0040404040404040404040404040404040FD
:1037CC0040404040404040404040404040404040ED
:1037DC0040404040404040404040404040404040DD
:1037EC0040404040404040404082828282828282FF
:1037FC00828282828282828282828282828282829D
:10380C00828282828282828282828282828282828C
:10381C0082828282828282404040404040404040CE
:10382C00404040404040404040404040404040408C
:10383C00404040404040404040404040404040407C
:10384C00404040404040404040404040404040406C
:10385C00404040404040404040404040404040405C
:10386C004040404040404040404040828282828202
:10387C00828282828282828282828282828282821C
:10388C00828282828282828282828282828282820C
:10389C00828282828282824040404040404040404E
:1038AC00404040404040404040404040404040400C
:1038BC0040404040404040404040404040404040FC
:1038CC0040404040404040404040404040404040EC
:1038DC0040404040404040404040404040404040DC
:1038EC0040404040404040404040404082828282C4
:1038FC00828282828282828282828282828282829C
:10390C00828282828282828282828282828282828B
:10391C0082828282828282404040404040404040CD
:10392C00404040404040404040404040404040408B
:10393C00404040404040404040404040404040407B
:10394C00404040404040404040404040404040406B
:10395C00404040404040404040404040404040405B
:10396C0040404040404040404040404040408282C7
:10397C00828282828282828282828282828282821B
:10398C00828282828282828282828282828282820B
:10399C00828282828282824040404040404040404D
:1039AC00404040404040404040404040404040400B
:1039BC0040404040404040404040404040404040FB
:1039CC0040404040404040404040404040404040EB
:1039DC0040404040404040404040404040404040DB
:1039EC0040404040404040404040404040404040CB
:1039FC00828282828282828282828282828282829B
:103A0C00828282828282828282828282828282828A
:103A1C0082828282828282404040404040404040CC
:103A2C00404040404040404040404040404040408A
:103A3C00404040404040404040404040404040407A
:103A4C00404040404040404040404040404040406A
:103A5C00404040404040404040404040404040405A
:103A6C00404040404040404040404040404040404A
:103A7C00404082828282828282828282828282829E
:103A8C00828282828282828282828282828282820A
:103A9C00828282828282824040404040404040404C
:103AAC00404040404040404040404040404040400A
:103ABC0040404040404040404040404040404040FA
:103ACC0040404040404040404040404040404040EA
:103ADC0040404040404040404040404040404040DA
:103AEC0040404040404040404040404040404040CA
:103AFC004040408282828282828282828282828260
:103B0C008282828282828282828282828282828289
:103B1C0082828282828282404040404040404040CB
:103B2C004040404040404040404040404040404089
:103B3C004040404040404040404040404040404079
:103B4C004040404040404040404040404040404069
:103B5C004040404040404040404040404040404059
:103B6C004040404040404040404040404040404049
:103B7C004040404040828282828282828282828263
:103B8C008282828282828282828282828282828209
:103B9C00828282828282824040404040404040404B
:103BAC004040404040404040404040404040404009
:103BBC0040404040404040404040404040404040F9
:103BCC0040404040404040404040404040404040E9
:103BDC0040404040404040404040404040404040D9
:103BEC0040404040404040404040404040404040C9
:103BFC004040404040404082828282828282828267
:103C0C008282828282828282828282828282828288
:103C1C0082828282828282404040404040404040CA
:103C2C004040404040404040404040404040404088
:103C3C004040404040404040404040404040404078
:103C4C004040404040404040404040404040404068
:103C5C004040404040404040404040404040404058
:103C6C004040404040404040404040404040404048
:103C7C004040404040404040828282828282828228
:103C8C008282828282828282828282828282828208
:103C9C00828282828282824040404040404040404A
:103CAC004040404040404040404040404040404008
:103CBC0040404040404040404040404040404040F8
:103CCC0040404040404040404040404040404040E8
:103CDC0040404040404040404040404040404040D8
:103CEC0040404040404040404040404040404040C8
:103CFC00404040404040404040408282828282822C
:103D0C008282828282828282828282828282828287
:103D1C0082828282828282404040404040404040C9
:103D2C004040404040404040404040404040404087
:103D3C004040404040404040404040404040404077
:103D4C004040404040404040404040404040404067
:103D5C004040404040404040404040404040404057
:103D6C004040404040404040404040404040404047
:103D7C00404040404040404040404040828282822F
:103D8C008282828282828282828282828282828207
:103D9C008282828282828240404040404040404049
:103DAC004040404040404040404040404040404007
:103DBC0040404040404040404040404040404040F7
:103DCC0040404040404040404040404040404040E7
:103DDC0040404040404040404040404040404040D7
:103DEC0040404040404040404040404040404040C7
:103DFC004040404040404040404040404040828233
:103E0C008282828282828282828282828282828286
:103E1C0082828282828282404040404040404040C8
:103E2C004040404040404040404040404040404086
:103E3C004040404040404040404040404040404076
:103E4C004040404040404040404040404040404066
:103E5C004040404040404040404040404040404056
:103E6C004040404040404040404040404040404046
:103E7C0040404040404040404040404040404082F4
:103E8C008282828282828282828282828282828206
:103E9C008282828282828240404040404040404048
:103EAC004040404040404040404040404040404006
:103EBC0040404040404040404040414040404040F5
:103ECC0040404040404040404040404040404040E6
:103EDC0040404040404040404040404040404040D6
:103EEC0040404040404040404040404040404040C6
:103EFC0040404040404040404040404040404040B6
:103F0C0040828282828282828282828282828282C7
:103F1C0082828282828282404040404040404040C7
:103F2C004040404040404040404040404040404085
:103F3C004040404040404040414141404040404072
:103F4C004040404040404040404040404040404065
:103F5C004040404040404040404040404040404055
:103F6C004040404040404040404040404040404045
:103F7C004040404040404040404040404040404035
:103F8C0040404082828282828282828282828282CB
:103F9C008282828282828240404040404040404047
:103FAC004040404040404040404040404040404005
:103FBC0040404040404041414141414140404040EF
:103FCC0040404040404040404040404040404040E5
:103FDC0040404040404040404040404040404040D5
:103FEC0040404040404040404040404040404040C5
:103FFC0040404040404040404040404040404040B5
:10400C0040404040408282828282828282828282CE
:10401C0082828282828282404040404040404040C6
:10402C004040404040404040404040404040404084
:10403C00404040404141414141414141404040406C
:10404C004040404040404040404040404040404064
:10405C004040404040404040404040404040404054
:10406C004040404040404040404040404040404044
:10407C004040404040404040404040404040404034
:10408C004040404040408282828282828282828290
:10409C008282828282828240404040404040404046
:1040AC004040404040404040404040404040404004
:1040BC0040414141414141414141414141404040E8
:1040CC0040404040404040404040404040404040E4
:1040DC0040404040404040404040404040404040D4
:1040EC0040404040404040404040404040404040C4
:1040FC0040404040404040404040404040404040B4
:10410C004040404040404040828282828282828293
:10411C0082828282828282404040404040404040C5
:10412C004040404040404040404040404040404182
:10413C004141414141414141414141414141404065
:10414C004040404040404040404040404040404063
:10415C004040404040404040404040404040404053
:10416C004040404040404040404040404040404043
:10417C004040404040404040404040404040404033
:10418C004040404040404040404082828282828297
:10419C008282828282828240404040404040404045
:1041AC0040404040404040404040404041414141FF
:1041BC0041414141414141414141414141414040E5
:1041CC0040404040404040404040404040404040E3
:1041DC0040404040404040404040404040404040D3
:1041EC0040404040404040404040404040404040C3
:1041FC0040404040404040404040404040404040B3
:10420C00404040404040404040404040828282829A
:10421C0082828282828282404040404040404040C4
:10422C00404040404040404041414141414141417A
:10423C004141414141414141414141414141414063
:10424C004040404040404040404040404040404062
:10425C004040404040404040404040404040404052
:10426C004040404040404040404040404040404042
:10427C004040404040404040404040404040404032
:10428C00404040404040404040404040408282825C
:10429C008282828282828240404040404040404044
:1042AC0040404041414141414141414141414141F5
:1042BC0041414141414141414141414141414140E3
:1042CC0040404040404040404040404040404040E2
:1042DC0040404040404040404040404040404040D2
:1042EC0040404040404040404040404040404040C2
:1042FC0040404040404040404040404040404040B2
:10430C00404040404040404040404040404040825F
:10431C0082828282828282404040404040404041C2
:10432C004141414141414141414141414141414171
:10433C004141414141414141414141414141414161
:10434C004040404040404040404040404040404061
:10435C004040404040404040404040404040404051
:10436C004040404040404040404040404040404041
:10437C004040404040404040404040404040404031
:10438C004040404040404040404040404040404021
:10439C004082828282828240404040404040404184
:1043AC0041414141414141414141414141414141F1
:1043BC0041414141414141414141414141414141E1
:1043CC0040404040404040404040404040404040E1
:1043DC0040404040404040404040404040404040D1
:1043EC0040404040404040404040404040404040C1
:1043FC0040404040404040404040404040404040B1
:10440C0040404040404040404040404040404040A0
:10441C004040828282828240404040404040404145
:10442C004141414141414141414141414141414170
:10443C004141414141414141414141414141414160
:10444C00414040404040404040404040404040405F
:10445C004040404040404040404040404040404050
:10446C004040404040404040404040404040404040
:10447C004040404040404040404040404040404030
:10448C004040404040404040404040404040404020
:10449C004040404082828240404040404040404149
:1044AC0041414141414141414141414141414141F0
:1044BC0041414141414141414141414141414141E0
:1044CC0041414040404040404040404040404040DE
:1044DC0040404040404040404040404040404040D0
:1044EC0040404040404040404040404040404040C0
:1044FC0040404040404040404040404040404040B0
:10450C00404040404040404040404040404040409F
:10451C00404040404040824040404040404040414C
:10452C00414141414141414141414141414141416F
:10453C00414141414141414141414141414141415F
:10454C00414140404040404040404040404040405D
:10455C00404040404040404040404040404040404F
:10456C00404040404040404040404040404040403F
:10457C00404040404040404040404040404040402F
:10458C00404040404040404040404040404040401F
:10459C00404040404040404040404040404040410E
:1045AC0041414141414141414141414141414141EF
:1045BC0041414141414141414141414141414141DF
:1045CC0041414140404040404040404040404040DC
:1045DC0040404040404040404040404040404040CF
:1045EC0040404040404040404040404040404040BF
:1045FC0040404040404040404040404040404040AF
:10460C00404040404040404040404040404040409E
:10461C00404040404040404040404040404040418D
:10462C00414141414141414141414141414141416E
:10463C00414141414141414141414141414141415E
:10464C00414141404040404040404040404040405B
:10465C00404040404040404040404040404040404E
:10466C00404040404040404040404040404040403E
:10467C00404040404040404040404040404040402E
:10468C00404040404040404040404040404040401E
:10469C00404040404040404040404040404040400E
:1046AC0041414141414141414141414141414141EE
:1046BC0041414141414141414141414141414141DE
:1046CC0041414141404040404040404040404040DA
:1046DC0040404040404040404040404040404040CE
:1046EC0040404040404040404040404040404040BE
:1046FC0040404040404040404040404040404040AE
:10470C00404040404040404040404040404040409D
:10471C00404040404040404040404040404040408D
:10472C00414141414141414141414141414141416D
:10473C00414141414141414141414141414141415D
:10474C004141414141404040404040404040404058
:10475C00404040404040404040404040404040404D
:10476C00404040404040404040404040404040403D
:10477C00404040404040404040404040404040402D
:10478C00404040404040404040404040404040401D
:10479C00404040404040404040404040404040400D
:1047AC0041414141414141414141414141414141ED
:1047BC0041414141414141414141414141414141DD
:1047CC0041414141414040404040404040404040D8
:1047DC0040404040404040404040404040404040CD
:1047EC0040404040404040404040404040404040BD
:1047FC0040404040404040404040404040404040AD
:10480C00404040404040404040404040404040409C
:10481C00404040404040404040404040404040408C
:10482C00414141414141414141414141414141416C
:10483C00414141414141414141414141414141415C
:10484C004141414141414040404040404040404056
:10485C00404040404040404040404040404040404C
:10486C00404040404040404040404040404040403C
:10487C00404040404040404040404040404040402C
:10488C00404040404040404040404040404040401C
:10489C00404040404040404040404040404040400C
:1048AC0041414141414141414141414141414141EC
:1048BC0041414141414141414141414141414141DC
:1048CC0041414141414140404040404040404040D6
:1048DC0040404040404040404040404040404040CC
:1048EC0040404040404040404040404040404040BC
:1048FC0040404040404040404040404040404040AC
:10490C00404040404040404040404040404040409B
:10491C00404040404040404040404040404040408B
:10492C00414141414141414141414141414141416B
:10493C00414141414141414141414141414141415B
:10494C004141414141414140404040404040404054
:10495C00404040404040404040404040404040404B
:10496C00404040404040404040404040404040403B
:10497C00404040404040404040404040404040402B
:10498C00404040404040404040404040404040401B
:10499C00404040404040404040404040404040400B
:1049AC0041414141414141414141414141414141EB
:1049BC0041414141414141414141414141414141DB
:1049CC0041414141414141404040404040404040D4
:1049DC0040404040404040404040404040404040CB
:1049EC0040404040404040404040404040404040BB
:1049FC0040404040404040404040404040404040AB
:104A0C00404040404040404040404040404040409A
:104A1C00404040404040404040404040404040408A
:104A2C00414141414141414141414141414141416A
:104A3C00414141414141414141414141414141415A
:104A4C004141414141414141404040404040404052
:104A5C00404040404040404040404040404040404A
:104A6C00404040404040404040404040404040403A
:104A7C00404040404040404040404040404040402A
:104A8C00404040404040404040404040404040401A
:104A9C00404040404040404040404040404040400A
:104AAC0041414141414141414141414141414141EA
:104ABC0041414141414141414141414141414141DA
:104ACC0041414141414141414140404040404040D1
:104ADC0040404040404040404040404040404040CA
:104AEC0040404040404040404040404040404040BA
:104AFC0040404040404040404040404040404040AA
:104B0C004040404040404040404040404040404099
:104B1C004040404040404040404040404040404089
:104B2C00404141414141414141414141414141416A
:104B3C004141414141414141414141414141414159
:104B4C004141414141414141414040404040404050
:104B5C004040404040404040404040404040404049
:104B6C004040404040404040404040404040404039
:104B7C004040404040404040404040404040404029
:104B8C004040404040404040404040404040404019
:104B9C004040404040404040404040404040404009
:104BAC0040414141414141414141414141414141EA
:104BBC0041414141414141414141414141414141D9
:104BCC0041414141414141414141404040404040CF
:104BDC0040404040404040404040404040404040C9
:104BEC0040404040404040404040404040404040B9
:104BFC0040404040404040404040404040404040A9
:104C0C004040404040404040404040404040404098
:104C1C004040404040404040404040404040404088
:104C2C004041414141414141414141414141414169
:104C3C004141414141414141414141414141414158
:104C4C00414141414141414141414040404040404E
:104C5C004040404040404040404040404040404048
:104C6C004040404040404040404040404040404038
:104C7C004040404040404040404040404040404028
:104C8C004040404040404040404040404040404018
:104C9C004040404040404040404040404040404008
:104CAC0040414141414141414141414141414141E9
:104CBC0041414141414141414141414141414141D8
:104CCC0041414141414141414141414040404040CD
:104CDC0040404040404040404040404040404040C8
:104CEC0040404040404040404040404040404040B8
:104CFC0040404040404040404040404040404040A8
:104D0C004040404040404040404040404040404097
:104D1C004040404040404040404040404040404087
:104D2C004041414141414141414141414141414168
:104D3C004141414141414141414141414141414157
:104D4C00414141414141414141414140404040404C
:104D5C004040404040404040404040404040404047
:104D6C004040404040404040404040404040404037
:104D7C004040404040404040404040404040404027
:104D8C004040404040404040404040404040404017
:104D9C004040404040404040404040404040404007
:104DAC0040414141414141414141414141414141E8
:104DBC0041414141414141414141414141414141D7
:104DCC0041414141414141414141414140404040CB
:104DDC0040404040404040404040404040404040C7
:104DEC0040404040404040404040404040404040B7
:104DFC0040404040404040404040404040404040A7
:104E0C004040404040404040404040404040404096
:104E1C004040404040404040404040404040404086
:104E2C004041414141414141414141414141414167
:104E3C004141414141414141414141414141414156
:104E4C004141414141414141414141414140404049
:104E5C004040404040404040404040404040404046
:104E6C004040404040404040404040404040404036
:104E7C004040404040404040404040404040404026
:104E8C004040404040404040404040404040404016
:104E9C004040404040404040404040404040404006
:104EAC0040414141414141414141414141414141E7
:104EBC0041414141414141414141414141414141D6
:104ECC0041414141414141414141414141404040C9
:104EDC0040404040404040404040404040404040C6
:104EEC0040404040404040404040404040404040B6
:104EFC0040404040404040404040404040404040A6
:104F0C004040404040404040404040404040404095
:104F1C004040404040404040404040404040404085
:104F2C004041414141414141414141414141414166
:104F3C004141414141414141414141414141414155
:104F4C004141414141414141414141414141404047
:104F5C004040404040404040404040404040404045
:104F6C004040404040404040404040404040404035
:104F7C004040404040404040404040404040404025
:104F8C004040404040404040404040404040404015
:104F9C004040404040404040404040404040404005
:104FAC0040414141414141414141414141414141E6
:104FBC0041414141414141414141414141414141D5
:104FCC0041414141414141414141414141414040C7
:104FDC0040404040404040404040404040404040C5
:104FEC0040404040404040404040404040404040B5
:104FFC0040404040404040404040404040404040A5
:10500C004040404040404040404040404040404094
:10501C004040404040404040404040404040404084
:10502C004040414141414141414141414141414166
:10503C004141414141414141414141414141414154
:10504C004141414141414141414141414141414045
:10505C004040404040404040404040404040404044
:10506C004040404040404040404040404040404034
:10507C004040404040404040404040404040404024
:10508C004040404040404040404040404040404014
:10509C004040404040404040404040404040404004
:1050AC0040404141414141414141414141414141E6
:1050BC0041414141414141414141414141414141D4
:1050CC0041414141414141414141414141414141C4
:1050DC0040404040404040404040404040404040C4
:1050EC0040404040404040404040404040404040B4
:1050FC0040404040404040404040404040404040A4
:10510C004040404040404040404040404040404093
:10511C004040404040404040404040404040404083
:10512C004040414141414141414141414141414165
:10513C004141414141414141414141414141414153
:10514C004141414141414141414141414141414143
:10515C004040404040404040404040404040404043
:10516C004040404040404040404040404040404033
:10517C004040404040404040404040404040404023
:10518C004040404040404040404040404040404013
:10519C004040404040404040404040404040404003
:1051AC0040404141414141414141414141414141E5
:1051BC0041414141414141414141414141414141D3
:1051CC0041414141414141414141414141414141C3
:1051DC0041404040404040404040404040404040C2
:1051EC0040404040404040404040404040404040B3
:1051FC0040404040404040404040404040404040A3
:10520C004040404040404040404040404040404092
:10521C004040404040404040404040404040404082
:10522C004040414141414141414141414141414164
:10523C004141414141414141414141414141414152
:10524C004141414141414141414141414141414142
:10525C004140404040404040404040404040404041
:10526C004040404040404040404040404040404032
:10527C004040404040404040404040404040404022
:10528C004040404040404040404040404040404012
:10529C004040404040404040404040404040404002
:1052AC0040404141414141414141414141414141E4
:1052BC0041414141414141414141414141414141D2
:1052CC0041414141414141414141414141414141C2
:1052DC0041414040404040404040404040404040C0
:1052EC0040404040404040404040404040404040B2
:1052FC0040404040404040404040404040404040A2
:10530C004040404040404040404040404040404091
:10531C004040404040404040404040404040404081
:10532C004040414141414141414141414141414163
:10533C004141414141414141414141414141414151
:10534C004141414141414141414141414141414141
:10535C00414140404040404040404040404040403F
:10536C004040404040404040404040404040404031
:10537C004040404040404040404040404040404021
:10538C004040404040404040404040404040404011
:10539C004040404040404040404040404040404001
:1053AC0040404141414141414141414141414141E3
:1053BC0041414141414141414141414141414141D1
:1053CC0041414141414141414141414141414141C1
:1053DC0041414140404040404040404040404040BE
:1053EC0040404040404040404040404040404040B1
:1053FC0040404040404040404040404040404040A1
:10540C004040404040404040404040404040404090
:10541C004040404040404040404040404040404080
:10542C004040414141414141414141414141414162
:10543C004141414141414141414141414141414150
:10544C004141414141414141414141414141414140
:10545C00414141414040404040404040404040403C
:10546C004040404040404040404040404040404030
:10547C004040404040404040404040404040404020
:10548C004040404040404040404040404040404010
:10549C004040404040404040404040404040404000
:1054AC0040404041414141414141414141414141E3
:1054BC0041414141414141414141414141414141D0
:1054CC0041414141414141414141414141414141C0
:1054DC0041414141404040404040404040404040BC
:1054EC0040404040404040404040404040404040B0
:1054FC0040404040404040404040404040404040A0
:10550C00404040404040404040404040404040408F
:10551C00404040404040404040404040404040407F
:10552C004040404141414141414141414141414162
:10553C00414141414141414141414141414141414F
:10554C00414141414141414141414141414141413F
:10555C00414141414140404040404040404040403A
:10556C00404040404040404040404040404040402F
:10557C00404040404040404040404040404040401F
:10558C00404040404040404040404040404040400F
:10559C0040404040404040404040404040404040FF
:1055AC0040404041414141414141414141414141E2
:1055BC0041414141414141414141414141414141CF
:1055CC0041414141414141414141414141414141BF
:1055DC0041414141414040404040404040404040BA
:1055EC0040404040404040404040404040404040AF
:1055FC00404040404040404040404040404040409F
:10560C00404040404040404040404040404040408E
:10561C00404040404040404040404040404040407E
:10562C004040404141414141414141414141414161
:10563C00414141414141414141414141414141414E
:10564C00414141414141414141414141414141413E
:10565C004141414141414040404040404040404038
:10566C00404040404040404040404040404040402E
:10567C00404040404040404040404040404040401E
:10568C00404040404040404040404040404040400E
:10569C0040404040404040404040404040404040FE
:1056AC0040404041414141414141414141414141E1
:1056BC0041414141414141414141414141414141CE
:1056CC0041414141414141414141414141414141BE
:1056DC0041414141414140404040404040404040B8
:1056EC0040404040404040404040404040404040AE
:1056FC00404040404040404040404040404040409E
:10570C00404040404040404040404040404040408D
:10571C00404040404040404040404040404040407D
:10572C004040404141414141414141414141414160
:10573C00414141414141414141414141414141414D
:10574C00414141414141414141414141414141413D
:10575C004141414141414140404040404040404036
:10576C00404040404040404040404040404040402D
:10577C00404040404040404040404040404040401D
:10578C00404040404040404040404040404040400D
:10579C0040404040404040404040404040404040FD
:1057AC0040404041414141414141414141414141E0
:1057BC0041414141414141414141414141414141CD
:1057CC0041414141414141414141414141414141BD
:1057DC0041414141414141414040404040404040B5
:1057EC0040404040404040404040404040404040AD
:1057FC00404040404040404040404040404040409D
:10580C00404040404040404040404040404040408C
:10581C00404040404040404040404040404040407C
:10582C00404040414141414141414141414141415F
:10583C00414141414141414141414141414141414C
:10584C00414141414141414141414141414141413C
:10585C004141414141414141404040404040404034
:10586C00404040404040404040404040404040402C
:10587C00404040404040404040404040404040401C
:10588C00404040404040404040404040404040400C
:10589C0040404040404040404040404040404040FC
:1058AC0040404041414141414141414141414141DF
:1058BC0041414141414141414141414141414141CC
:1058CC0041414141414141414141414141414141BC
:1058DC0041414141414141414140404040404040B3
:1058EC0040404040404040404040404040404040AC
:1058FC00404040404040404040404040404040409C
:10590C00404040404040404040404040404040408B
:10591C00404040404040404040404040404040407B
:10592C00404040414141414141414141414141415E
:10593C00414141414141414141414141414141414B
:10594C00414141414141414141414141414141413B
:10595C004141414141414141414040404040404032
:10596C00404040404040404040404040404040402B
:10597C00404040404040404040404040404040401B
:10598C00404040404040404040404040404040400B
:10599C0040404040404040404040404040404040FB
:1059AC0040404040414141414141414141414141DF
:1059BC0041414141414141414141414141414141CB
:1059CC0041414141414141414141414141414141BB
:1059DC0041414141414141414141404040404040B1
:1059EC0040404040404040404040404040404040AB
:1059FC00404040404040404040404040404040409B
:105A0C00404040404040404040404040404040408A
:105A1C00404040404040404040404040404040407A
:105A2C00404040404141414141414141414141415E
:105A3C00414141414141414141414141414141414A
:105A4C00414141414141414141414141414141413A
:105A5C004141414141414141414140404040404030
:105A6C00404040404040404040404040404040402A
:105A7C00404040404040404040404040404040401A
:105A8C00404040404040404040404040404040400A
:105A9C0040404040404040404040404040404040FA
:105AAC0040404040414141414141414141414141DE
:105ABC0041414141414141414141414141414141CA
:105ACC0041414141414141414141414141414141BA
:105ADC0041414141414141414141414040404040AF
:105AEC0040404040404040404040404040404040AA
:105AFC00404040404040404040404040404040409A
:105B0C004040404040404040404040404040404089
:105B1C004040404040404040404040404040404079
:105B2C00404040404141414141414141414141415D
:105B3C004141414141414141414141414141414149
:105B4C004141414141414141414141414141414139
:105B5C00414141414141414141414141404040402D
:105B6C004040404040404040404040404040404029
:105B7C004040404040404040404040404040404019
:105B8C004040404040404040404040404040404009
:105B9C0040404040404040404040404040404040F9
:105BAC0040404040414141414141414141414141DD
:105BBC0041414141414141414141414141414141C9
:105BCC0041414141414141414141414141414141B9
:105BDC0041414141414141414141414140404040AD
:105BEC0040404040404040404040404040404040A9
:105BFC004040404040404040404040404040404099
:105C0C004040404040404040404040404040404088
:105C1C004040404040404040404040404040404078
:105C2C00404040404141414141414141414141415C
:105C3C004141414141414141414141414141414148
:105C4C004141414141414141414141414141414138
:105C5C00414141414141414141414141414040402B
:105C6C004040404040404040404040404040404028
:105C7C004040404040404040404040404040404018
:105C8C004040404040404040404040404040404008
:105C9C0040404040404040404040404040404040F8
:105CAC0040404040414141414141414141414141DC
:105CBC0041414141414141414141414141414141C8
:105CCC0041414141414141414141414141414141B8
:105CDC0041414141414141414141414141404040AB
:105CEC0040404040404040404040404040404040A8
:105CFC004040404040404040404040404040404098
:105D0C004040404040404040404040404040404087
:105D1C004040404040404040404040404040404077
:105D2C00404040404141414141414141414141415B
:105D3C004141414141414141414141414141414147
:105D4C004141414141414141414141414141414137
:105D5C004141414141414141414141414141404029
:105D6C004040404040404040404040404040404027
:105D7C004040404040404040404040404040404017
:105D8C004040404040404040404040404040404007
:105D9C0040404040404040404040404040404040F7
:105DAC0040404040414141414141414141414141DB
:105DBC0041414141414141414141414141414141C7
:105DCC0041414141414141414141414141414141B7
:105DDC0041414141414141414141414141414140A8
:105DEC0040404040404040404040404040404040A7
:105DFC004040404040404040404040404040404097
:105E0C004040404040404040404040404040404086
:105E1C004040404040404040404040404040404076
:105E2C00404040404041414141414141414141415B
:105E3C004141414141414141414141414141414146
:105E4C004141414141414141414141414141414136
:105E5C004141414141414141414141414141414027
:105E6C004040404040404040404040404040404026
:105E7C004040404040404040404040404040404016
:105E8C004040404040404040404040404040404006
:105E9C0040404040404040404040404040404040F6
:105EAC0040404040404141414141414141414141DB
:105EBC0041414141414141414141414141414141C6
:105ECC0041414141414141414141414141414141B6
:105EDC0041414141414141414141414141414141A6
:105EEC0040404040404040404040404040404040A6
:105EFC004040404040404040404040404040404096
:105F0C004040404040404040404040404040404085
:105F1C004040404040404040404040404040404075
:105F2C00404040404041414141414141414141415A
:105F3C004141414141414141414141414141414145
:105F4C004141414141414141414141414141414135
:105F5C004141414141414141414141414141414125
:105F6C004040404040404040404040404040404025
:105F7C004040404040404040404040404040404015
:105F8C004040404040404040404040404040404005
:105F9C0040404040404040404040404040404040F5
:105FAC0040404040404141414141414141414141DA
:105FBC0041414141414141414141414141414141C5
:105FCC0041414141414141414141414141414141B5
:105FDC0041414141414141414141414141414141A5
:105FEC0041404040404040404040404040404040A4
:105FFC004040404040404040404040404040404095
:10600C004040404040404040404040404040404084
:10601C004040404040404000010E0001B16F000E76
:10602C00846F37EC37F06F0028FFB2F06F002CFF55
:10603C00B3F06F0030FFB4F098EC37F00001CD05F1
:10604C00D8A403D0210E3A016013600014F32CF095
:10605C00600018F32DF060001CF32EF00001C45109
:10606C0089EC34F087EC36F042EC36F00001B3A743
:10607C00B3B506D0B4BF04D0C7EC36F06EEC38F034
:10608C00B0EC38F0800ED26E6F0028FFB2F06F00CB
:10609C002CFFB3F06F0030FFB4F00001B3A7B3B521
:1060AC0001D0B2BD040001EC32F0600E2C6E000E7B
:1060BC002D6EE6EC37F00001B06FB051D8A469D169
:1060CC00E3D7090E856F000E866F030E876F850E62
:1060DC00426E000E436E030E446ED6EC35F0D4D7F0
:1060EC006251010AD8A4030A615188EC33F06000B4
:1060FC00B0F042F06000B4F043F0080E446ED6EC01
:10610C0035F0C2D71FEC38F06000B0F042F0600000
:10611C00B4F043F00A0E446ED6EC35F0B5D7470E0A
:10612C006119D8A412D0430E6219D8A40ED02B0E2C
:10613C006319D8A40AD0320E6419D8A406D0050E5F
:10614C00B019D8A402D0000E01D0010EB16F000E10
:10615C000001856F850E426E000E436E010E446E7B
:10616C00D6EC35F091D7B151D8A413D0020E856F6F
:10617C00100E866F000E876F100E886F000E896FE1
:10618C00850E426E000E436E050E446ED6EC35F055
:10619C007BD78569DFD7B151D8A4FBD7030EB06587
:1061AC0020D0600088F1AEF0AF6BAE51AF6FAE6B2C
:1061BC006151AE13030EB56F0FD0600EB525D96EBD
:1061CC00DA6A000EDA22DF502C6EAE51C3EC38F0D6
:1061DC000001AE4BAF2BB52BB051B55DD8B0B7D7D6
:1061EC00ECD7FE0EB6D7B151D8A4D3D7040EB01944
:1061FC00D8A4F7D7600088F1AEF0AF6BAE51AF6F9B
:10620C00AE6B6151AE1360008CF1ADF0AD51D8B4F2
:10621C00E8D7000E856F000EB56F15D0B5514C6EDA
:10622C004D6A010E4C26000E4D22850E4C24D96E63
:10623C00000E4D20DA6EAE51D5EC38F0DF6E000159
:10624C00AE4BAF2BB52BAD51B55DD8B003D01F0EF7
:10625C00B565E4D7850E426E000E436EAD29446ED3
:10626C00D6EC35F011D7FF000FD7B151D8A491D788
:10627C00000E856F850E426E000E436E010E446E4D
:10628C00D6EC35F0C4EC37F0FFD6B151D8A481D799
:10629C00100EB019D8A4A5D7610E2C6E000E2D6E61
:1062AC009AEC38F054D7B151D8A473D7100EB0195A
:1062BC00D8A497D7610E2C6E000E2D6E84EC38F09E
:1062CC0046D7B151D8A465D754EC38F06000B0F083
:1062DC00A9F06000B4F0AAF0000E0001856F000E6A
:1062EC00B56F0E0EB56501D018D0B551A925D96E74
:1062FC00000EAA21DA6EB5514C6E4D6A010E4C2679
:10630C00000E4D22850E4C24E16E000E4D20E26EE7
:10631C006F007FFFE7FFB52BE4D7850E426E000EB2
:10632C00436E100E446ED6EC35F0AED6B151D8A4F7
:10633C0030D73AEC38F06000B0F0ABF06000B4F05D
:10634C00ACF0000E0001856F000EB56F0E0EB5653A
:10635C0001D0E3D7B551AB25D96E000EAC21DA6E66
:10636C00B5514C6E4D6A010E4C26000E4D22850E19
:10637C004C24E16E000E4D20E26E6F007FFFE7FFB4
:10638C00B52BE4D7B151D8B4E2D603D7E8EC38F04A
:10639C007BD66051000AD8B494D6100AD8B4BFD6B4
:1063AC00010AD8B4E0D6030AD8B4F5D6010AD8B499
:1063BC001AD7070AD8B457D7010AD8B456D7030A44
:1063CC00D8B463D7010AD8B46ED70F0AD8B479D72A
:1063DC00010AD8B4ABD7390AD8B4D4D7600AD8B428
:1063EC007FD6010AD8B48ED6030AD8B48BD6BD0A90
:1063FC00D8B467D6CBD76F0028FF2CF06F002CFFDA
:10640C002DF06F0030FF2EF01A502C18306E1B50F0
:10641C002D18316E1C502E18326E6000B0F01AF030
:10642C006000B4F01BF06000B8F01CF032AE02D08B
:10643C00000E016E32AC02D0000E026E31A602D0FC
:10644C00000E036E31A402D0000E046E30AC02D0EC
:10645C00000E056E30A602D0000E066E30AA02D0D9
:10646C00000E076E30AE02D0000E086E30A802D0BF
:10647C00000E096E31A002D0000E0A6E31A202D0BD
:10648C00000E0B6E30A402D0000E0C6E32A002D0A7
:10649C00000E0D6E32AA02D0000E0E6E31AA02D082
:1064AC00000E0F6E3901A3AF1200A39F000E2F6ECA
:1064BC00010E2F24D96EDA6A000EDA22DF2A2F2A77
:1064CC000E0E2F64F5D7000E166E800E176E090E89
:1064DC00016407D01CBE05D00A0E016E0001DD510F
:1064EC001612090E016407D01CBE05D00A0E016EEF
:1064FC000001CE511712090E026407D01CBC05D046
:10650C000A0E026E0001DE511612090E026407D04B
:10651C001CBC05D00A0E026E0001CF511712090ED9
:10652C00036407D01BB605D00A0E036E0001DF51C1
:10653C001612090E036407D01BB605D00A0E036EA3
:10654C000001D0511712090E046407D01BB405D0FA
:10655C000A0E046E0001E0511612090E046407D0F5
:10656C001BB405D00A0E046E0001D1511712090E8E
:10657C00056407D01ABC05D00A0E056E0001E15166
:10658C001612090E056407D01ABC05D00A0E056E4A
:10659C000001D2511712090E066407D01AB605D0A5
:1065AC000A0E066E0001E2511612090E066407D09F
:1065BC001AB605D00A0E066E0001D3511712090E39
:1065CC00076407D01ABA05D00A0E076E0001E35112
:1065DC001612090E076407D01ABA05D00A0E076EF8
:1065EC000001D4511712090E086407D01ABE05D049
:1065FC000A0E086E0001E4511612090E086407D049
:10660C001ABE05D00A0E086E0001D5511712090EDC
:10661C00096407D01AB805D00A0E096E0001E551BD
:10662C001612090E096407D01AB805D00A0E096EA5
:10663C000001D6511712090E0A6407D01BB005D001
:10664C000A0E0A6E0001E6511612090E0A6407D0F2
:10665C001BB005D00A0E0A6E0001D7511712090E95
:10666C000B6407D01BB205D00A0E0B6E0001E7516C
:10667C001612090E0B6407D01BB205D00A0E0B6E56
:10668C000001D8511712090E0C6407D01AB405D0AA
:10669C000A0E0C6E0001E8511612090E0C6407D09C
:1066AC001AB405D00A0E0C6E0001D9511712090E3E
:1066BC000F6407D01BBA05D00A0E0F6E0001EB5108
:1066CC001612090E0F6407D01BBA05D00A0E0F6EF6
:1066DC000001DC511712090E0D6408D00A0E0D6E64
:1066EC001CA003D0000E186E01D01868090E0E64A1
:1066FC0012000A0E0E6E1CAA03D0000E196E1200A8
:10670C0019681200326E600058F022F060005CF0E4
:10671C0023F07F0E4F6404D060003CF12EF003D0C8
:10672C004F50FF0A2E6E7F0E2E162E50336E346A8B
:10673C007F0E4E6404D0600038F12EF003D04E5022
:10674C00FF0A2E6E7F0E2E162E50356E366A6000A6
:10675C00D4F02EF06000D8F02FF0070ED8902E3623
:10676C002F36E82EFBD7230E306E200E316E2E50B6
:10677C0030262F50312233503026345031226000D5
:10678C00C3F0F6FF6000C7F0F7FF08006F00D4FFFE
:10679C003FF03FA01DD0800E4E6004D0000E386E2E
:1067AC00340E03D0000E386ECC0E376E6000DCF069
:1067BC0024F0800E4F6004D0000E3A6E690E03D0A8
:1067CC00000E3A6E970E396E6000E4F025F025D07D
:1067DC003FA21DD0800E4E6004D0000E3C6E690EA0
:1067EC0003D0000E3C6E970E3B6E6000ECF024F074
:1067FC00800E4F6004D0000E3E6E340E03D0000E9F
:10680C003E6ECC0E3D6E6000F4F025F006D06000BC
:10681C0038F124F060003CF125F0600040F140F0CC
:10682C00600044F141F051D0600000F126F06000AE
:10683C0004F127F0600048F12EF02E3A0F0E2E16C0
:10684C005350F00B2E103FD0000E296E57D0600025
:10685C0004F12EF02E3A0F0E2E164050F00B2E1087
:10686C00266E60004CF127F0600048F128F0ECD760
:10687C00600004F12EF02E3A0F0E2E164050F00B45
:10688C002E10266E600048F12EF02E3A0F0E2E16AA
:10689C005350F00B2E10276E000E286ED5D76000CB
:1068AC0000F126F0600004F127F060004CF128F0B4
:1068BC00600048F129F022D0600000F126F0600061
:1068CC0004F127F0000E286EBFD73250000AD8B45E
:1068DC00ABD7010AD8B4BBD7030AD8B4C9D7010ABD
:1068EC00D8B4DDD7070AD8B4E7D7010AD8B49CD7F7
:1068FC00030AD8B499D7010AD8B496D7220E2C6EB5
:10690C00000E2D6E1200336E800E3E01F86F000EDD
:10691C00F96F030EFA6FFA518F0B6009FA6F070EBD
:10692C00FB6F3F0EFF6F000EFD6FF369040EEC6FF3
:10693C001D0EFE6FD78FD7A1FED76000CCF054F0A0
:10694C006000B0F055F06000B4F056F06000B8F0A4
:10695C0057F03901A197000E346E540E3424D96EC1
:10696C00DA6A000EDA22DF503E01F16F3901A1A77D
:10697C00FDD7A1974E0E3424D96EDA6A000EDA22B6
:10698C006F009BFBDFFF342A050E3464E6D7390118
:10699C00550EEF6FAA0EEF6FEF81540E2F6E000E97
:1069AC00306E316A326A110E05D0D89032323132E3
:1069BC0030322F32E82EF9D72F503B01FB6F540E9B
:1069CC002F6E000E306E316A326A6000C0F02FF00C
:1069DC006000C4F030F06000C8F031F0326A2F5023
:1069EC00FA6F540EF96FF10E2F6E3E0E306E316A47
:1069FC00326A6000C0F02FF06000C4F030F060002C
:106A0C00C8F031F0326A2F50F16FF10EF06F000EBA
:106A1C00F86F060EF76F000EEF6F010EEE6F2A0E79
:106A2C00FF6F3F0EFD17FD9BE70EFD17FD51F90B98
:106A3C000209FD6FFD91C00EFC6F000EDB6FE60EC0
:106A4C002F6E3E0E306E316A326A6000C0F02FF04D
:106A5C006000C4F030F06000C8F031F0326A2F50A2
:106A6C00DA6FE60ED96F4E0E2F6E000E306E316A55
:106A7C00326A6000C0F02FF06000C4F030F06000AB
:106A8C00C8F031F0326A2F50D16F4E0ED06F000E1D
:106A9C00D86F010ED76F000ECF6F060ECE6F0B0E98
:106AAC00DF6FDD513F0B4009DD6FDD9BE70EDD171E
:106ABC00F90EDD17DD91C00EDC6FFC8B1200000EA1
:106ACC00AC6E010EAE6E040EAD6E120EAF6E1F0EDE
:106ADC00AB6E000EAA6E800EAC6E0F0E6D6E000EBD
:106AEC006C6E800E6E6E000E3C01756F180E766F1C
:106AFC00050E776F000E786F000E796F080E7A6FA7
:106B0C00020E7B6F000E7C6F000E7D6F840E746F17
:106B1C00000E6B6F2C0E6C6F050E6D6F000E6E6F92
:106B2C00000E6F6F080E706F010E716F000E726F9A
:106B3C00000E736F840E6A6F000E616F240E626F0D
:106B4C00180E636F2B0E646F2C0E656F020E666F42
:106B5C00040E676F900E686F600E696F820E606F27
:106B6C00040E576F260E586F2C0E596F250E5A6F48
:106B7C00000E5B6F020E5C6F000E5D6F140E5E6F8D
:106B8C00000E5F6F830E566F050E3D011C6F000EDD
:106B9C00196F000E156F020E166F820E146F120015
:106BAC003F011F9F3D0117ABFDD7C398000E206E10
:106BBC00000E1F6E000E1E6E000E1D6E010EAA6ED4
:106BCC00010E186F1A9F600013F112FD4404D8A433
:106BDC000BD060000BF1D9FF60000FF1DAFFDF5032
:106BEC00116F800E116F3FD060000BF1D9FF600068
:106BFC000FF1DAFFDF50116F20EE01F04250D92671
:106C0C004350DA22DF50116F4450FE0F4B6E020ED0
:106C1C004A6E27D060002CF145F0466A45BE460608
:106C2C00020E4526000E46221251476E486A455008
:106C3C00475C4850800A496E4650800A4958D8B083
:106C4C0010D04B50D8A403D0800E116F09D04A50ED
:106C5C004224D96E000E4320DA6EDF50116F4A2A9F
:106C6C004B064BAED7D71AAFFED717ABFED71A9F32
:106C7C003F011F8FC3881200000E946E010E966E9A
:106C8C00000E976E000E926E500E936E050E956E62
:106C9C003901A9919981000EAC6E010EAE6E000EF9
:106CAC00AF6E000EAA6E7D0EAB6EA495F00EAC6EA0
:106CBC0004D0CBB802D0000EAA6EA4A5FAD7550EFC
:106CCC003F015F6F65EC35F0800E946E3F011B69E0
:106CDC001C691D69000E126F000E136F000E146FED
:106CEC00880E1E6F430E1F6F010E216F000E236F57
:106CFC00000E226F3901A19F818F918F3F011F8F51
:106D0C001200000EB86E470EB96E7C0EB76E3901CC
:106D1C00A39F800EB86EDD0E2C6E000E2D6E000E35
:106D2C002F6E000E2E6E000E316E0F0E306E04ECB8
:106D3C0038F0CE0E2C6E000E2D6E000E2F6E000E47
:106D4C002E6E000E316E0F0E306E04EC38F0010E0C
:106D5C000001DD6F020EDE6F040EDF6F080EE06FB8
:106D6C00100EE16F010ED36F020ED46F040ED56FAF
:106D7C00080ED66F100ED76F200ED86F400ED96F3D
:106D8C001200B60E2C6E000E2D6E000E2F6E000E25
:106D9C002E6E000E316E180E306E04EC38F0470E6D
:106DAC000001B66F430EB76F2B0EB86F320EB96F72
:106DBC00000EBB6F100EBA6F000EBC6FBD69000EDB
:106DCC00BE6FBF69000EC06FC169000EC26FC36990
:106DDC00110EC46F120EC56F130EC66F140EC76F53
:106DEC00000EC86F180EC96F180ECA6F010ECB6F4C
:106DFC00CC69010ECD6F1200390191BFA1AF23D028
:106E0C00A19FD8901D367F0E3F01186501D002D08E
:106E1C00010E01D0000E1D12000E1E6E000E926EA1
:106E2C00202A080E2018D8A40ED0000E1F24D96ECC
:106E3C00DA6A010EDA22600077F0DFFF000E1D6EB9
:106E4C00000E206E1F2A3901A9A111001F50D8B4C1
:106E5C0003D0010E1E6E02D0F1EC38F03901A9916D
:106E6C001100000ED2BE010E2C6ED29E550E3A01B0
:106E7C00BF6FAA0EBF6FBF910C0ECC6F0C0ED26FF2
:106E8C00040E0C6F550EBF6FAA0EBF6FBF812CA0E6
:106E9C0002D0D28E01D0D29EBB68C268C368C468CF
:106EAC00030E3A01406F000E506F1E0E606FFC0E09
:106EBC00416F3F0E516FE10E616F000E426F100E6D
:106ECC00526F000E626F1200F40EF66E710EF76EBA
:106EDC00000EF86E00EE4EF010EE0CF009006F0094
:106EEC00D7FFEEFFE550E150F9E100EE00F1240E82
:106EFC00EE6AE806FDE100EEB6F0360EEE6AE80644
:106F0C00FDE100EE01F02B0EEE6AE806FDE10C0E41
:106F1C00D56E200ED66E000ED76E000EF86E0001E8
:106F2C0012EF30F0B60E346E000E356E000E366E6B
:106F3C00040036503424D96E000E3520DA6E3650EB
:106F4C00D5EC38F0DF6E030E3618D8A412D0470EED
:106F5C000001B6190AE1430EB71907E12B0EB81957
:106F6C0004E1320EB919D8B404D0C7EC36F06EEC8B
:106F7C0038F0362A170E3664DBD71200000ED26EAC
:106F8C00010E3F01386F000EFC6E550ED46EAA0E2A
:106F9C00D46E000ED46ED490080ED56E000ED66E44
:106FAC00000ED76E550ED46EAA0ED46E010ED46E92
:106FBC00D480000EFB6E000EFA6E000EF96E1200FD
:106FCC001E50D8A402D0000E1200000E2E6E10D04F
:106FDC00000E2E24D96EDA6A010EDA222E502C24E1
:106FEC00E16E000E2D20E26E6F007FFFE7FF2E2A70
:106FFC001F502E5CD8A0ECD71F5012006000B0F0D0
:10700C0032F06000B4F033F00BD06000CBF0D9FF5D
:10701C006000CFF0DAFF6000BBF0DFFF324A332AAA
:10702C003006D8A031063028F0E13128D8B412004F
:10703C00ECD7000E226E000E236E800E246E800E96
:10704C00256E800E266E800E276E600050F028F0A4
:10705C00600054F029F0020E2A6E020E2B6E220EE6
:10706C002C6E000E2D6E1200000E2E6ECE0E2E24E7
:10707C00D96EDA6A000EDA22220E2E24E16EE26A52
:10708C00000EE2226F007FFFE7FF2E2A0E0E2E6409
:10709C00EDD7220E2C6E000E2D6E1200000E2E6EF1
:1070AC00DD0E2E24D96EDA6A000EDA22220E2E2480
:1070BC00E16EE26A000EE2226F007FFFE7FF2E2AEC
:1070CC000E0E2E64EDD7220E2C6E000E2D6E1200BD
:1070DC00B60E2E6E000E2F6E000E306E30502E241B
:1070EC00D96E000E2F20DA6EDF502C6E3050C3ECB0
:1070FC0038F0302A170E3064F1D71200000E2E6EC5
:10710C002E502C24D96E000E2D20DA6ECE0E2E248D
:10711C00E16EE26A000EE2226F007FFFE7FF2E2A8B
:10712C000E0E2E64EDD71200000E2E6E2E502C2457
:10713C00D96E000E2D20DA6EDD0E2E24E16EE26A81
:10714C00000EE2226F007FFFE7FF2E2A0E0E2E6448
:10715C00EDD71200600038F110F060003CF111F036
:10716C00600040F112F0600044F113F060004CF14B
:10717C0014F0600048F115F012002D6E000E39016C
:10718C00E56F6000B7F0E0F96000B3F0E3F9E58576
:10719C00DFEC38F03901E5B3FDD7E59512002C6E24
:1071AC00000E3901E56F6000B3F0E0F9E581E351C1
:1071BC001200D29E550E3901E66FAA0EE66FE583DA
:1071CC00D28E1200000E206E000E1F6E000E1E6E70
:1071DC00000E1D6E1200000E206E000E1F6E000EB3
:1071EC001E6E000E1D6E1200808080800000111239
:0471FC001314151043
:020000040020DA
:10000000FF0FFF0FFF0FFF0FFF0FFF0FFF0FFF0F80
:020000040030CA
:0A0000008CFDE7F4ECC7E4FEFFFFFF
:00000001FF
