:020000040000FA
:0820000047432B320FEF10F0F3
:04200C001FEF37F09B
:10201C00FF0087EF37F00000000000000000000018
:10202C0000000000000000000000000000000000A4
:10203C000000000000000080808080808080808014
:10204C008080808080808080808080808080808084
:10205C008080808080808080808080808080808074
:10206C008080808080808080808080808080808064
:10207C008080808080808080808080808080808054
:10208C008080808080808080808080808080808044
:10209C0080808080808080000000000000000000B4
:1020AC000000000000000000000000000000000024
:1020BC000000000000000080808080808080808094
:1020CC008080808080808080808080808080808004
:1020DC0080808080808080808080808080808080F4
:1020EC0080808080808080808080808080808080E4
:1020FC0080808080808080808080808080808080D4
:10210C0080808080808080808080808080808080C3
:10211C008080808080808000000000000000000033
:10212C0000000000000000000000000000000000A3
:10213C000000000000000080808080808080808013
:10214C008080808080808080808080808080808083
:10215C008080808080808080808080808080808073
:10216C008080808080808080808080808080808063
:10217C008080808080808080808080808080808053
:10218C008080808080808080808080808080808043
:10219C0080808080808080000000000000000000B3
:1021AC000000000000000000000000000000000023
:1021BC000000000000000080808080808080808093
:1021CC008080808080808080808080808080808003
:1021DC0080808080808080808080808080808080F3
:1021EC0080808080808080808080808080808080E3
:1021FC0080808080808080808080808080808080D3
:10220C0080808080808080808080808080808080C2
:10221C008080808080808000000000000000000032
:10222C0000000000000000000000000000000000A2
:10223C000000000000000080808080808080808012
:10224C008080808080808080808080808080808082
:10225C008080808080808080808080808080808072
:10226C008080808080808080808080808080808062
:10227C008080808080808080808080808080808052
:10228C008080808080808080808080808080808042
:10229C0080808080808080000000000000000000B2
:1022AC000000000000000000000000000000000022
:1022BC000000000000000080808080808080808092
:1022CC008080808080808080808080808080808002
:1022DC0080808080808080808080808080808080F2
:1022EC0080808080808080808080808080808080E2
:1022FC0080808080808080808080808080808080D2
:10230C0080808080808080808080808080808080C1
:10231C008080808080808000000000000000000031
:10232C0000000000000000000000000000000000A1
:10233C000000000000000080808080808080808011
:10234C008080808080808080808080808080808081
:10235C008080808080808080808080808080808071
:10236C008080808080808080808080808080808061
:10237C008080808080808080808080808080808051
:10238C008080808080808080808080808080808041
:10239C0080808080808080000000000000000000B1
:1023AC000000000000000000000000000000000021
:1023BC000000000000000080808080808080808091
:1023CC008080808080808080808080808080808001
:1023DC0080808080808080808080808080808080F1
:1023EC0080808080808080808080808080808080E1
:1023FC0080808080808080808080808080808080D1
:10240C0080808080808080808080808080808080C0
:10241C008080808080808000000000000000000030
:10242C0000000000000000000000000000000000A0
:10243C000000000000008080808080808080808090
:10244C008080808080808080808080808080808080
:10245C008080808080808080808080808080808070
:10246C008080808080808080808080808080808060
:10247C008080808080808080808080808080808050
:10248C008080808080808080808080808080808040
:10249C0080808080808080000000000000000000B0
:1024AC000000000000000000000000000000000020
:1024BC000000000000008080808080808080808010
:1024CC008080808080808080808080808080808000
:1024DC0080808080808080808080808080808080F0
:1024EC0080808080808080808080808080808080E0
:1024FC0080808080808080808080808080808080D0
:10250C0080808080808080808080808080808080BF
:10251C00808080808080800000000000000000002F
:10252C00000000000000000000000000000000009F
:10253C00000000000000808080808080808080808F
:10254C00808080808080808080808080808080807F
:10255C00808080808080808080808080808080806F
:10256C00808080808080808080808080808080805F
:10257C00808080808080808080808080808080804F
:10258C00808080808080808080808080808080803F
:10259C0080808080808080000000000000000000AF
:1025AC00000000000000000000000000000000001F
:1025BC00000000000000808080808080808080800F
:1025CC0080808080808080808080808080808080FF
:1025DC0080808080808080808080808080808080EF
:1025EC0080808080808080808080808080808080DF
:1025FC0080808080808080808080808080808080CF
:10260C0080808080808080808080808080808080BE
:10261C00808080808080800000000000000000002E
:10262C00000000000000000000000000000000009E
:10263C00000000000080808080808080808080800E
:10264C00808080808080808080808080808080807E
:10265C00808080808080808080808080808080806E
:10266C00808080808080808080808080808080805E
:10267C00808080808080808080808080808080804E
:10268C00808080808080808080808080808080803E
:10269C0080808080808080000000000000000000AE
:1026AC00000000000000000000000000000000001E
:1026BC00000000000080808080808080808080808E
:1026CC0080808080808080808080808080808080FE
:1026DC0080808080808080808080808080808080EE
:1026EC0080808080808080808080808080808080DE
:1026FC0080808080808080808080808080808080CE
:10270C0080808080808080808080808080808082BB
:10271C008282828080808000000000000000000027
:10272C00000000000000000000000000000000009D
:10273C00000000008080808080808080808080808D
:10274C00808080808080808080808080808080807D
:10275C00808080808080808080808080808080806D
:10276C00808080808080808080808080808080805D
:10277C00808080808080808080808080808080804D
:10278C00808080808080808080808080808080823B
:10279C00828282828282820000000000000000009F
:1027AC00000000000000000000000000000000001D
:1027BC00000000008080808080808080808080800D
:1027CC0080808080808080808080808080808080FD
:1027DC0080808080808080808080808080808080ED
:1027EC0080808080808080808080808080808080DD
:1027FC0080808080808080808080808080808080CD
:10280C0080808080808080808080808080808082BA
:10281C00828282828282820000000000000000001E
:10282C00000000000000000000000000000000009C
:10283C00000000808080808080808080808080800C
:10284C00808080808080808080808080808080807C
:10285C00808080808080808080808080808080806C
:10286C00808080808080808080808080808080805C
:10287C00808080808080808080808080808080804C
:10288C008080808080808080808080808080828238
:10289C00828282828282820000000000000000009E
:1028AC00000000000000000000000000000000001C
:1028BC00000000404080808080808080808080800C
:1028CC0080808080808080808080808080808080FC
:1028DC0080808080808080808080808080808080EC
:1028EC0080808080808080808080808080808080DC
:1028FC0080808080808080808080808080808080CC
:10290C0080808080808080808080808080808282B7
:10291C00828282828282820000000000000000001D
:10292C00000000000000000000000000000000009B
:10293C0000004040404040808080808080808080CB
:10294C00808080808080808080808080808080807B
:10295C00808080808080808080808080808080806B
:10296C00808080808080808080808080808080805B
:10297C00808080808080808080808080808080804B
:10298C008080808080808080808080808080828237
:10299C00828282828282820000000000000000009D
:1029AC00000000000000000000000000000000001B
:1029BC00004040404040404080808080808080804B
:1029CC0080808080808080808080808080808080FB
:1029DC0080808080808080808080808080808080EB
:1029EC0080808080808080808080808080808080DB
:1029FC0080808080808080808080808080808080CB
:102A0C0080808080808080808080808080808282B6
:102A1C00828282828282820000000000000000001C
:102A2C00000000000000000000000000000000009A
:102A3C00404040404040404040408080808080800A
:102A4C00808080808080808080808080808080807A
:102A5C00808080808080808080808080808080806A
:102A6C00808080808080808080808080808080805A
:102A7C00808080808080808080808080808080804A
:102A8C008080808080808080808080808080828236
:102A9C00828282828282820000000000000000009C
:102AAC00000000000000000000000000000000001A
:102ABC00404040404040404040404040808080800A
:102ACC0080808080808080808080808080808080FA
:102ADC0080808080808080808080808080808080EA
:102AEC0080808080808080808080808080808080DA
:102AFC0080808080808080808080808080808080CA
:102B0C0080808080808080808080808080808282B5
:102B1C00828282828282820000000000000000001B
:102B2C000000000000000000000000000000004059
:102B3C004040404040404040404040404040808009
:102B4C008080808080808080808080808080808079
:102B5C008080808080808080808080808080808069
:102B6C008080808080808080808080808080808059
:102B7C008080808080808080808080808080808049
:102B8C008080808080808080808080808082828233
:102B9C00828282828282820000000000000000009B
:102BAC000000000000000000000000000000404099
:102BBC0040404040404040404040404040404080C9
:102BCC0080808080808080808080808080808080F9
:102BDC0080808080808080808080808080808080E9
:102BEC0080808080808080808080808080808080D9
:102BFC0080808080808080808080808080808080C9
:102C0C0080808080808080808080808080828282B2
:102C1C00828282828282820000000000000000001A
:102C2C0000000000000000000000000000404040D8
:102C3C004040404040404040404040404040404088
:102C4C0040808080808080808080808080808080B8
:102C5C008080808080808080808080808080808068
:102C6C008080808080808080808080808080808058
:102C7C008080808080808080808080808080808048
:102C8C008080808080808080808080808082828232
:102C9C00828282828282820000000000000000009A
:102CAC0000000000000000000000004040404040D8
:102CBC004040404040404040404040404040404008
:102CCC0040404080808080808080808080808080B8
:102CDC0080808080808080808080808080808080E8
:102CEC0080808080808080808080808080808080D8
:102CFC0080808080808080808080808080808080C8
:102D0C0080808080808080808080808080828282B1
:102D1C008282828282828200000000000000000019
:102D2C000000000000000000000040404040404017
:102D3C004040404040404040404040404040404087
:102D4C0040404040408080808080808080808080B7
:102D5C008080808080808080808080808080808067
:102D6C008080808080808080808080808080808057
:102D7C008080808080808080808080808080808047
:102D8C008080808080808080808080808082828231
:102D9C008282828282828200000000000000000099
:102DAC000000000000000000004040404040404057
:102DBC004040404040404040404040404040404007
:102DCC004040404040408080808080808080808077
:102DDC0080808080808080808080808080808080E7
:102DEC0080808080808080808080808080808080D7
:102DFC0080808080808080808080808080808080C7
:102E0C0080808080808080808080808082828282AE
:102E1C008282828282828200000000000000000018
:102E2C000000000000000040404040404040404056
:102E3C004040404040404040404040404040404086
:102E4C004040404040404040808080808080808076
:102E5C008080808080808080808080808080808066
:102E6C008080808080808080808080808080808056
:102E7C008080808080808080808080808080808046
:102E8C00808080808080808080808080828282822E
:102E9C008282828282828200000000000000000098
:102EAC000000000000404040404040404040404056
:102EBC004040404040404040404040404040404006
:102ECC004040404040404040404080808080808076
:102EDC0080808080808080808080808080808080E6
:102EEC0080808080808080808080808080808080D6
:102EFC0080808080808080808080808080808080C6
:102F0C0080808080808080808080808082828282AD
:102F1C008282828282828200000000000000000017
:102F2C000000004040404040404040404040404055
:102F3C004040404040404040404040404040404085
:102F4C004040404040404040404040808080808035
:102F5C008080808080808080808080808080808065
:102F6C008080808080808080808080808080808055
:102F7C008080808080808080808080808080808045
:102F8C00808080808080808080808080828282822D
:102F9C008282828282828200000000000000004057
:102FAC004040404040404040404040404040404015
:102FBC004040404040404040404040404040404005
:102FCC004040404040404040404040404080808035
:102FDC0080808080808080808080808080808080E5
:102FEC0080808080808080808080808080808080D5
:102FFC0080808080808080808080808080808080C5
:10300C0080808080808080808080808282828282AA
:10301C0082828282828282404040404040404040D6
:10302C004040404040404040404040404040404094
:10303C004040404040404040404040404040404084
:10304C004040404040404040404040404040408034
:10305C008080808080808080808080808080808064
:10306C008080808080808080808080808080808054
:10307C008080808080808080808080808080808044
:10308C00808080808080808080808082828282822A
:10309C008282828282828240404040404040404056
:1030AC004040404040404040404040404040404014
:1030BC004040404040404040404040404040404004
:1030CC0040404040404040404040404040404040F4
:1030DC004080808080808080808080808080808024
:1030EC0080808080808080808080808080808080D4
:1030FC0080808080808080808080808080808080C4
:10310C0080808080808080808080808282828282A9
:10311C0082828282828282404040404040404040D5
:10312C004040404040404040404040404040404093
:10313C004040404040404040404040404040404083
:10314C004040404040404040404040404040404073
:10315C0040408080808080808080808080808080E3
:10316C008080808080808080808080808080808053
:10317C008080808080808080808080808080808043
:10318C008080808080808080808080828282828229
:10319C008282828282828240404040404040404055
:1031AC004040404040404040404040404040404013
:1031BC004040404040404040404040404040404003
:1031CC0040404040404040404040404040404040F3
:1031DC0040404040808080808080808080808080E3
:1031EC0080808080808080808080808080808080D3
:1031FC0080808080808080808080808080808080C3
:10320C0080808080808080808080828282828282A6
:10321C0082828282828282404040404040404040D4
:10322C004040404040404040404040404040404092
:10323C004040404040404040404040404040404082
:10324C004040404040404040404040404040404072
:10325C0040404040404080808080808080808080E2
:10326C008080808080808080808080808080808052
:10327C008080808080808080808080808080808042
:10328C008080808080808080808082828282828226
:10329C008282828282828240404040404040404054
:1032AC004040404040404040404040404040404012
:1032BC004040404040404040404040404040404002
:1032CC0040404040404040404040404040404040F2
:1032DC0040404040404040408080808080808080E2
:1032EC0080808080808080808080808080808080D2
:1032FC0080808080808080808080808080808080C2
:10330C0080808080808080808080828282828282A5
:10331C0082828282828282404040404040404040D3
:10332C004040404040404040404040404040404091
:10333C004040404040404040404040404040404081
:10334C004040404040404040404040404040404071
:10335C0040404040404040404080808080808080A1
:10336C008080808080808080808080808080808051
:10337C008080808080808080808080808080808041
:10338C008080808080808080808282828282828223
:10339C008282828282828240404040404040404053
:1033AC004040404040404040404040404040404011
:1033BC004040404040404040404040404040404001
:1033CC0040404040404040404040404040404040F1
:1033DC0040404040404040404040408080808080A1
:1033EC0080808080808080808080808080808080D1
:1033FC0080808080808080808080808080808080C1
:10340C0080808080808080808082828282828282A2
:10341C0082828282828282404040404040404040D2
:10342C004040404040404040404040404040404090
:10343C004040404040404040404040404040404080
:10344C004040404040404040404040404040404070
:10345C0040404040404040404040404040808080A0
:10346C008080808080808080808080808080808050
:10347C008080808080808080808080808080808040
:10348C008080808080808080808080808282828228
:10349C008282828282828240404040404040404052
:1034AC004040404040404040404040404040404010
:1034BC004040404040404040404040404040404000
:1034CC0040404040404040404040404040404040F0
:1034DC0040404040404040404040404040404080A0
:1034EC0080808080808080808080808080808080D0
:1034FC0080808080808080808080808080808080C0
:10350C0080808080808080808080808080808082AD
:10351C0082828282828282404040404040404040D1
:10352C00404040404040404040404040404040408F
:10353C00404040404040404040404040404040407F
:10354C00404040404040404040404040404040406F
:10355C00404040404040404040404040404040405F
:10356C00808080808080808080808080808080804F
:10357C00808080808080808080808080808080803F
:10358C00808080808080808080808080808080802F
:10359C008082828282828240404040404040404053
:1035AC00404040404040404040404040404040400F
:1035BC0040404040404040404040404040404040FF
:1035CC0040404040404040404040404040404040EF
:1035DC0040404040404040404040404040404040DF
:1035EC00404080808080808080808080808080804F
:1035FC0080808080808080808080808080808080BF
:10360C0080808080808080808080808080808080AE
:10361C0080808080828282404040404040404040D8
:10362C00404040404040404040404040404040408E
:10363C00404040404040404040404040404040407E
:10364C00404040404040404040404040404040406E
:10365C00404040404040404040404040404040405E
:10366C00404040408080808080808080808080804E
:10367C00808080808080808080808080808080803E
:10368C00808080808080808080808080808080802E
:10369C00808080808080804040404040404040405E
:1036AC00404040404040404040404040404040400E
:1036BC0040404040404040404040404040404040FE
:1036CC0040404040404040404040404040404040EE
:1036DC0040404040404040404040404040404040DE
:1036EC00404040404080808080808080808080800E
:1036FC0080808080808080808080808080808080BE
:10370C0080808080808080808080808080808080AD
:10371C0080808080808080404040404040404040DD
:10372C00404040404040404040404040404040408D
:10373C00404040404040404040404040404040407D
:10374C00404040404040404040404040404040406D
:10375C00404040404040404040404040404040405D
:10376C00404040404040408080808080808080800D
:10377C00808080808080808080808080808080803D
:10378C00808080808080808080808080808080802D
:10379C00808080808080804040404040404040405D
:1037AC00404040404040404040404040404040400D
:1037BC0040404040404040404040404040404040FD
:1037CC0040404040404040404040404040404040ED
:1037DC0040404040404040404040404040404040DD
:1037EC00404040404040404040808080808080800D
:1037FC0080808080808080808080808080808080BD
:10380C0080808080808080808080808080808080AC
:10381C0080808080808080404040404040404040DC
:10382C00404040404040404040404040404040408C
:10383C00404040404040404040404040404040407C
:10384C00404040404040404040404040404040406C
:10385C00404040404040404040404040404040405C
:10386C00404040404040404040404080808080800C
:10387C00808080808080808080808080808080803C
:10388C00808080808080808080808080808080802C
:10389C00808080808080804040404040404040405C
:1038AC00404040404040404040404040404040400C
:1038BC0040404040404040404040404040404040FC
:1038CC0040404040404040404040404040404040EC
:1038DC0040404040404040404040404040404040DC
:1038EC0040404040404040404040404080808080CC
:1038FC0080808080808080808080808080808080BC
:10390C0080808080808080808080808080808080AB
:10391C0080808080808080404040404040404040DB
:10392C00404040404040404040404040404040408B
:10393C00404040404040404040404040404040407B
:10394C00404040404040404040404040404040406B
:10395C00404040404040404040404040404040405B
:10396C0040404040404040404040404040408080CB
:10397C00808080808080808080808080808080803B
:10398C00808080808080808080808080808080802B
:10399C00808080808080804040404040404040405B
:1039AC00404040404040404040404040404040400B
:1039BC0040404040404040404040404040404040FB
:1039CC0040404040404040404040404040404040EB
:1039DC0040404040404040404040404040404040DB
:1039EC0040404040404040404040404040404040CB
:1039FC0080808080808080808080808080808080BB
:103A0C0080808080808080808080808080808080AA
:103A1C0080808080808080404040404040404040DA
:103A2C00404040404040404040404040404040408A
:103A3C00404040404040404040404040404040407A
:103A4C00404040404040404040404040404040406A
:103A5C00404040404040404040404040404040405A
:103A6C00404040404040404040404040404040404A
:103A7C0040408080808080808080808080808080BA
:103A8C00808080808080808080808080808080802A
:103A9C00808080808080804040404040404040405A
:103AAC00404040404040404040404040404040400A
:103ABC0040404040404040404040404040404040FA
:103ACC0040404040404040404040404040404040EA
:103ADC0040404040404040404040404040404040DA
:103AEC0040404040404040404040404040404040CA
:103AFC00404040808080808080808080808080807A
:103B0C0080808080808080808080808080808080A9
:103B1C0080808080808080404040404040404040D9
:103B2C004040404040404040404040404040404089
:103B3C004040404040404040404040404040404079
:103B4C004040404040404040404040404040404069
:103B5C004040404040404040404040404040404059
:103B6C004040404040404040404040404040404049
:103B7C004040404040808080808080808080808079
:103B8C008080808080808080808080808080808029
:103B9C008080808080808040404040404040404059
:103BAC004040404040404040404040404040404009
:103BBC0040404040404040404040404040404040F9
:103BCC0040404040404040404040404040404040E9
:103BDC0040404040404040404040404040404040D9
:103BEC0040404040404040404040404040404040C9
:103BFC004040404040404080808080808080808079
:103C0C0080808080808080808080808080808080A8
:103C1C0080808080808080404040404040404040D8
:103C2C004040404040404040404040404040404088
:103C3C004040404040404040404040404040404078
:103C4C004040404040404040404040404040404068
:103C5C004040404040404040404040404040404058
:103C6C004040404040404040404040404040404048
:103C7C004040404040404040808080808080808038
:103C8C008080808080808080808080808080808028
:103C9C008080808080808040404040404040404058
:103CAC004040404040404040404040404040404008
:103CBC0040404040404040404040404040404040F8
:103CCC0040404040404040404040404040404040E8
:103CDC0040404040404040404040404040404040D8
:103CEC0040404040404040404040404040404040C8
:103CFC004040404040404040404080808080808038
:103D0C0080808080808080808080808080808080A7
:103D1C0080808080808080404040404040404040D7
:103D2C004040404040404040404040404040404087
:103D3C004040404040404040404040404040404077
:103D4C004040404040404040404040404040404067
:103D5C004040404040404040404040404040404057
:103D6C004040404040404040404040404040404047
:103D7C004040404040404040404040408080808037
:103D8C008080808080808080808080808080808027
:103D9C008080808080808040404040404040404057
:103DAC004040404040404040404040404040404007
:103DBC0040404040404040404040404040404040F7
:103DCC0040404040404040404040404040404040E7
:103DDC0040404040404040404040404040404040D7
:103DEC0040404040404040404040404040404040C7
:103DFC004040404040404040404040404040808037
:103E0C0080808080808080808080808080808080A6
:103E1C0080808080808080404040404040404040D6
:103E2C004040404040404040404040404040404086
:103E3C004040404040404040404040404040404076
:103E4C004040404040404040404040404040404066
:103E5C004040404040404040404040404040404056
:103E6C004040404040404040404040404040404046
:103E7C0040404040404040404040404040404080F6
:103E8C008080808080808080808080808080808026
:103E9C008080808080808040404040404040404056
:103EAC004040404040404040404040404040404006
:103EBC0040404040404040404040404040404040F6
:103ECC0040404040404040404040404040404040E6
:103EDC0040404040404040404040404040404040D6
:103EEC0040404040404040404040404040404040C6
:103EFC0040404040404040404040404040404040B6
:103F0C0040808080808080808080808080808080E5
:103F1C0080808080808080404040404040404040D5
:103F2C004040404040404040404040404040404085
:103F3C004040404040404040404040404040404075
:103F4C004040404040404040404040404040404065
:103F5C004040404040404040404040404040404055
:103F6C004040404040404040404040404040404045
:103F7C004040404040404040404040404040404035
:103F8C0040404080808080808080808080808080E5
:103F9C008080808080808040404040404040404055
:103FAC004040404040404040404040404040404005
:103FBC0040404040404040404040404040404040F5
:103FCC0040404040404040404040404040404040E5
:103FDC0040404040404040404040404040404040D5
:103FEC0040404040404040404040404040404040C5
:103FFC0040404040404040404040404040404040B5
:10400C0040404040408080808080808080808080E4
:10401C0080808080808080404040404040404040D4
:10402C004040404040404040404040404040404084
:10403C004040404040404040404040404040404074
:10404C004040404040404040404040404040404064
:10405C004040404040404040404040404040404054
:10406C004040404040404040404040404040404044
:10407C004040404040404040404040404040404034
:10408C0040404040404080808080808080808080A4
:10409C008080808080808040404040404040404054
:1040AC004040404040404040404040404040404004
:1040BC0040404040404040404040404040404040F4
:1040CC0040404040404040404040404040404040E4
:1040DC0040404040404040404040404040404040D4
:1040EC0040404040404040404040404040404040C4
:1040FC0040404040404040404040404040404040B4
:10410C0040404040404040408080808080808080A3
:10411C0080808080808080404040404040404040D3
:10412C004040404040404040404040404040404083
:10413C004040404040404040404040404040404073
:10414C004040404040404040404040404040404063
:10415C004040404040404040404040404040404053
:10416C004040404040404040404040404040404043
:10417C004040404040404040404040404040404033
:10418C0040404040404040404040808080808080A3
:10419C008080808080808040404040404040404053
:1041AC004040404040404040404040404040404003
:1041BC0040404040404040404040404040404040F3
:1041CC0040404040404040404040404040404040E3
:1041DC0040404040404040404040404040404040D3
:1041EC0040404040404040404040404040404040C3
:1041FC0040404040404040404040404040404040B3
:10420C0040404040404040404040404080808080A2
:10421C0080808080808080404040404040404040D2
:10422C004040404040404040404040404040404082
:10423C004040404040404040404040404040404072
:10424C004040404040404040404040404040404062
:10425C004040404040404040404040404040404052
:10426C004040404040404040404040404040404042
:10427C004040404040404040404040404040404032
:10428C004040404040404040404040404080808062
:10429C008080808080808040404040404040404052
:1042AC004040404040404040404040404040404002
:1042BC0040404040404040404040404040404040F2
:1042CC0040404040404040404040404040404040E2
:1042DC0040404040404040404040404040404040D2
:1042EC0040404040404040404040404040404040C2
:1042FC0040404040404040404040404040404040B2
:10430C004040404040404040404040404040408061
:10431C0080808080808080404040404040404040D1
:10432C004040404040404040404040404040404081
:10433C004040404040404040404040404040404071
:10434C004040404040404040404040404040404061
:10435C004040404040404040404040404040404051
:10436C004040404040404040404040404040404041
:10437C004040404040404040404040404040404031
:10438C004040404040404040404040404040404021
:10439C004080808080808040404040404040404091
:1043AC004040404040404040404040404040404001
:1043BC0040404040404040404040404040404040F1
:1043CC0040404040404040404040404040404040E1
:1043DC0040404040404040404040404040404040D1
:1043EC0040404040404040404040404040404040C1
:1043FC0040404040404040404040404040404040B1
:10440C0040404040404040404040404040404040A0
:10441C004040808080808040404040404040404050
:10442C004040404040404040404040404040404080
:10443C004040404040404040404040404040404070
:10444C004040404040404040404040404040404060
:10445C004040404040404040404040404040404050
:10446C004040404040404040404040404040404040
:10447C004040404040404040404040404040404030
:10448C004040404040404040404040404040404020
:10449C004040404080808040404040404040404050
:1044AC004040404040404040404040404040404000
:1044BC0040404040404040404040404040404040F0
:1044CC0040404040404040404040404040404040E0
:1044DC0040404040404040404040404040404040D0
:1044EC0040404040404040404040404040404040C0
:1044FC0040404040404040404040404040404040B0
:10450C00404040404040404040404040404040409F
:10451C00404040404040804040404040404040404F
:10452C00404040404040404040404040404040407F
:10453C00404040404040404040404040404040406F
:10454C00404040404040404040404040404040405F
:10455C00404040404040404040404040404040404F
:10593C004040404040404040404040404041414059
:10594C00404040404040404040404040404040404B
:10595C00404040404040404040404040404040403B
:10596C00404040404040404040404040404040402B
:10597C00404040404040404040404040404040401B
:10598C00404040404040404040404040404040400B
:10599C0040404040404040404040404040404040FB
:1059AC0040404040404040404040404040404040EB
:1059BC0040404040404040404040414141414140D6
:1059CC0040404040404040404040404040404040CB
:1059DC0040404040404040404040404040404040BB
:1059EC0040404040404040404040404040404040AB
:1059FC00404040404040404040404040404040409B
:105A0C00404040404040404040404040404040408A
:105A1C00404040404040404040404040404040407A
:105A2C00404040404040404040404040404040406A
:105A3C004040404040404141414141414141414051
:105A4C00404040404040404040404040404040404A
:105A5C00404040404040404040404040404040403A
:105A6C00404040404040404040404040404040402A
:105A7C00404040404040404040404040404040401A
:105A8C00404040404040404040404040404040400A
:105A9C0040404040404040404040404040404040FA
:105AAC0040404040404040404040404040404040EA
:105ABC0040404141414141414141414141414141CC
:105ACC0040404040404040404040404040404040CA
:105ADC0040404040404040404040404040404040BA
:105AEC0040404040404040404040404040404040AA
:105AFC00404040404040404040404040404040409A
:105B0C004040404040404040404040404040404089
:105B1C004040404040404040404040404040404079
:105B2C004040404040404040404040404041414166
:105B3C004141414141414141414141414141414149
:105B4C004040404040404040404040404040404049
:105B5C004040404040404040404040404040404039
:105B6C004040404040404040404040404040404029
:105B7C004040404040404040404040404040404019
:105B8C004040404040404040404040404040404009
:105B9C0040404040404040404040404040404040F9
:105BAC0040404040404040414141414141414141E0
:105BBC0041414141414141414141414141414141C9
:105BCC0040404040404040404040404040404040C9
:105BDC0040404040404040404040404040404040B9
:105BEC0040404040404040404040404040404040A9
:105BFC004040404040404040404040404040404099
:105C0C004040404040404040404040404040404088
:105C1C004040404040404040404040404040404078
:105C2C00404040404141414141414141414141415C
:105C3C004141414141414141414141414141414148
:105C4C004140404040404040404040404040404047
:105C5C004040404040404040404040404040404038
:105C6C004040404040404040404040404040404028
:105C7C004040404040404040404040404040404018
:105C8C004040404040404040404040404040404008
:105C9C0040404040404040404040404040404040F8
:105CAC0040404040414141414141414141414141DC
:105CBC0041414141414141414141414141414141C8
:105CCC0041404040404040404040404040404040C7
:105CDC0040404040404040404040404040404040B8
:105CEC0040404040404040404040404040404040A8
:105CFC004040404040404040404040404040404098
:105D0C004040404040404040404040404040404087
:105D1C004040404040404040404040404040404077
:105D2C00404040404141414141414141414141415B
:105D3C004141414141414141414141414141414147
:105D4C004141404040404040404040404040404045
:105D5C004040404040404040404040404040404037
:105D6C004040404040404040404040404040404027
:105D7C004040404040404040404040404040404017
:105D8C004040404040404040404040404040404007
:105D9C0040404040404040404040404040404040F7
:105DAC0040404040414141414141414141414141DB
:105DBC0041414141414141414141414141414141C7
:105DCC0041414040404040404040404040404040C5
:105DDC0040404040404040404040404040404040B7
:105DEC0040404040404040404040404040404040A7
:105DFC004040404040404040404040404040404097
:105E0C004040404040404040404040404040404086
:105E1C004040404040404040404040404040404076
:105E2C00404040404041414141414141414141415B
:105E3C004141414141414141414141414141414146
:105E4C004141404040404040404040404040404044
:105E5C004040404040404040404040404040404036
:105E6C004040404040404040404040404040404026
:105E7C004040404040404040404040404040404016
:105E8C004040404040404040404040404040404006
:105E9C0040404040404040404040404040404040F6
:105EAC0040404040404141414141414141414141DB
:105EBC0041414141414141414141414141414141C6
:105ECC0041414140404040404040404040404040C3
:105EDC0040404040404040404040404040404040B6
:105EEC0040404040404040404040404040404040A6
:105EFC004040404040404040404040404040404096
:105F0C004040404040404040404040404040404085
:105F1C004040404040404040404040404040404075
:105F2C00404040404041414141414141414141415A
:105F3C004141414141414141414141414141414145
:105F4C004141414040404040404040404040404042
:105F5C004040404040404040404040404040404035
:105F6C004040404040404040404040404040404025
:105F7C004040404040404040404040404040404015
:105F8C004040404040404040404040404040404005
:105F9C0040404040404040404040404040404040F5
:105FAC0040404040404141414141414141414141DA
:105FBC0041414141414141414141414141414141C5
:105FCC0041414140404040404040404040404040C2
:105FDC0040404040404040404040404040404040B5
:105FEC0040404040404040404040404040404040A5
:105FFC004040404040404040404040404040404095
:10600C004040404040404040404040404040404084
:10601C004040404040404000010E0001B16F000E76
:10602C00846F54EC37F06F0028FFB2F06F002CFF38
:10603C00B3F06F0030FFB4F0B5EC37F00001CD05D4
:10604C00D8A403D0210E3A016013600014F32CF095
:10605C00600018F32DF060001CF32EF00001C45109
:10606C00A6EC34F0A4EC36F05FEC36F00001B3A7EC
:10607C00B3B506D0B4BF04D0E4EC36F08FEC38F0F6
:10608C00D1EC38F0800ED26E6F0028FFB2F06F00AA
:10609C002CFFB3F06F0030FFB4F00001B3A7B3B521
:1060AC0001D0B2BD040001EC32F0600E2C6E000E7B
:1060BC002D6E22EC38F00001B06FB051D8A469D12C
:1060CC00E3D7090E856F000E866F030E876F850E62
:1060DC00486E000E496E030E4A6EF3EC35F0D4D7C1
:1060EC006251010AD8A4030A615188EC33F06000B4
:1060FC00B0F048F06000B4F049F0080E4A6EF3ECD2
:10610C0035F0C2D703EC38F06000B0F048F0600016
:10611C00B4F049F00A0E4A6EF3EC35F0B5D7470EE1
:10612C006119D8A412D0430E6219D8A40ED02B0E2C
:10613C006319D8A40AD0320E6419D8A406D0050E5F
:10614C00B019D8A402D0000E01D0010EB16F000E10
:10615C000001856F850E486E000E496E010E4A6E69
:10616C00F3EC35F091D7B151D8A413D0020E856F52
:10617C00100E866F000E876F100E886F000E896FE1
:10618C00850E486E000E496E050E4A6EF3EC35F026
:10619C007BD78569DFD7B151D8A4FBD7030EB06587
:1061AC0020D0600088F1AEF0AF6BAE51AF6FAE6B2C
:1061BC006151AE13030EB56F0FD0600EB525D96EBD
:1061CC00DA6A000EDA22DF502C6EAE51E4EC38F0B5
:1061DC000001AE4BAF2BB52BB051B55DD8B0B7D7D6
:1061EC00ECD7FE0EB6D7B151D8A4D3D7040EB01944
:1061FC00D8A4F7D7600088F1AEF0AF6BAE51AF6F9B
:10620C00AE6B6151AE1360008CF1ADF0AD51D8B4F2
:10621C00E8D7000E856F000EB56F15D0B551526ED4
:10622C00536A010E5226000E5322850E5224D96E4B
:10623C00000E5320DA6EAE51F6EC38F0DF6E000132
:10624C00AE4BAF2BB52BAD51B55DD8B003D01F0EF7
:10625C00B565E4D7850E486E000E496EAD294A6EC1
:10626C00F3EC35F011D7FF000FD7B151D8A491D76B
:10627C00000E856F850E486E000E496E010E4A6E3B
:10628C00F3EC35F0E1EC37F0FFD6B151D8A481D75F
:10629C00100EB019D8A4A5D7610E2C6E000E2D6E61
:1062AC00BBEC38F054D7B151D8A473D7100EB01939
:1062BC00D8A497D7610E2C6E000E2D6EA5EC38F07D
:1062CC0046D7B151D8A465D775EC38F06000B0F062
:1062DC00A9F06000B4F0AAF0000E0001856F000E6A
:1062EC00B56F0E0EB56501D018D0B551A925D96E74
:1062FC00000EAA21DA6EB551526E536A010E522667
:10630C00000E5322850E5224E16E000E5320E26ED5
:10631C006F007FFFE7FFB52BE4D7850E486E000EAC
:10632C00496E100E4A6EF3EC35F0AED6B151D8A4CE
:10633C0030D75BEC38F06000B0F0ABF06000B4F03C
:10634C00ACF0000E0001856F000EB56F0E0EB5653A
:10635C0001D0E3D7B551AB25D96E000EAC21DA6E66
:10636C00B551526E536A010E5226000E5322850E01
:10637C005224E16E000E5320E26E6F007FFFE7FFA8
:10638C00B52BE4D7B151D8B4E2D603D709EC39F028
:10639C007BD66051000AD8B494D6100AD8B4BFD6B4
:1063AC00010AD8B4E0D6030AD8B4F5D6010AD8B499
:1063BC001AD7070AD8B457D7010AD8B456D7030A44
:1063CC00D8B463D7010AD8B46ED70F0AD8B479D72A
:1063DC00010AD8B4ABD7390AD8B4D4D7600AD8B428
:1063EC007FD6010AD8B48ED6030AD8B48BD6BD0A90
:1063FC00D8B467D6CBD76F0028FF2CF06F002CFFDA
:10640C002DF06F0030FF2EF01A502C18306E1B50F0
:10641C002D18316E1C502E18326E6000B0F01AF030
:10642C006000B4F01BF06000B8F01CF032AE02D08B
:10643C00000E016E32AC02D0000E026E31A602D0FC
:10644C00000E036E31A402D0000E046E30AC02D0EC
:10645C00000E056E30A602D0000E066E30AA02D0D9
:10646C00000E076E30AE02D0000E086E30A802D0BF
:10647C00000E096E31A002D0000E0A6E31A202D0BD
:10648C00000E0B6E30A402D0000E0C6E32A002D0A7
:10649C00000E0D6E32AA02D0000E0E6E31AA02D082
:1064AC00000E0F6E3901A3AF1200A39F000E2F6ECA
:1064BC00010E2F24D96EDA6A000EDA22DF2A2F2A77
:1064CC000E0E2F64F5D7000E166E800E176E090E89
:1064DC00016407D01CBE05D00A0E016E0001DD510F
:1064EC001612090E016407D01CBE05D00A0E016EEF
:1064FC000001CE511712090E026407D01CBC05D046
:10650C000A0E026E0001DE511612090E026407D04B
:10651C001CBC05D00A0E026E0001CF511712090ED9
:10652C00036407D01BB605D00A0E036E0001DF51C1
:10653C001612090E036407D01BB605D00A0E036EA3
:10654C000001D0511712090E046407D01BB405D0FA
:10655C000A0E046E0001E0511612090E046407D0F5
:10656C001BB405D00A0E046E0001D1511712090E8E
:10657C00056407D01ABC05D00A0E056E0001E15166
:10658C001612090E056407D01ABC05D00A0E056E4A
:10659C000001D2511712090E066407D01AB605D0A5
:1065AC000A0E066E0001E2511612090E066407D09F
:1065BC001AB605D00A0E066E0001D3511712090E39
:1065CC00076407D01ABA05D00A0E076E0001E35112
:1065DC001612090E076407D01ABA05D00A0E076EF8
:1065EC000001D4511712090E086407D01ABE05D049
:1065FC000A0E086E0001E4511612090E086407D049
:10660C001ABE05D00A0E086E0001D5511712090EDC
:10661C00096407D01AB805D00A0E096E0001E551BD
:10662C001612090E096407D01AB805D00A0E096EA5
:10663C000001D6511712090E0A6407D01BB005D001
:10664C000A0E0A6E0001E6511612090E0A6407D0F2
:10665C001BB005D00A0E0A6E0001D7511712090E95
:10666C000B6407D01BB205D00A0E0B6E0001E7516C
:10667C001612090E0B6407D01BB205D00A0E0B6E56
:10668C000001D8511712090E0C6407D01AB405D0AA
:10669C000A0E0C6E0001E8511612090E0C6407D09C
:1066AC001AB405D00A0E0C6E0001D9511712090E3E
:1066BC000F6407D01BBA05D00A0E0F6E0001EB5108
:1066CC001612090E0F6407D01BBA05D00A0E0F6EF6
:1066DC000001DC511712090E0D6408D00A0E0D6E64
:1066EC001CA003D0000E186E01D01868090E0E64A1
:1066FC0012000A0E0E6E1CAA03D0000E196E1200A8
:10670C0019681200346E600058F022F060005CF0E2
:10671C0023F0FF0E2E6E3F0E2F6E5450306E316AEA
:10672C00070ED89030363136E82EFBD7230E326E5A
:10673C00200E336E305032263150332255503226D3
:10674C00000E33222E5032262F5033226000CBF015
:10675C00F6FF6000CFF0F7FF08006F00D4FF45F0A4
:10676C0045A01DD0800E546004D0FF0E366E340E42
:10677C0003D0000E366ECC0E356E6000D4F024F0D3
:10678C00800E556004D0FF0E386E340E03D0000E10
:10679C00386ECC0E376E6000DCF025F044D045A28C
:1067AC001DD0800E546004D0FF0E3A6E340E03D010
:1067BC00000E3A6ECC0E396E6000E4F024F0800EC0
:1067CC00556004D0FF0E3C6E340E03D0000E3C6EB0
:1067DC00CC0E3B6E6000ECF025F025D045A41DD00E
:1067EC00800E546004D0FF0E3E6E490E03D0000E96
:1067FC003E6EB70E3D6E6000F4F024F0800E5560D6
:10680C0004D0FF0E406E490E03D0000E406EB70E42
:10681C003F6E6000FCF025F006D0600050F124F0D3
:10682C00600054F125F045AC0FD0800E566005D0B9
:10683C00FF0E426E010E416E03D0000E426E416897
:10684C00600004F146F003D045AE04D04668000E5B
:10685C00476E58D0600058F146F060005CF147F08C
:10686C0051D0600018F126F060001CF127F0600098
:10687C0060F12EF02E3A0F0E2E165950F00B2E10F2
:10688C003FD0000E296E57D060001CF12EF02E3A2E
:10689C000F0E2E164650F00B2E10266E600064F173
:1068AC0027F0600060F128F0ECD760001CF12EF0AE
:1068BC002E3A0F0E2E164650F00B2E10266E600040
:1068CC0060F12EF02E3A0F0E2E165950F00B2E10A2
:1068DC00276E000E286ED5D7600018F126F06000E8
:1068EC001CF127F0600064F128F0600060F129F0E1
:1068FC0022D0600018F126F060001CF127F0000E89
:10690C00286EBFD73450000AD8B4ABD7010AD8B41C
:10691C00BBD7030AD8B4C9D7010AD8B4DDD7070A44
:10692C00D8B4E7D7010AD8B49CD7030AD8B499D7FE
:10693C00010AD8B496D7220E2C6E000E2D6E1200C2
:10694C00336E800E3E01F86F000EF96F030EFA6F76
:10695C00FA518F0B6009FA6F070EFB6F3F0EFF6F3A
:10696C00000EFD6FF369040EEC6F1D0EFE6FD78FDA
:10697C00D7A1FED76000CCF05AF06000B0F05BF00D
:10698C006000B4F05CF06000B8F05DF03901A197E4
:10699C00000E346E5A0E3424D96EDA6A000EDA22E6
:1069AC00DF503E01F16F3901A1A7FDD7A197540E1D
:1069BC003424D96EDA6A000EDA226F009BFBDFFFFB
:1069CC00342A050E3464E6D73901550EEF6FAA0E42
:1069DC00EF6FEF815A0E2F6E000E306E316A326AF5
:1069EC00110E05D0D8903232313230322F32E82E9F
:1069FC00F9D72F503B01FB6F5A0E2F6E000E306EE5
:106A0C00316A326A6000C0F02FF06000C4F030F0E0
:106A1C006000C8F031F0326A2F50FA6F5A0EF96FDD
:106A2C00F10E2F6E3E0E306E316A326A6000C0F08D
:106A3C002FF06000C4F030F06000C8F031F0326A22
:106A4C002F50F16FF10EF06F000EF86F060EF76F0E
:106A5C00000EEF6F010EEE6F2A0EFF6F3F0EFD174B
:106A6C00FD9BE70EFD17FD51F90B0209FD6FFD9122
:106A7C00C00EFC6F000EDB6FE60E2F6E3E0E306EFE
:106A8C00316A326A6000C0F02FF06000C4F030F060
:106A9C006000C8F031F0326A2F50DA6FE60ED96F11
:106AAC00540E2F6E000E306E316A326A6000C0F0E8
:106ABC002FF06000C4F030F06000C8F031F0326AA2
:106ACC002F50D16F540ED06F000ED86F010ED76FB0
:106ADC00000ECF6F060ECE6F0B0EDF6FDD513F0B2E
:106AEC004009DD6FDD9BE70EDD17F90EDD17DD913B
:106AFC00C00EDC6FFC8B1200000EAC6E010EAE6E85
:106B0C00040EAD6E120EAF6E1F0EAB6E000EAA6EA3
:106B1C00800EAC6E0F0E6D6E000E6C6E800E6E6E77
:106B2C00000E3C01756F180E766F050E776F000E18
:106B3C00786F000E796F080E7A6F020E7B6F000E65
:106B4C007C6F000E7D6F840E746F000E6B6F2C0EBD
:106B5C006C6F050E6D6F000E6E6F000E6F6F080E72
:106B6C00706F010E716F000E726F000E736F840EDA
:106B7C006A6F000E616F240E626F180E636F2B0E1E
:106B8C00646F2C0E656F020E666F040E676F900EAD
:106B9C00686F600E696F820E606F040E576F260E61
:106BAC00586F2C0E596F250E5A6F000E5B6F020E2C
:106BBC005C6F000E5D6F140E5E6F000E5F6F830EC8
:106BCC00566F050E3D011C6F000E196F000E156FF0
:106BDC00020E166F820E146F12003F011F9F3D01B3
:106BEC0017ABFDD7C398000E206E000E1F6E000E63
:106BFC001E6E000E1D6E010EAA6E010E186F1A9FEE
:106C0C0060002BF112FD4A04D8A40BD0600023F1D4
:106C1C00D9FF600027F1DAFFDF50116F800E116F82
:106C2C003FD0600023F1D9FF600027F1DAFFDF507D
:106C3C00116F20EE01F04850D9264950DA22DF506E
:106C4C00116F4A50FE0F516E020E506E27D060002D
:106C5C0044F14BF04C6A4BBE4C06020E4B26000E18
:106C6C004C2212514D6E4E6A4B504D5C4E50800A68
:106C7C004F6E4C50800A4F58D8B010D05150D8A4F9
:106C8C0003D0800E116F09D050504824D96E000EDD
:106C9C004920DA6EDF50116F502A510651AED7D70A
:106CAC001AAFFED717ABFED71A9F3F011F8FC388B1
:106CBC001200000E946E010E966E000E976E000E72
:106CCC00926E500E936E050E956E3901A9919981B5
:106CDC00000EAC6E010EAE6E000EAF6E000EAA6E04
:106CEC007D0EAB6EA495F00EAC6E04D0CBB802D07A
:106CFC00000EAA6EA4A5FAD7550E3F015F6F82EC69
:106D0C0035F0800E946E3F011B691C691D69000EE5
:106D1C00126F000E136F000E146F880E1E6F430E51
:106D2C001F6F010E216F000E236F000E226F3901B1
:106D3C00A19F818F918F3F011F8F1200000EB86EA3
:106D4C00470EB96E7C0EB76E3901A39F800EB86EDC
:106D5C00DD0E2C6E000E2D6E000E2F6E000E2E6EA4
:106D6C00000E316E0F0E306E40EC38F0CE0E2C6EE5
:106D7C00000E2D6E000E2F6E000E2E6E000E316E5C
:106D8C000F0E306E40EC38F0010E0001DD6F020E7C
:106D9C00DE6F040EDF6F080EE06F100EE16F010E58
:106DAC00D36F020ED46F040ED56F080ED66F100E73
:106DBC00D76F200ED86F400ED96F1200B60E2C6E06
:106DCC00000E2D6E000E2F6E000E2E6E000E316E0C
:106DDC00180E306E40EC38F0470E0001B66F430EC3
:106DEC00B76F2B0EB86F320EB96F000EBB6F100E53
:106DFC00BA6F000EBC6FBD69000EBE6FBF69000E8E
:106E0C00C06FC169000EC26FC369110EC46F120E40
:106E1C00C56F130EC66F140EC76F000EC86F180E19
:106E2C00C96F180ECA6F010ECB6FCC69010ECD6FF6
:106E3C001200390191BFA1AF23D0A19FD8901D366C
:106E4C007F0E3F01186501D002D0010E01D0000E5B
:106E5C001D12000E1E6E000E926E202A080E2018B7
:106E6C00D8A40ED0000E1F24D96EDA6A010EDA22D5
:106E7C00600077F0DFFF000E1D6E000E206E1F2AE3
:106E8C003901A9A111001F50D8B403D0010E1E6EF8
:106E9C0002D012EC39F03901A9911100000ED2BECA
:106EAC00010E2C6ED29E550E3A01BF6FAA0EBF6F0B
:106EBC00BF910C0ECC6F0C0ED26F040E0C6F550ED6
:106ECC00BF6FAA0EBF6FBF812CA002D0D28E01D093
:106EDC00D29EBB68C268C368C468030E3A01406F97
:106EEC00000E506F1E0E606FFC0E416F3F0E516F07
:106EFC00E10E616F000E426F100E526F000E626F4A
:106F0C001200360EF66E720EF76E000EF86E00EE74
:106F1C0054F010EE0CF009006F00D7FFEEFFE550B7
:106F2C00E150F9E100EE00F1240EEE6AE806FDE115
:106F3C0000EEB6F0360EEE6AE806FDE100EE01F06A
:106F4C002B0EEE6AE806FDE10C0ED56E200ED66E09
:106F5C00000ED76E000EF86E000112EF30F0B60E78
:106F6C00346E000E356E000E366E0400365034242E
:106F7C00D96E000E3520DA6E3650F6EC38F0DF6E36
:106F8C00030E3618D8A412D0470E0001B6190AE128
:106F9C00430EB71907E12B0EB81904E1320EB919DB
:106FAC00D8B404D0E4EC36F08FEC38F0362A170E57
:106FBC003664DBD71200000ED26E010E3F01386F23
:106FCC00000EFC6E550ED46EAA0ED46E000ED46E4E
:106FDC00D490080ED56E000ED66E000ED76E550EE0
:106FEC00D46EAA0ED46E010ED46ED480000EFB6E3D
:106FFC00000EFA6E000EF96E1200000E226E000EDC
:10700C00236E600040F024F0600044F025F0600036
:10701C0048F026F060004CF027F0600050F028F0AB
:10702C00600054F029F0020E2A6E020E2B6E220E16
:10703C002C6E000E2D6E12001E50D8A402D0000E25
:10704C001200000E2E6E10D0000E2E24D96EDA6AAD
:10705C00010EDA222E502C24E16E000E2D20E26E51
:10706C006F007FFFE7FF2E2A1F502E5CD8A0ECD7B5
:10707C001F5012006000B0F032F06000B4F033F03A
:10708C000BD06000CBF0D9FF6000CFF0DAFF6000CE
:10709C00BBF0DFFF324A332A3006D8A03106302845
:1070AC00F0E13128D8B41200ECD7000E2E6ECE0EC3
:1070BC002E24D96EDA6A000EDA22220E2E24E16E0C
:1070CC00E26A000EE2226F007FFFE7FF2E2A0E0E0F
:1070DC002E64EDD7220E2C6E000E2D6E1200000EBB
:1070EC002E6EDD0E2E24D96EDA6A000EDA22220EF6
:1070FC002E24E16EE26A000EE2226F007FFFE7FFB2
:10710C002E2A0E0E2E64EDD7220E2C6E000E2D6E36
:10711C001200B60E2E6E000E2F6E000E306E30501A
:10712C002E24D96E000E2F20DA6EDF502C6E3050CC
:10713C00E4EC38F0302A170E3064F1D71200000E50
:10714C002E6E2E502C24D96E000E2D20DA6ECE0E03
:10715C002E24E16EE26A000EE2226F007FFFE7FF51
:10716C002E2A0E0E2E64EDD71200000E2E6E2E500F
:10717C002C24D96E000E2D20DA6EDD0E2E24E16E3D
:10718C00E26A000EE2226F007FFFE7FF2E2A0E0E4E
:10719C002E64EDD71200600050F110F0600054F135
:1071AC0011F0600058F112F060005CF113F0600017
:1071BC0064F114F0600060F115F012002D6E000EF9
:1071CC003901E56F6000B7F0E0F96000B3F0E3F966
:1071DC00E58500EC39F03901E5B3FDD7E5951200F2
:1071EC002C6E000E3901E56F6000B3F0E0F9E5811B
:1071FC00E3511200D29E550E3901E66FAA0EE66FCE
:10720C00E583D28E1200000E206E000E1F6E000E53
:10721C001E6E000E1D6E1200000E206E000E1F6EF4
:10722C00000E1E6E000E1D6E12008080808000000D
:06723C00111213141510DD
:020000040020DA
:10000000FF0FFF0FFF0FFF0FFF0FFF0FFF0FFF0F80
:020000040030CA
:0A0000008CFDE7F4ECC7E4FEFFFFFF
:00000001FF
